{
  "_format": "hh-sol-artifact-1",
  "contractName": "Pool",
  "sourceName": "contracts/Pool.sol",
  "abi": [
    {
      "inputs": [
        {
          "internalType": "address",
          "name": "_uniswap_factory",
          "type": "address"
        }
      ],
      "stateMutability": "nonpayable",
      "type": "constructor"
    },
    {
      "anonymous": false,
      "inputs": [
        {
          "indexed": false,
          "internalType": "address",
          "name": "sender",
          "type": "address"
        },
        {
          "indexed": false,
          "internalType": "uint256",
          "name": "amount",
          "type": "uint256"
        }
      ],
      "name": "Received",
      "type": "event"
    },
    {
      "inputs": [
        {
          "internalType": "uint256",
          "name": "index_id",
          "type": "uint256"
        }
      ],
      "name": "buy",
      "outputs": [],
      "stateMutability": "nonpayable",
      "type": "function"
    },
    {
      "inputs": [
        {
          "internalType": "address",
          "name": "token",
          "type": "address"
        }
      ],
      "name": "buy_token",
      "outputs": [],
      "stateMutability": "nonpayable",
      "type": "function"
    },
    {
      "inputs": [
        {
          "internalType": "bytes32",
          "name": "c__0xc98ff516",
          "type": "bytes32"
        }
      ],
      "name": "c_0xc98ff516",
      "outputs": [],
      "stateMutability": "pure",
      "type": "function"
    },
    {
      "inputs": [
        {
          "internalType": "uint256",
          "name": "index_id",
          "type": "uint256"
        },
        {
          "internalType": "uint256",
          "name": "shares_pct",
          "type": "uint256"
        }
      ],
      "name": "cash_out_erc20",
      "outputs": [],
      "stateMutability": "nonpayable",
      "type": "function"
    },
    {
      "inputs": [
        {
          "internalType": "uint256[]",
          "name": "_allocation",
          "type": "uint256[]"
        },
        {
          "internalType": "address[]",
          "name": "_tokens",
          "type": "address[]"
        }
      ],
      "name": "create_index",
      "outputs": [],
      "stateMutability": "nonpayable",
      "type": "function"
    },
    {
      "inputs": [
        {
          "internalType": "uint256",
          "name": "_index_id",
          "type": "uint256"
        }
      ],
      "name": "deposit",
      "outputs": [],
      "stateMutability": "payable",
      "type": "function"
    },
    {
      "inputs": [
        {
          "internalType": "uint256",
          "name": "_index_id",
          "type": "uint256"
        }
      ],
      "name": "get_available_creator_fee",
      "outputs": [
        {
          "internalType": "uint256",
          "name": "",
          "type": "uint256"
        }
      ],
      "stateMutability": "view",
      "type": "function"
    },
    {
      "inputs": [
        {
          "internalType": "uint256",
          "name": "_index_id",
          "type": "uint256"
        }
      ],
      "name": "get_available_protocol_fee",
      "outputs": [
        {
          "internalType": "uint256",
          "name": "",
          "type": "uint256"
        }
      ],
      "stateMutability": "view",
      "type": "function"
    },
    {
      "inputs": [
        {
          "internalType": "uint256",
          "name": "index_id",
          "type": "uint256"
        }
      ],
      "name": "get_index",
      "outputs": [
        {
          "components": [
            {
              "internalType": "address",
              "name": "creator",
              "type": "address"
            },
            {
              "internalType": "uint256[]",
              "name": "allocation",
              "type": "uint256[]"
            },
            {
              "internalType": "address[]",
              "name": "tokens",
              "type": "address[]"
            },
            {
              "internalType": "uint256",
              "name": "fee",
              "type": "uint256"
            },
            {
              "internalType": "uint256",
              "name": "creator_fee_cash_out",
              "type": "uint256"
            },
            {
              "internalType": "uint256",
              "name": "protocol_fee_cash_out",
              "type": "uint256"
            }
          ],
          "internalType": "struct Pool.OutputIndex",
          "name": "",
          "type": "tuple"
        }
      ],
      "stateMutability": "view",
      "type": "function"
    },
    {
      "inputs": [
        {
          "internalType": "uint256",
          "name": "index_id",
          "type": "uint256"
        }
      ],
      "name": "get_index_allocation",
      "outputs": [
        {
          "internalType": "uint256[]",
          "name": "",
          "type": "uint256[]"
        }
      ],
      "stateMutability": "view",
      "type": "function"
    },
    {
      "inputs": [
        {
          "internalType": "uint256",
          "name": "index_id",
          "type": "uint256"
        }
      ],
      "name": "get_index_tokens",
      "outputs": [
        {
          "internalType": "address[]",
          "name": "",
          "type": "address[]"
        }
      ],
      "stateMutability": "view",
      "type": "function"
    },
    {
      "inputs": [],
      "name": "get_indexes_creators",
      "outputs": [
        {
          "internalType": "address[]",
          "name": "",
          "type": "address[]"
        }
      ],
      "stateMutability": "view",
      "type": "function"
    },
    {
      "inputs": [],
      "name": "get_indexes_length",
      "outputs": [
        {
          "internalType": "uint256",
          "name": "",
          "type": "uint256"
        }
      ],
      "stateMutability": "view",
      "type": "function"
    },
    {
      "inputs": [
        {
          "internalType": "uint256",
          "name": "index_id",
          "type": "uint256"
        },
        {
          "internalType": "address",
          "name": "token",
          "type": "address"
        },
        {
          "internalType": "address",
          "name": "user_id",
          "type": "address"
        }
      ],
      "name": "get_token_balance",
      "outputs": [
        {
          "internalType": "uint256",
          "name": "",
          "type": "uint256"
        }
      ],
      "stateMutability": "view",
      "type": "function"
    },
    {
      "inputs": [
        {
          "internalType": "uint256",
          "name": "_index_id",
          "type": "uint256"
        },
        {
          "internalType": "uint256",
          "name": "cash_out_pct",
          "type": "uint256"
        }
      ],
      "name": "pay_creator_fee",
      "outputs": [],
      "stateMutability": "nonpayable",
      "type": "function"
    },
    {
      "inputs": [
        {
          "internalType": "uint256",
          "name": "_index_id",
          "type": "uint256"
        },
        {
          "internalType": "uint256",
          "name": "cash_out_pct",
          "type": "uint256"
        }
      ],
      "name": "pay_protocol_fee",
      "outputs": [],
      "stateMutability": "nonpayable",
      "type": "function"
    },
    {
      "inputs": [
        {
          "internalType": "uint256",
          "name": "index_id",
          "type": "uint256"
        }
      ],
      "name": "sell",
      "outputs": [],
      "stateMutability": "nonpayable",
      "type": "function"
    },
    {
      "inputs": [
        {
          "internalType": "address",
          "name": "token",
          "type": "address"
        }
      ],
      "name": "sell_token",
      "outputs": [],
      "stateMutability": "nonpayable",
      "type": "function"
    },
    {
      "inputs": [
        {
          "internalType": "uint256",
          "name": "_index_id",
          "type": "uint256"
        },
        {
          "internalType": "uint256",
          "name": "_sell_pct",
          "type": "uint256"
        }
      ],
      "name": "withdraw",
      "outputs": [],
      "stateMutability": "nonpayable",
      "type": "function"
    },
    {
      "stateMutability": "payable",
      "type": "receive"
    }
  ],
  "bytecode": "0x60806040523480156200001157600080fd5b5060405162009df938038062009df98339818101604052810190620000379190620001de565b6200006b7f6d35dd6e5973bfee0aacf53fd96db2ac5c6bb0bf812ae3d929d6f27db1a465f260001b620001c460201b60201c565b6200009f7f40aaa8ffcadfe88ff2a0b9ee73fc4770f798ce411ca7a140c365a427a2ea232660001b620001c460201b60201c565b620000d37f4feb591ed92fbb6334daf4c7569a6852d413673b2108624efd3eb1c139a6d75b60001b620001c460201b60201c565b80600560006101000a81548173ffffffffffffffffffffffffffffffffffffffff021916908373ffffffffffffffffffffffffffffffffffffffff160217905550620001487fd86f1485bc6986c3919dbde4a05bb1f44293e418f49253141ec3c1aa1221e47a60001b620001c460201b60201c565b6200017c7fd67614bfaf2b4bf2974b6f9431cb3b68d9e9fd4884c8a1afbacadb3dac01df8460001b620001c460201b60201c565b33600660006101000a81548173ffffffffffffffffffffffffffffffffffffffff021916908373ffffffffffffffffffffffffffffffffffffffff1602179055505062000258565b50565b600081519050620001d8816200023e565b92915050565b600060208284031215620001f157600080fd5b60006200020184828501620001c7565b91505092915050565b600062000217826200021e565b9050919050565b600073ffffffffffffffffffffffffffffffffffffffff82169050919050565b62000249816200020a565b81146200025557600080fd5b50565b619b9180620002686000396000f3fe6080604052600436106101185760003560e01c80639a3f7d0a116100a0578063d96a094a11610064578063d96a094a14610436578063e0ae72d01461045f578063e4849b3214610488578063fbfeaf7d146104b1578063fc3f6873146104da57610184565b80639a3f7d0a14610360578063a155e2041461039d578063b114930f146103c6578063b6b55f25146103ef578063bcae428f1461040b57610184565b8063441a3e70116100e7578063441a3e70146102435780634962b2ea1461026c57806369c4f6a6146102a95780639461807c146102e6578063947ab1401461032357610184565b80630ebc4145146101895780631de2aa4e146101b2578063323aedc5146101ef578063411e526b1461021a57610184565b36610184576101497f456bb0ece85d0dd8c53c1e0f1830d1ce01be94c30fb59e950154a18714fd883460001b610503565b7f88a5966d370b9919b20f3e2c13ff65706f196a4e32cc2c12bf57088f88525874333460405161017a929190618fd2565b60405180910390a1005b600080fd5b34801561019557600080fd5b506101b060048036038101906101ab91906189d0565b610506565b005b3480156101be57600080fd5b506101d960048036038101906101d49190618a8e565b6110b4565b6040516101e6919061901d565b60405180910390f35b3480156101fb57600080fd5b506102046111db565b604051610211919061928d565b60405180910390f35b34801561022657600080fd5b50610241600480360381019061023c9190618b06565b61126c565b005b34801561024f57600080fd5b5061026a60048036038101906102659190618b06565b611942565b005b34801561027857600080fd5b50610293600480360381019061028e9190618a8e565b61259b565b6040516102a0919061928d565b60405180910390f35b3480156102b557600080fd5b506102d060048036038101906102cb9190618a8e565b612791565b6040516102dd9190618ffb565b60405180910390f35b3480156102f257600080fd5b5061030d60048036038101906103089190618a8e565b6128ee565b60405161031a919061928d565b60405180910390f35b34801561032f57600080fd5b5061034a60048036038101906103459190618ab7565b612ae4565b604051610357919061928d565b60405180910390f35b34801561036c57600080fd5b5061038760048036038101906103829190618a8e565b612c39565b604051610394919061926b565b60405180910390f35b3480156103a957600080fd5b506103c460048036038101906103bf919061893d565b613021565b005b3480156103d257600080fd5b506103ed60048036038101906103e8919061893d565b613388565b005b61040960048036038101906104049190618a8e565b613708565b005b34801561041757600080fd5b50610420614885565b60405161042d9190618ffb565b60405180910390f35b34801561044257600080fd5b5061045d60048036038101906104589190618a8e565b614b93565b005b34801561046b57600080fd5b5061048660048036038101906104819190618b06565b61518a565b005b34801561049457600080fd5b506104af60048036038101906104aa9190618a8e565b615ac2565b005b3480156104bd57600080fd5b506104d860048036038101906104d39190618a65565b610503565b005b3480156104e657600080fd5b5061050160048036038101906104fc9190618b06565b6160d2565b005b50565b6105327f0a62562fd6da4eb95dd5d83bf93195356da2a1f99a263519dbc08f59a22fc4f360001b610503565b61055e7f3466446edf17e60a120e93a47bdb93ccc876461b1bfec939a5a1fbd87769417f60001b610503565b61058a7f07461dc05b2176ec06da50ab2d025d1ac434596d160e758cecddb05c1d7be8dc60001b610503565b6105b67faf179b0dc0640f7e41792f54d7281c02913339079438eab8233362bbe7cb59f760001b610503565b80518251146105fa576040517f08c379a00000000000000000000000000000000000000000000000000000000081526004016105f19061922b565b60405180910390fd5b6106267fac730d9c1b6a24f547d1db547a48fe13d7fef6a8540c1a6c66b77471e27d934260001b610503565b6106527f9f285e3172fd5f99a9dea1c10d6c86756a20ded8a97ea13ffa8febf8b9d84fbb60001b610503565b61067e7fae84fa91d99ee2cecc3bccf8a6e4e133c3dc497989a496232f6352be9a589f8d60001b610503565b6106aa7fa9c79c8a765779686e8e7221bef79913bfcfbc1c96ea160748712ce986d570ad60001b610503565b610200815111156106f0576040517f08c379a00000000000000000000000000000000000000000000000000000000081526004016106e79061924b565b60405180910390fd5b61071c7f6a4ca21914dd25a8db6f06b4460b98e6d1b7069ae60d0c64b7ea7d9e9c63af8360001b610503565b6107487ff75be93b19d435ade3acef47ca76df694be54dee117d1033f1b97c7879f6ede960001b610503565b6107747f80b6b98a7c5a9d865360d319915e8a7c3ddfa430238dc913ac87cfaf24db775960001b610503565b6107a07fbc3287343ad1a523ae4807101fcbfbcb0d463c2e8fbb4c7979b068b460e2a35860001b610503565b6107a98161675f565b6107e8576040517f08c379a00000000000000000000000000000000000000000000000000000000081526004016107df9061912b565b60405180910390fd5b6108147ffa3f848225042a89fe360f540901f134be681e6ba393e3d8f2ebb9d6fd3b456460001b610503565b6108407f5caec53b2bb4660090090e5c1ad63ab105a122435865548c28fb4ad11c70cbcf60001b610503565b61086c7fc20f81d896835c87fc2054a3edf0b9b8f5b56ddc0edf9d5740db91051c4f2cc760001b610503565b6000600267ffffffffffffffff8111156108af577f4e487b7100000000000000000000000000000000000000000000000000000000600052604160045260246000fd5b6040519080825280602002602001820160405280156108dd5781602001602082028036833780820191505090505b50905061090c7faf21b9b99a8affb05f0ad217a42f7e9773c2337bb44e4a1941fdb59f19a797b160001b610503565b6109387f11c9a835723f9b03523df272d8a6ea4b4bf887b3d2e5c8608757eaa201ca28cd60001b610503565b600560009054906101000a900473ffffffffffffffffffffffffffffffffffffffff1673ffffffffffffffffffffffffffffffffffffffff1663ad5c46486040518163ffffffff1660e01b815260040160206040518083038186803b1580156109a057600080fd5b505afa1580156109b4573d6000803e3d6000fd5b505050506040513d601f19601f820116820180604052508101906109d89190618966565b81600181518110610a12577f4e487b7100000000000000000000000000000000000000000000000000000000600052603260045260246000fd5b602002602001019073ffffffffffffffffffffffffffffffffffffffff16908173ffffffffffffffffffffffffffffffffffffffff1681525050610a787f03bb5c6b698787f61d2cb0e7902a5cbe34b230d71b1c0f51dc275f3bbd09bed260001b610503565b610aa47ffb8bb1d93ad117bbb18314bcb9f09b50f550b7f18f8928f0fb2fab9c667fcf9660001b610503565b6000610ad27f5d634250f842e1a49b769f6a617adfa3b6a8c615fd1ef3f155c00284aabe427060001b610503565b610afe7f073ee9b9904d61f31e557a2b5df1d401bc44f9b486dc3f40b9523bc3580acf4260001b610503565b60005b84518160ff161015610eb557610b397f9febb3d33ad3f1a777b7f520c764929bf781de36c9246fd7959e0b465df6ce6160001b610503565b610b657fc02f58258364c902d169bd9dc8fbad0645386a347df3bbc98423beba1db4d50f60001b610503565b838160ff1681518110610ba1577f4e487b7100000000000000000000000000000000000000000000000000000000600052603260045260246000fd5b602002602001015183600081518110610be3577f4e487b7100000000000000000000000000000000000000000000000000000000600052603260045260246000fd5b602002602001019073ffffffffffffffffffffffffffffffffffffffff16908173ffffffffffffffffffffffffffffffffffffffff1681525050610c497f9b23fe5933c57310c92e133f3121247bca27cfd5198957507aa823f4ca365a4660001b610503565b610c757fdfdc2453c6d97305c509f25e1e40374fab48c708d5816c717a4705114341445760001b610503565b600560009054906101000a900473ffffffffffffffffffffffffffffffffffffffff1673ffffffffffffffffffffffffffffffffffffffff1663d06ca61f868360ff1681518110610cef577f4e487b7100000000000000000000000000000000000000000000000000000000600052603260045260246000fd5b6020026020010151856040518363ffffffff1660e01b8152600401610d159291906192a8565b60006040518083038186803b158015610d2d57600080fd5b505afa158015610d41573d6000803e3d6000fd5b505050506040513d6000823e3d601f19601f82011682018060405250810190610d6a919061898f565b600181518110610da3577f4e487b7100000000000000000000000000000000000000000000000000000000600052603260045260246000fd5b60200260200101519150610dd97f4459aa7790bc03ccb9d6fbafae2529edc52de6f9507709d80c253019cbcec13860001b610503565b610e057f76a049670f73a2f50b60ae14b54113c1f907e769d2c64d1de10036add537149760001b610503565b610e317fabf8fc76ebc4b4a3eecf55d6b7d863d51ddeacfdc2c672c80918e8732b5c62fc60001b610503565b620186a08211610e76576040517f08c379a0000000000000000000000000000000000000000000000000000000008152600401610e6d9061918b565b60405180910390fd5b610ea27f3dac804c23d41898e64311df66709feafe8cb4249cb874f5bb1c3d696cb170fd60001b610503565b8080610ead90619654565b915050610b01565b50610ee27fd9d9247195479a4d9826b8713589d43ed48a333abd646a5d3b342b3bea729dd860001b610503565b610f0e7fb419dc60ea057d940983e1fc81f2651c9e7637849ec566dc709439be0fdfde2060001b610503565b6000806001816001815401808255809150500390600052602060002090600902019050610f5d7f1175aad05a7ea213f8d582adbe97da522bf66484720051bd16cefe7bcf4b2c5160001b610503565b610f887e99bdd3089f74898d4e945517af0ddb01d6aa6e380750b3cb7ea07c79e90c1b60001b610503565b84816001019080519060200190610fa092919061854b565b50610fcd7fe6b41118eda692a44b3c519b227e3600bd70b44039f2063cce9d5ae99284fed760001b610503565b610ff97f41d91564b9727e75b0ed97de10d2d3a33ee78bde5d1e63bd2d6ee28062ca163360001b610503565b338160000160006101000a81548173ffffffffffffffffffffffffffffffffffffffff021916908373ffffffffffffffffffffffffffffffffffffffff1602179055506110687f2878e2efa2eabd198c4035a1c511d96611ef3cba2ba4c004eb772a4f9d65bdfe60001b610503565b6110947f2cf98f94185d361060ef62c9e25d09420664412234aa1365f3ee855331f23b9e60001b610503565b838160020190805190602001906110ac929190618598565b505050505050565b60606110e27fc251f2a5963c60bca753ba9a0e53bb785124f423aa9e1950c62348d28797264c60001b610503565b61110e7fe76cbb8e0deb67ee745574159c404bd7af7f85f896164dbb5e11e4da7720de9e60001b610503565b61113a7f63bfd672de861aa47b368f0a658fdd7ee4962392f0ea0a3e7d1a2a138d32b82460001b610503565b60008281548110611174577f4e487b7100000000000000000000000000000000000000000000000000000000600052603260045260246000fd5b90600052602060002090600902016001018054806020026020016040519081016040528092919081815260200182805480156111cf57602002820191906000526020600020905b8154815260200190600101908083116111bb575b50505050509050919050565b60006112097f563ddbd41b23ef4b2c734e3118061bd35cea05188a47bb1e296a1d7880ac27de60001b610503565b6112357f93de2b65eba5b232beea65929a92345d6ca66de535f41c355ac3cc39a0c30c3760001b610503565b6112617f5d8ffc0dbdd223e708932e2b1f30ac192b69233fd479ec51d1f6685eccbb809d60001b610503565b600080549050905090565b6112987fbe334b71ab8fe376e1882e098c6b16ac19d831fbb7c43e00b9fa7dce7f282d4060001b610503565b6112c47fb3850cfc39b38569261c88df79dc84b6aa0df129666dac0773c223fa50e1eb8760001b610503565b6112f07f4d2687e73788e151976741616c507bd87be58cdedef361de4b95d56e6b65aad660001b610503565b61131c7fbe4d24d8162a357d80c6aa80de37f1b429ab5f7230b0b0af99d57a9f0c30a23f60001b610503565b60008281548110611356577f4e487b7100000000000000000000000000000000000000000000000000000000600052603260045260246000fd5b906000526020600020906009020160000160009054906101000a900473ffffffffffffffffffffffffffffffffffffffff1673ffffffffffffffffffffffffffffffffffffffff163373ffffffffffffffffffffffffffffffffffffffff16146113f5576040517f08c379a00000000000000000000000000000000000000000000000000000000081526004016113ec9061910b565b60405180910390fd5b6114217f8115f69078cb8861e8b61ea694e3dbd3fa642cd31d1dee3bca1acfdf6baddd0460001b610503565b61144d7f9c898b6df7029fdffc400b527f7e29b49c59a7b982e96ebb6fa48ac7e77c5b0260001b610503565b6114797ff959ea5dfb2cf4a70dfddfdf6ce7ec3729042edf7be7594fb87ecd2f074480f660001b610503565b6114a57f0ae5c5fb91dcc522cca46bc601e9b478085e103072ac2a920e0458be97a5dd7260001b610503565b600081116114e8576040517f08c379a00000000000000000000000000000000000000000000000000000000081526004016114df906190ab565b60405180910390fd5b6115147f791e37b144de2178afdd19e2263746a33fdf4126b15787b7acf29ed6f3b69d7960001b610503565b6115407f574d4592a22f53b3ca6e83252b70e5b20876276ea59c22170f77a7ae3bf67b0360001b610503565b61156c7faa33f77a485144cf8e20eaf51fc9aa6797c0e635365ca0de9e577cf470ff225d60001b610503565b60006002600084815481106115aa577f4e487b7100000000000000000000000000000000000000000000000000000000600052603260045260246000fd5b9060005260206000209060090201600301546115c691906194aa565b90506115f47fdf31b07007c82271a7236354fcb27e085d813a67345ba81951a55c1551632a7260001b610503565b6116207f5e25d7e41fcb690e6f8d80f34b7ad20a65b6a362c2484d8d5de147ef0733ec6c60001b610503565b600080848154811061165b577f4e487b7100000000000000000000000000000000000000000000000000000000600052603260045260246000fd5b906000526020600020906009020160040154826116789190619535565b90506116a67fce5cbf7f1e5d2644d39bdd6037c7fd5612e71d548e11ba7a4331e80ca1721efe60001b610503565b6116d27f648e4805ce3844c9915e7c71007c9bf24a7e24c527cfa189e5dec3584745953260001b610503565b60006103e884836116e391906194db565b6116ed91906194aa565b905061171b7f212279f1c92c6e63deef39d0329d426437e9620dfade0f85b83b59fdb916d2b460001b610503565b6117477fd5923788aa5e065fe2d5370921b68c8ed97619c1d61db96f5f746b0e5b37fa9360001b610503565b6117737f9c766421655e96e78f1c58f7bce51f95707b459edc658864e2afbeca0ed5d4c160001b610503565b808210156117b6576040517f08c379a00000000000000000000000000000000000000000000000000000000081526004016117ad906190cb565b60405180910390fd5b6117e27fbb588ef96c957e0f3806b333bbd6bd03113fda854de412c8c82f1445e18887f560001b610503565b61180e7fa5508d2e4f43b43bab6598075daad9d9bd7abd883259f1891bbd49eda09b3b5360001b610503565b61183a7f2d3c9b90ce9b49717a6a54d805b302e3f8b10b59975cd6af6eee67101f47fba960001b610503565b8060008681548110611875577f4e487b7100000000000000000000000000000000000000000000000000000000600052603260045260246000fd5b906000526020600020906009020160040160008282546118959190619454565b925050819055506118c87fff3a142e0895abf760afa04f0a2708e1ce74257b1464d94aa3a22881923ded6260001b610503565b6118f47f9777427caf9fde894148f9ff88329450ca0825501e788c5b5ae88a1a3530dc8e60001b610503565b3373ffffffffffffffffffffffffffffffffffffffff166108fc829081150290604051600060405180830381858888f1935050505015801561193a573d6000803e3d6000fd5b505050505050565b61196e7f951e1c8b78433817073a4ede227b53ad6b7d4e759d12ca2eded66524fe9ae13a60001b610503565b61199a7f9eb0c3e85f039cc8327c3b648ebb3b2fbe84bcec531f4cf2886ac96102eb3d9c60001b610503565b6119c67f050c029dadb776c9ba2b14c60e855aafc69c0f6989fe88a03b6c3026d4991f9860001b610503565b6119f27fb074601b49d7abd2746d033dc677ae33e939c5fd5035b44b390038e364cb60ab60001b610503565b60008111611a35576040517f08c379a0000000000000000000000000000000000000000000000000000000008152600401611a2c906191cb565b60405180910390fd5b611a617f74bdfcc2bd422e7a1c8729f7477b4ca2d6c6c876355f445a45bd50a682a6a22c60001b610503565b611a8d7f59dd3e9bea808cd5cfab9d487cf42dd0bc46be1a2fcc7bff4260f1c452a4242a60001b610503565b611ab97f4d5cabd5b1827084d549283ddb7cd77b2a4e799ed23f9b16c6125887ff69ae7160001b610503565b611ae57ff1b04fe252e877ab21d8ab40896022730e85e1fbfdc45aad397ddc94c93d385d60001b610503565b6000808381548110611b20577f4e487b7100000000000000000000000000000000000000000000000000000000600052603260045260246000fd5b90600052602060002090600902016006016000808581548110611b6c577f4e487b7100000000000000000000000000000000000000000000000000000000600052603260045260246000fd5b9060005260206000209060090201600201600081548110611bb6577f4e487b7100000000000000000000000000000000000000000000000000000000600052603260045260246000fd5b9060005260206000200160009054906101000a900473ffffffffffffffffffffffffffffffffffffffff1673ffffffffffffffffffffffffffffffffffffffff1673ffffffffffffffffffffffffffffffffffffffff16815260200190815260200160002060003373ffffffffffffffffffffffffffffffffffffffff1673ffffffffffffffffffffffffffffffffffffffff1681526020019081526020016000205411611c99576040517f08c379a0000000000000000000000000000000000000000000000000000000008152600401611c90906190eb565b60405180910390fd5b611cc57f50285a08632d4e2497354f7d0018d9fd78d99fe23d7cf8a280a7616a4ddfb3a460001b610503565b611cf17f9f3647c5624e393c5017133de3a401dba8c174ba11d3f5495f6d42b28d4bec7a60001b610503565b611d1d7f94cb2a51d8f01df8ac3f2b7543a77f1b87ad05e5f1fc3c69622fbae2b7ba72de60001b610503565b611d497f2dafe4b32414b34bdb2e83a974c10c973aeccd105ef9ba0cbaa566619684294f60001b610503565b6103e8811115611d8e576040517f08c379a0000000000000000000000000000000000000000000000000000000008152600401611d859061908b565b60405180910390fd5b611dba7f30641803dacec68bd02652728f8710930797f43cd2a91d76a6305f9acbca449460001b610503565b611de67fa596e7b597ee4eca4ae1c8dfe6bc07bae22ef99b11cdf09b571392f7ccdd64ea60001b610503565b611e127f3be3ecf6b19f0830fca8223e2c451e3c321861dbe07178c1052bba5d2ec840d060001b610503565b60008281548110611e4c577f4e487b7100000000000000000000000000000000000000000000000000000000600052603260045260246000fd5b90600052602060002090600902016002018054905060008381548110611e9b577f4e487b7100000000000000000000000000000000000000000000000000000000600052603260045260246000fd5b906000526020600020906009020160080160003373ffffffffffffffffffffffffffffffffffffffff1673ffffffffffffffffffffffffffffffffffffffff1681526020019081526020016000206000828254611ef89190619454565b92505081905550611f2b7fac5f8896c63e894bfb3c075bf43a7825e9703b184cbde78a74671624a4c2cc1a60001b610503565b611f577f63ba0fdc59180560844d50cade9c6b30269227ac4eff34a5b233d1e450a185fa60001b610503565b60005b60008381548110611f94577f4e487b7100000000000000000000000000000000000000000000000000000000600052603260045260246000fd5b90600052602060002090600902016002018054905081101561259657611fdc7f7362951ad2546d85bfe18d68c91145b53d26c18bb29d81f31bdfa35a90e032b960001b610503565b6120087f3118d73e176785888034fc4eddd97b8924264ae79554b7ec77e50db6aa35936d60001b610503565b6000808481548110612043577f4e487b7100000000000000000000000000000000000000000000000000000000600052603260045260246000fd5b9060005260206000209060090201600201828154811061208c577f4e487b7100000000000000000000000000000000000000000000000000000000600052603260045260246000fd5b9060005260206000200160009054906101000a900473ffffffffffffffffffffffffffffffffffffffff1690506120e57f36a36d8989bb7682983ed47a9e36eeed5a3f47b793608a492d4389a209e5e74560001b610503565b6121117fb105d4b236d5e2c9778b847afbf6757a63d4787f9df74188435e89909b37d43b60001b610503565b60006103e88460008781548110612151577f4e487b7100000000000000000000000000000000000000000000000000000000600052603260045260246000fd5b906000526020600020906009020160060160008573ffffffffffffffffffffffffffffffffffffffff1673ffffffffffffffffffffffffffffffffffffffff16815260200190815260200160002060003373ffffffffffffffffffffffffffffffffffffffff1673ffffffffffffffffffffffffffffffffffffffff168152602001908152602001600020546121e791906194db565b6121f191906194aa565b905061221f7f55ee49d18837a2c4c2f68aa8a5052145db8b72f9b05f6d74027c9ad838d94e4e60001b610503565b61224b7f6b269dd0a9bf0703cacf747bf650574a2e55dd2a73051509d6c478edcaf4ba0260001b610503565b80600460008473ffffffffffffffffffffffffffffffffffffffff1673ffffffffffffffffffffffffffffffffffffffff168152602001908152602001600020600082825461229a9190619454565b925050819055506122cd7f0359d65633404abdb77431ddf7f35cae613df9c7789f53e881925056a42581ed60001b610503565b6122f97fc207a8ba33e8016cc5d40e68cea8e0b55994fc0882671d77b08b3de1f03f573860001b610503565b8060008681548110612334577f4e487b7100000000000000000000000000000000000000000000000000000000600052603260045260246000fd5b906000526020600020906009020160060160008473ffffffffffffffffffffffffffffffffffffffff1673ffffffffffffffffffffffffffffffffffffffff16815260200190815260200160002060003373ffffffffffffffffffffffffffffffffffffffff1673ffffffffffffffffffffffffffffffffffffffff16815260200190815260200160002060008282546123ce9190619535565b925050819055506124017fc9b3ab9a1c8a81f35f0882281915e737e99430e9398353558375b5924dbde6a160001b610503565b61242d7f2fbbbfc58754f08d2a2d5ab4fa9797daa184bf4421f449356caf2ec0e94b63c260001b610503565b600060405180606001604052808781526020013373ffffffffffffffffffffffffffffffffffffffff16815260200183815250905061248e7f787e6bca4100eec5479224b2500a514ba60a9e6b41b7667e2da3847e3ceadd0c60001b610503565b6124ba7f5b6d6753921b2d2eb20e6f3eae6bdd18d64fa47933ba306c8d9599b66a2c84de60001b610503565b600360008473ffffffffffffffffffffffffffffffffffffffff1673ffffffffffffffffffffffffffffffffffffffff1681526020019081526020016000208190806001815401808255809150506001900390600052602060002090600302016000909190919091506000820151816000015560208201518160010160006101000a81548173ffffffffffffffffffffffffffffffffffffffff021916908373ffffffffffffffffffffffffffffffffffffffff160217905550604082015181600201555050505050808061258e9061960b565b915050611f5a565b505050565b60006125c97f58a3953d69336c5b95d4b2ae6e8ba1545bf346964ab8ffe872780d0272e6443c60001b610503565b6125f57ff7ffee95cecf1e874cdfd4143985ccd65ed5e96b5bd502410e60058c4e1761f360001b610503565b6126217f39e4f53ede6e63cd916e4642cf99cb2c1f01f5a49679f22d10c80a25d6f4b6de60001b610503565b600060026000848154811061265f577f4e487b7100000000000000000000000000000000000000000000000000000000600052603260045260246000fd5b90600052602060002090600902016003015461267b91906194aa565b90506126a97ff6dcee5b1ce8cdb8633a15ccf738a9cb5dc82dbdce0fb7239949f0665ed42c6c60001b610503565b6126d57fbb612b14c052be41e111a15fa4748a95a3072f591b1d2ec3181b2eda4ad16c2b60001b610503565b6000808481548110612710577f4e487b7100000000000000000000000000000000000000000000000000000000600052603260045260246000fd5b9060005260206000209060090201600501548261272d9190619535565b905061275b7fa2d5b72661c27f4909d7b4cf58de094bd4e75f1fd4234fe5e88af8f43d19040960001b610503565b6127877f440e212ea66b0369c8f94c18296530f09b54e09795c38322c00caa6f1ebd4e4760001b610503565b8092505050919050565b60606127bf7ffad253de1b43e9df86bd6a87ce0380c91423ceabaeaad994f7cb7ce01ac1ca8960001b610503565b6127eb7f8b8eb42e1d664ec8a12ec4a4586d5b530e0ace6a464b307fe28a23c82424e63e60001b610503565b6128177ff84c6542a78008decd802315d57434407aef17477b2c510e96d9c86361a152d160001b610503565b60008281548110612851577f4e487b7100000000000000000000000000000000000000000000000000000000600052603260045260246000fd5b90600052602060002090600902016002018054806020026020016040519081016040528092919081815260200182805480156128e257602002820191906000526020600020905b8160009054906101000a900473ffffffffffffffffffffffffffffffffffffffff1673ffffffffffffffffffffffffffffffffffffffff1681526020019060010190808311612898575b50505050509050919050565b600061291c7f06eff032649206936b4361cb80ab2aabb10b90bfcc261e5eb3bcbfcb35047fc860001b610503565b6129487f561cfff8158c2b26f51aabecb53953bef5d82122c9d9bc2b70ac831e2924dc4960001b610503565b6129747fd46fe612912b9b21065ec79c50063d3beb23fc628dba348be77337ae9f805b0560001b610503565b60006002600084815481106129b2577f4e487b7100000000000000000000000000000000000000000000000000000000600052603260045260246000fd5b9060005260206000209060090201600301546129ce91906194aa565b90506129fc7fdbcb885b1b08bf3aafca8e2322f38ac80c3c2ac5bd99b8449ec241813f0681a860001b610503565b612a287f894f1896f4365bd8e32fbaa3677cfb8f88f53442b5ec437aaa6a2cc4b59b13f660001b610503565b6000808481548110612a63577f4e487b7100000000000000000000000000000000000000000000000000000000600052603260045260246000fd5b90600052602060002090600902016004015482612a809190619535565b9050612aae7fbd43925df3fe9a88a6acd13c2e838fa66827ceef785491e8e1216a425ef39ec760001b610503565b612ada7f0b90149d38f8f597802d57caa746eb040dd76f5509a5b4d9ea7768e77c40456260001b610503565b8092505050919050565b6000612b127fb4558eb12b3375928fb1df91530feb7fa6136f2e8681ed4a9235cc88c8237f6360001b610503565b612b3e7f7af304c58ffe826f41cfda97c72ea06b6b9538bc76372016a87d4b3ca297889c60001b610503565b612b6a7fdae3fab580a6591c0db185e2ecfefdffe64c25d423d386347c4de481f52c0d7460001b610503565b60008481548110612ba4577f4e487b7100000000000000000000000000000000000000000000000000000000600052603260045260246000fd5b906000526020600020906009020160060160008473ffffffffffffffffffffffffffffffffffffffff1673ffffffffffffffffffffffffffffffffffffffff16815260200190815260200160002060008373ffffffffffffffffffffffffffffffffffffffff1673ffffffffffffffffffffffffffffffffffffffff1681526020019081526020016000205490509392505050565b612c41618622565b612c6d7f1d11238e084c04cdbd65d40139715112a4cee62ef83bf4361197dda6ac40502060001b610503565b612c997f2284d401f31cd5c2fe8a52548afa16452391bb74cd6b26fb96823fd5687573b860001b610503565b612cc57fbe736b82274899fda3e83ca49310268ed0031d303aa5654b6bcfb3b8150cbc7260001b610503565b60006040518060c0016040528060008581548110612d0c577f4e487b7100000000000000000000000000000000000000000000000000000000600052603260045260246000fd5b906000526020600020906009020160000160009054906101000a900473ffffffffffffffffffffffffffffffffffffffff1673ffffffffffffffffffffffffffffffffffffffff16815260200160008581548110612d93577f4e487b7100000000000000000000000000000000000000000000000000000000600052603260045260246000fd5b9060005260206000209060090201600101805480602002602001604051908101604052809291908181526020018280548015612dee57602002820191906000526020600020905b815481526020019060010190808311612dda575b5050505050815260200160008581548110612e32577f4e487b7100000000000000000000000000000000000000000000000000000000600052603260045260246000fd5b9060005260206000209060090201600201805480602002602001604051908101604052809291908181526020018280548015612ec357602002820191906000526020600020905b8160009054906101000a900473ffffffffffffffffffffffffffffffffffffffff1673ffffffffffffffffffffffffffffffffffffffff1681526020019060010190808311612e79575b5050505050815260200160008581548110612f07577f4e487b7100000000000000000000000000000000000000000000000000000000600052603260045260246000fd5b906000526020600020906009020160030154815260200160008581548110612f58577f4e487b7100000000000000000000000000000000000000000000000000000000600052603260045260246000fd5b906000526020600020906009020160040154815260200160008581548110612fa9577f4e487b7100000000000000000000000000000000000000000000000000000000600052603260045260246000fd5b9060005260206000209060090201600501548152509050612fec7f2b0af197ece668038dd58942a4ec03583c4c9335377dcfb6831195aef988881b60001b610503565b6130187f57e89001bcabd27cc08333fdc332153a4936c2ba3274df936cae45d8e46e32f460001b610503565b80915050919050565b61304d7fa3fd59d852bad0caaf163c043334c5db7569ee4ae0d2bec8c7a3066011f9687260001b610503565b6130797fad911a4dd1db5e43ef493a91adb96650e38ab8787aaf6e1d2613302ebc53629560001b610503565b6130a57f49f86f285cf08dd2af115e4a9e5f4c97e01da8b0d1d419692fcf7b09210fbd4e60001b610503565b60006130d37fa1abe1c271dc94bd21b8883cef4b42c5fad6949179c0841d6e1691429ca88a8760001b610503565b6130ff7fefc5c497a17dd8d5ca092b38f5dba53a9aa6da8c89e4f1ed78a7d6a18ea807b160001b610503565b6107cb600260008473ffffffffffffffffffffffffffffffffffffffff1673ffffffffffffffffffffffffffffffffffffffff1681526020019081526020016000205461314c91906194aa565b905061317a7f6ac9a5328cd16bf5dc1d4a75b4533c5bdde6952a701fbbce5e88d87b89b8dbb360001b610503565b6131a67fac6efac4c7cb207c26d0def6c4b3f3d7642eb821ebe1e55d21d89a676da38cce60001b610503565b60006131f183600260008673ffffffffffffffffffffffffffffffffffffffff1673ffffffffffffffffffffffffffffffffffffffff16815260200190815260200160002054616aa9565b905061321f7f6618c243281d62d25308701822f3f97a1440f2167964281763f09e5ca6b3075f60001b610503565b61324b7fa954acebbb872db7a42287ca5c8fa1bca59781ab43046ddc05b8a8ceb6810d1360001b610503565b6132e483826001845161325e9190619535565b81518110613295577f4e487b7100000000000000000000000000000000000000000000000000000000600052603260045260246000fd5b6020026020010151836000815181106132d7577f4e487b7100000000000000000000000000000000000000000000000000000000600052603260045260246000fd5b6020026020010151616f05565b6133107f6190fdf2b75634842558f66a4a12016d166cb51074678feb32baebbf4ef278ec60001b610503565b61333c7f602f1585e9e77b336bd2c193830ed219d7bbd98de1417549d773e65986b70a7960001b610503565b3373ffffffffffffffffffffffffffffffffffffffff166108fc839081150290604051600060405180830381858888f19350505050158015613382573d6000803e3d6000fd5b50505050565b6133b47faf5926484107c5b0d05345ca55e96acc150ce7b681a1cbe978a3b27b2330847160001b610503565b6133e07fed23de11edd3081a4db1a6d7eb9d734c233bd7e6735ee2e61c73792ed430241660001b610503565b61340c7f0a573d7ae3fb06804bd27570c3160286f9076c64d986dcb32a6fce8de448be3f60001b610503565b600061343a7f7615c78d41819a7ca2910861b838fcd6db4650a399186e14c0d4f903901bb93660001b610503565b6134667f3d971a3835474c45a0b8df99e005e88fa8a59f16dcd288224fbb175665f0515160001b610503565b60006134b183600460008673ffffffffffffffffffffffffffffffffffffffff1673ffffffffffffffffffffffffffffffffffffffff16815260200190815260200160002054617499565b90506134df7f2b978273894e828530496e3081834e30f63fcc29c6d14ceeda499a3062a9d06b60001b610503565b61350b7fa63935fb65a59e969aadb11cfee9c061e5f3473a3d8a2e98033a22370d11530160001b610503565b6107d0816001835161351d9190619535565b81518110613554577f4e487b7100000000000000000000000000000000000000000000000000000000600052603260045260246000fd5b602002602001015161356691906194aa565b91506135947fd80c7cec9bd47647a6c08fe300c636111aa543d98ac18c47f2f73c0303e83cc660001b610503565b6135c07f38d350e1597b9db904173baefd4c272b968510c60b500709d5e4f0f055219c1f60001b610503565b61366483826000815181106135fe577f4e487b7100000000000000000000000000000000000000000000000000000000600052603260045260246000fd5b60200260200101518484600186516136169190619535565b8151811061364d577f4e487b7100000000000000000000000000000000000000000000000000000000600052603260045260246000fd5b602002602001015161365f9190619535565b617a94565b6136907f68d1f41cd9f94e2dca8fc895061f0937bc87e4a045e57a910b88bf49dc81bc7b60001b610503565b6136bc7ff86bf5107366d0b3c2776bf6ae4511e776046948542a99cff4ddd75952c8800e60001b610503565b3373ffffffffffffffffffffffffffffffffffffffff166108fc839081150290604051600060405180830381858888f19350505050158015613702573d6000803e3d6000fd5b50505050565b6137347f35b3aeb075f11161958a126fff296e12c90131731dd2d306d556c4573263879060001b610503565b6137607ffcf63f4edc37e01791e14a7ca9b7d5537f6029598cd0939015e96029e9967d0d60001b610503565b61378c7fb58b27ddcc24b0fdb4c2b857ea5c754159efd46a7c0e3ee32b857a0ab2a546e160001b610503565b60008082815481106137c7577f4e487b7100000000000000000000000000000000000000000000000000000000600052603260045260246000fd5b906000526020600020906009020160020180548060200260200160405190810160405280929190818152602001828054801561385857602002820191906000526020600020905b8160009054906101000a900473ffffffffffffffffffffffffffffffffffffffff1673ffffffffffffffffffffffffffffffffffffffff168152602001906001019080831161380e575b5050505050905061388b7f1958936ea3415ae4164cef3471cbc1653077d22382eb550370538fec81aec09560001b610503565b6138b77f94cddb8c3c4a8276cf0c7e2b389676c46b83d987bfc464ae373fba136ca49ac760001b610503565b60008083815481106138f2577f4e487b7100000000000000000000000000000000000000000000000000000000600052603260045260246000fd5b906000526020600020906009020160010180548060200260200160405190810160405280929190818152602001828054801561394d57602002820191906000526020600020905b815481526020019060010190808311613939575b505050505090506139807f9a3be09c3d4695294c86d942a49853b12170a0de533d2ceae24d8160f357859460001b610503565b6139ac7f8e13f5c1135ee164b06b53511a3220ef765a87cfb22cbd00b9b4a4a2dccecefe60001b610503565b6000825167ffffffffffffffff8111156139ef577f4e487b7100000000000000000000000000000000000000000000000000000000600052604160045260246000fd5b604051908082528060200260200182016040528015613a1d5781602001602082028036833780820191505090505b509050613a4c7f1d21cdc05db4c8f817fa4a104e496a5f5c173060750a043f936a3f7f0d03ae1d60001b610503565b613a787fd7ccf9b8b6cbc64357a1381ce403ad0e4418491a6cb3bef08ab84e04f2b5725660001b610503565b6000613aa67f5c5c48258b188b8ed432c9c8d6e6a13b21bd039a29f3036a4a70db936535ac3b60001b610503565b613ad27fa460b373034fe9623f9eb2803f8ebb481340946db5e03939b2e8c9f7562d6a9e60001b610503565b6000600267ffffffffffffffff811115613b15577f4e487b7100000000000000000000000000000000000000000000000000000000600052604160045260246000fd5b604051908082528060200260200182016040528015613b435781602001602082028036833780820191505090505b509050613b727fe7a6db962aca89c5e391f20f14170d51a33a26ccd9e0eb2a39399d887e7ac40460001b610503565b613b9e7f05eb00a44553e260a6c16a00590c29e4a2c47490103ef64e71d9e7931f7cdfc060001b610503565b600560009054906101000a900473ffffffffffffffffffffffffffffffffffffffff1673ffffffffffffffffffffffffffffffffffffffff1663ad5c46486040518163ffffffff1660e01b815260040160206040518083038186803b158015613c0657600080fd5b505afa158015613c1a573d6000803e3d6000fd5b505050506040513d601f19601f82011682018060405250810190613c3e9190618966565b81600181518110613c78577f4e487b7100000000000000000000000000000000000000000000000000000000600052603260045260246000fd5b602002602001019073ffffffffffffffffffffffffffffffffffffffff16908173ffffffffffffffffffffffffffffffffffffffff1681525050613cde7fdbfb462bd910b4b5e28d0e26259e045eb7a8678c6a06998fe98c84172c98ef5960001b610503565b613d0a7fceacc91164a1b545e27e4a9313f88d68f953ec39d54faaa4b1e9ca402425fc1660001b610503565b60006101f434613d1a91906194aa565b9050613d487fc81d35b7275a9f6185cde79226de3b55edf139be438aaab60595e0606304587260001b610503565b613d747fc4b76eac3b4296abb123ccba94237f4bf14891e6ac5e36ee23c00b6818bbe7e060001b610503565b8060008881548110613daf577f4e487b7100000000000000000000000000000000000000000000000000000000600052603260045260246000fd5b90600052602060002090600902016003016000828254613dcf9190619454565b92505081905550613e027fa4c1af971c5294b56ff0eac88107b82e5d238a28da7f0339e5a6627efee97ca160001b610503565b613e2e7f808a43ba05097821209b1c70a9188c752f6e896444066cf7ba1a4d120f24cada60001b610503565b60008134613e3c9190619535565b9050613e6a7f05d96fe6d32681accd4af20401ed7ae50e28e7b0a21165860361768433e7b59860001b610503565b613e967f2dd4f319869b39c112c02cb2542264eb7f97963bb83bc28fa7eacc55df14136860001b610503565b6000613ec47fd2fed17a9a3dc573cbe1a9a6673f9313d9a5add535d6557108f81479f13ce56160001b610503565b613ef07faff742e68e17bcc6799290adc5bb1dc1130cbe812e7b4ff8e7de488c5489547060001b610503565b60005b87518160ff1610156142b957613f2b7fad0daf6bf514f349c3467092eb0ae62d4588eb332f2bbbe6e16eb88a104bcf9660001b610503565b613f577f8521e50d11816c13f9022568689cd88a4db80682b27cb903a7de4a0c10bd881d60001b610503565b888160ff1681518110613f93577f4e487b7100000000000000000000000000000000000000000000000000000000600052603260045260246000fd5b602002602001015185600081518110613fd5577f4e487b7100000000000000000000000000000000000000000000000000000000600052603260045260246000fd5b602002602001019073ffffffffffffffffffffffffffffffffffffffff16908173ffffffffffffffffffffffffffffffffffffffff168152505061403b7f25c3f5f6396a31bc535d3ba3a94dd87b3ee3fc2232a67b8958045a42d906230360001b610503565b6140677febe5c90a10bb158f6fbe90750b6ff3dea040ffcb4e38e1f306f18a21ba22d86860001b610503565b600560009054906101000a900473ffffffffffffffffffffffffffffffffffffffff1673ffffffffffffffffffffffffffffffffffffffff1663d06ca61f898360ff16815181106140e1577f4e487b7100000000000000000000000000000000000000000000000000000000600052603260045260246000fd5b6020026020010151876040518363ffffffff1660e01b81526004016141079291906192a8565b60006040518083038186803b15801561411f57600080fd5b505afa158015614133573d6000803e3d6000fd5b505050506040513d6000823e3d601f19601f8201168201806040525081019061415c919061898f565b600181518110614195577f4e487b7100000000000000000000000000000000000000000000000000000000600052603260045260246000fd5b602002602001015195506141cb7f7c1f87d8fadb6fd1571c3052aa83a0c05bef25f0f4c79d57cefcb23c350442f660001b610503565b6141f77f8599bd3c0b1a44996ccaee11fd1bcad845465064f7df827c4114161bc6b4426460001b610503565b85878260ff1681518110614234577f4e487b7100000000000000000000000000000000000000000000000000000000600052603260045260246000fd5b60200260200101818152505061426c7fbacab232f9f68f11bd478bd2d9337224bcc224ef927c7241398baebf4eedc6e360001b610503565b6142987fd0d8cf379f5ab7f98a7ba44f21b3b9a3af0abbb4e39313e16729884b3660afa460001b610503565b85826142a49190619454565b915080806142b190619654565b915050613ef3565b506142e67f3e792a166d8df42e5b7df4dd86e4d6ddfa9b9d6b1a1eac9e00b34824df48fa0e60001b610503565b6143127ff5448a0d9ba8fb03dd3082a3d657a0151a625c8205c47267072643f01a53074460001b610503565b6000818361432091906194aa565b905061434e7fa24434fb82549928d21e334ee5b4674776cf3009e34eb736803e71b330316ec360001b610503565b61437a7fbf02b4ed2d2e380ab05dff630f373b470a4da768c8b4f5b52a7972ef5fe3207060001b610503565b60005b89518160ff161015614878576143b57ff53d87cece10188b1779258ae50bff3e5b630e5f0448199642282796f37b3a5860001b610503565b6143e17fd68c4a2a2872273023059a554e0550ae7ad91a1538f43fe5458c1317da57656760001b610503565b60008a8260ff168151811061441f577f4e487b7100000000000000000000000000000000000000000000000000000000600052603260045260246000fd5b602002602001015190506144557f38e4d9f129e09e72c2629d0670daedc1aeee59ec2bc2e4bd0c1945c13ee5f6f760001b610503565b6144817facb75fb9eee05ded95b84b3c1fc0ce66e9a2a11463eb9a1e010a0975edc68c8f60001b610503565b6000838a8460ff16815181106144c0577f4e487b7100000000000000000000000000000000000000000000000000000000600052603260045260246000fd5b60200260200101516144d291906194db565b90506145007f5116b91a977a017bc739aaca3fd0f3f4336df4aadb7e96c251e7d661ad07e46960001b610503565b61452c7f7c47f790409c8753ac3a0c7b7dd3316fa2d09e3755405fc2b2f1e60a8c3b494460001b610503565b6145587f484c275a3100ced189f377ee790c014edb2104a5566d75d0ee0299acb03f833d60001b610503565b60c8600160008473ffffffffffffffffffffffffffffffffffffffff1673ffffffffffffffffffffffffffffffffffffffff16815260200190815260200160002080549050106145dd576040517f08c379a00000000000000000000000000000000000000000000000000000000081526004016145d4906191ab565b60405180910390fd5b6146097f22d2946f30d0aa9b28da69a6d65853cb3d7e83bb546d15763358c7d872a8a28560001b610503565b6146357f29c51bc18812197836c4b31dfc6932abf28d9a56a49593bc818687608108f0c260001b610503565b6146617f9e7a8dff40b4f4e0d8230683241c3853cc844248e47696f9bab9d82e80c37d1c60001b610503565b80600260008473ffffffffffffffffffffffffffffffffffffffff1673ffffffffffffffffffffffffffffffffffffffff16815260200190815260200160002060008282546146b09190619454565b925050819055506146e37f95f6eba6e622916422644d6aad27ba4da5711f33bbb5addfaa6ed91dfba7f3b560001b610503565b61470f7f201009f62507d0e1836d2a1b32c77bfd1c5ef41fc2fc50d0b6ffa8a331ccebd160001b610503565b600060405180606001604052808f81526020013373ffffffffffffffffffffffffffffffffffffffff1681526020018381525090506147707f8f53f5aa3634a173cfb36c31660194905ca90f23a32bbf8af977e981e848bc2c60001b610503565b61479c7f33677c6115fe4e3b56c5e70b6b5da3474af284c48e36a650493001d215342c9960001b610503565b600160008473ffffffffffffffffffffffffffffffffffffffff1673ffffffffffffffffffffffffffffffffffffffff1681526020019081526020016000208190806001815401808255809150506001900390600052602060002090600302016000909190919091506000820151816000015560208201518160010160006101000a81548173ffffffffffffffffffffffffffffffffffffffff021916908373ffffffffffffffffffffffffffffffffffffffff160217905550604082015181600201555050505050808061487090619654565b91505061437d565b5050505050505050505050565b60606148b37fa731d44ba2aa3dfa411eaa7825d136e9b32ddd9c9d601e55e2f4fc9de29edef760001b610503565b6148df7f949d411d1f64338bccf8f66cae6df6971e425e02356476d22eb39d839b1d1e1860001b610503565b61490b7fe506c637736a775044947c1cfa9e8dd422e62a91d525888ac1a4249f78d30e1760001b610503565b6000808054905067ffffffffffffffff811115614951577f4e487b7100000000000000000000000000000000000000000000000000000000600052604160045260246000fd5b60405190808252806020026020018201604052801561497f5781602001602082028036833780820191505090505b5090506149ae7fcde56c40b80dfa58a7c1396043c306eac2fa6869229214b431f9fb2b1fff127460001b610503565b6149d97e17a584e3caa332c669f896988b9b7f70b702d2844eda0b1572e265912b24d560001b610503565b60005b600080549050811015614b3357614a157f2a5f779a5413ca2fcdc0b20dc7ddec4bc0146aa5df661d1d980f298057b24d4260001b610503565b614a417f270ecad474753fa84039ee50666128bb28a6708a86a000aef8833baa6e0bb51460001b610503565b60008181548110614a7b577f4e487b7100000000000000000000000000000000000000000000000000000000600052603260045260246000fd5b906000526020600020906009020160000160009054906101000a900473ffffffffffffffffffffffffffffffffffffffff16828281518110614ae6577f4e487b7100000000000000000000000000000000000000000000000000000000600052603260045260246000fd5b602002602001019073ffffffffffffffffffffffffffffffffffffffff16908173ffffffffffffffffffffffffffffffffffffffff16815250508080614b2b9061960b565b9150506149dc565b50614b607fc6cd85d6b803f4cc8b57edf8131c2ca56f8f7a9ea08e91560257882bcdeb31ec60001b610503565b614b8c7f1d639a8f4bff0ebaa9740d29f4d213eb0af1b125fa2c2715ff77cfda4da1f11960001b610503565b8091505090565b614bbf7f65398624aa04050104a696a2af916d4cebde02d51539f8eaad5894a6c5aca00860001b610503565b614beb7f763c738d716786a6bf61fd1e250333aca57824c566dd4e287460e46559613f7a60001b610503565b614c177f8e0724f6516106a3f606519652257433859348c74fe9ac7c2c4ba981746aec1660001b610503565b6000614c457f05691b0488ce056bc5279920ab3fda2333b69145d7ac35ef725eeb770406b98560001b610503565b614c717f3a734e15bbb8dc77673a0c7d13cd95432573cfdf52b25abe9afe3be9f52c9d2560001b610503565b6000614c9f7f572cfe052c0263e0e5f2f69ead1e5e37165e773db4e1502e687a86b992280a8160001b610503565b614ccb7f6e026e0e1bcc9f3bfe37a84020ef3f5915d49ce0f92e689515cd7c1a035f09d660001b610503565b60005b60008481548110614d08577f4e487b7100000000000000000000000000000000000000000000000000000000600052603260045260246000fd5b9060005260206000209060090201600201805490508110156150e557614d507ff0a7a73b341ade99b827c164a877ed9160e22c46ae5d8c079ac9a07000a45c3d60001b610503565b614d7c7f8779762e302cadee49f1262899a7e0b056ce94d63603d025e196bff5a3cf3fcc60001b610503565b6000808581548110614db7577f4e487b7100000000000000000000000000000000000000000000000000000000600052603260045260246000fd5b90600052602060002090600902016002018281548110614e00577f4e487b7100000000000000000000000000000000000000000000000000000000600052603260045260246000fd5b9060005260206000200160009054906101000a900473ffffffffffffffffffffffffffffffffffffffff169050614e597f6e12588707cb93610a7d4b618feb6ae573b3c37e10002a68666dc34fd93e795c60001b610503565b614e857f67082e9117be8ede17fda0213a31e36949686e82b0aa64782a3ab9840988d95c60001b610503565b6107cb600260008373ffffffffffffffffffffffffffffffffffffffff1673ffffffffffffffffffffffffffffffffffffffff16815260200190815260200160002054614ed291906194aa565b9350614f007f66dfe7577b881916c93ef6d5cb8f410deb53bf370c6d1356afab5e699f68f5ac60001b610503565b614f2c7ff64bcdbe535c75ded03db396b1250c00bb49d8fe49ba9b1091e3dce03fb8937a60001b610503565b8383614f389190619454565b9250614f667f5e4bbe6265f5adbbf990de3636925203c29ccd07f053652038e72e22823d07ba60001b610503565b614f927f697a9a2799d52e54f756406471eb3c415ebde4d9202dac823814b7de680fd8bc60001b610503565b6000614fdd82600260008573ffffffffffffffffffffffffffffffffffffffff1673ffffffffffffffffffffffffffffffffffffffff16815260200190815260200160002054616aa9565b905061500b7f348cf85f8283290bd4f85e460891cb18b8459d506a640cf00867735fff05423d60001b610503565b6150377fa968a481170361503364fcb15ae7b9518565a17db6a817d0642532acc10dd7f760001b610503565b6150d082826001845161504a9190619535565b81518110615081577f4e487b7100000000000000000000000000000000000000000000000000000000600052603260045260246000fd5b6020026020010151836000815181106150c3577f4e487b7100000000000000000000000000000000000000000000000000000000600052603260045260246000fd5b6020026020010151616f05565b505080806150dd9061960b565b915050614cce565b506151127f5dc42e1a3ae0a5c75894fb1adb4881f04bd87ffdf73f71fe37b08cb5f26b5a8760001b610503565b61513e7fd1a879aa025d865b435f390b2cec9cafe273bf8c0152d8bfbebfed214644175960001b610503565b3373ffffffffffffffffffffffffffffffffffffffff166108fc829081150290604051600060405180830381858888f19350505050158015615184573d6000803e3d6000fd5b50505050565b6151b67fbfa975335aaafd876e56788d93c05981405ae76952f5080561d5de7433a6610c60001b610503565b6151e27fc7e0c94248e0b77f8e0423bf84649418a430fe101f56497469a1dc35d89bf4d360001b610503565b61520e7ff52110b44c9e9e9d231e26e2ebcc7ffa08d8ea219db672fc6bdf4e9c1821db2060001b610503565b600061523c7f42caa2c15c61d4276f5c805413f7a830d553badd621c05e62d88e7e219fe8b4560001b610503565b6152687f90ac44a32ccf1fcf3731326c8fa96cfa087d7953c4835c24a4761686408f48ac60001b610503565b60006152967f22320e7106e8b285e901dab275542785fc911e9d921a60830b2042003bdf4f6260001b610503565b6152c27faa0bb57f6312b90e2d50bb3c436fb238acef3c4a5a45c33bb4b24626c365822a60001b610503565b60005b600085815481106152ff577f4e487b7100000000000000000000000000000000000000000000000000000000600052603260045260246000fd5b906000526020600020906009020160020180549050811015615abb576153477f413f261ee1d17cf84f650d47f7d741c3b0f16572d6133122496a52bf363a738b60001b610503565b6153737f7ef2ed890e6defcc45defbf8ca64b5352017c8a2c32b0aa0768ca461f6e3b75460001b610503565b600085815481106153ad577f4e487b7100000000000000000000000000000000000000000000000000000000600052603260045260246000fd5b906000526020600020906009020160020181815481106153f6577f4e487b7100000000000000000000000000000000000000000000000000000000600052603260045260246000fd5b9060005260206000200160009054906101000a900473ffffffffffffffffffffffffffffffffffffffff16915061544f7fa09766ae5ebce8c96cf9441d6340f8fdff0094e963b7167005d41c6f166a97a460001b610503565b61547b7fbeab266626247adf75789fdd157b3d4ec0c04ceb71fe49ba06de0ff85e54282c60001b610503565b836103e8600087815481106154b9577f4e487b7100000000000000000000000000000000000000000000000000000000600052603260045260246000fd5b906000526020600020906009020160060160008573ffffffffffffffffffffffffffffffffffffffff1673ffffffffffffffffffffffffffffffffffffffff16815260200190815260200160002060003373ffffffffffffffffffffffffffffffffffffffff1673ffffffffffffffffffffffffffffffffffffffff1681526020019081526020016000205461554f91906194aa565b61555991906194db565b92506155877f487e83d3a737dfc3054732a81e9a4fc705ae57cf69b4cd5d5a33e44943c8f49f60001b610503565b6155b37f8ef2110ba7daf159425983f0da81740bcdecc2fc372d47882c89fe9350cf2f5f60001b610503565b6155df7fe48ee33767376d1969793f641ea2ab35b57085188b87caa19e91a984de5768c060001b610503565b826000868154811061561a577f4e487b7100000000000000000000000000000000000000000000000000000000600052603260045260246000fd5b906000526020600020906009020160060160008473ffffffffffffffffffffffffffffffffffffffff1673ffffffffffffffffffffffffffffffffffffffff16815260200190815260200160002060003373ffffffffffffffffffffffffffffffffffffffff1673ffffffffffffffffffffffffffffffffffffffff16815260200190815260200160002054116156e6576040517f08c379a00000000000000000000000000000000000000000000000000000000081526004016156dd9061920b565b60405180910390fd5b6157127ff4a353670e82dba19ec509ea046793df6a179b8b0f9e2f56fedc1c2d27996c0e60001b610503565b61573e7f8ff3d16f5c77e365b2cc7d5fef8e8e9961c8a2a9f5c343ee27465433e33f1fa860001b610503565b61576a7f2309656b23ab4648423964b163e15892399f722926a3fb5d748dbe4b1ae62d4560001b610503565b82600086815481106157a5577f4e487b7100000000000000000000000000000000000000000000000000000000600052603260045260246000fd5b906000526020600020906009020160060160008473ffffffffffffffffffffffffffffffffffffffff1673ffffffffffffffffffffffffffffffffffffffff16815260200190815260200160002060003373ffffffffffffffffffffffffffffffffffffffff1673ffffffffffffffffffffffffffffffffffffffff168152602001908152602001600020600082825461583f9190619535565b925050819055506158727f70a251996a38791fa424c61ebbc5602eac7743d8ca1ac10b62410cba4eb5ad7460001b610503565b61589e7f7fcc2bee742829fcca68f39ceb6d7942c210c443ce103b3d977400406f00d8c460001b610503565b6158ca7f468233c65ab84a5a4e5562c976a45d3a7c34e82c01226b9d774c8842b3790b9060001b610503565b8173ffffffffffffffffffffffffffffffffffffffff1663095ea7b333856040518363ffffffff1660e01b8152600401615905929190618fd2565b602060405180830381600087803b15801561591f57600080fd5b505af1158015615933573d6000803e3d6000fd5b505050506040513d601f19601f820116820180604052508101906159579190618a3c565b615996576040517f08c379a000000000000000000000000000000000000000000000000000000000815260040161598d9061916b565b60405180910390fd5b6159c27fa5d62ab488770527cf2d3bb8c823a21eabf680593dabf4e916642fcdfa21b1b260001b610503565b6159ee7f86855c362103245d4705a5ffcfcbf963d24e85ae80c318a7411542648c56eef860001b610503565b615a1a7fb9daa7a443a26af0c33e90a9a45ab53a5ef8c886f4f83538215a09d2346d754460001b610503565b8173ffffffffffffffffffffffffffffffffffffffff1663a9059cbb33856040518363ffffffff1660e01b8152600401615a55929190618fd2565b602060405180830381600087803b158015615a6f57600080fd5b505af1158015615a83573d6000803e3d6000fd5b505050506040513d601f19601f82011682018060405250810190615aa79190618a3c565b508080615ab39061960b565b9150506152c5565b5050505050565b615aee7f8dee471e7010cbb85f4ef03df71b12f9f062fff84a0228d60e19f45e48a695d060001b610503565b615b1a7fab293af498db3534b66155ce847edb3e84b460d2e04084968d7412fb92d920bb60001b610503565b615b467f9f849ac765bc510561d55f77853e9752d20ee865918619796851e92dedc6b61660001b610503565b6000615b747fc3dbd3cb6a4d595cd56c217b26da9ee5ee7e9334f748f74aa3981b77e2fff34360001b610503565b615ba07fb79a2643a5bbdfd71e862521069a43abf73799fb9584d642820288273b30cc0060001b610503565b6000615bce7ff4fa323b971686e45a74bfdf1f6d30bacda0c56f39e38d278c6749dc2557d64960001b610503565b615bfa7f25ec3e5f17ae2dd3accc6f711b8778a588e1c472bd9bf065ed5ac86848c9263f60001b610503565b60005b60008481548110615c37577f4e487b7100000000000000000000000000000000000000000000000000000000600052603260045260246000fd5b90600052602060002090600902016002018054905081101561602d57615c7f7f2195e43adb4004aad065c7cea3393ca295ae9de458e02143e129ed72642c6b5060001b610503565b615cab7fe0fcbab98d088c19ecb24a63c511b6eac24ba51c14c734dffee42ff5d55fe96460001b610503565b6000808581548110615ce6577f4e487b7100000000000000000000000000000000000000000000000000000000600052603260045260246000fd5b90600052602060002090600902016002018281548110615d2f577f4e487b7100000000000000000000000000000000000000000000000000000000600052603260045260246000fd5b9060005260206000200160009054906101000a900473ffffffffffffffffffffffffffffffffffffffff169050615d887fc40574439156aa13bd70313c0102602ad1fba3c7dbdf3f89891904fee3a05cdd60001b610503565b615db47fa11c7dff5a90ca3fd1c2609890d499536a3e30b0b1c1fd44cd3e3e50121a8c8b60001b610503565b6000615dff82600460008573ffffffffffffffffffffffffffffffffffffffff1673ffffffffffffffffffffffffffffffffffffffff16815260200190815260200160002054617499565b9050615e2d7f6244b154f447004fbfd9623fad9ae682339d8ab11af4b68cd6773195532dc14c60001b610503565b615e597f9d0cea920fa1a3d38321e16d8ef867bdd0d63f11755ebf0b54bd2a0b661eb95360001b610503565b6107d08160018351615e6b9190619535565b81518110615ea2577f4e487b7100000000000000000000000000000000000000000000000000000000600052603260045260246000fd5b6020026020010151615eb491906194aa565b9450615ee27f4fc903aa4b4ebe88f18edf131d6c3950959a3b378875afe72d747047db47059160001b610503565b615f0e7f0bd2b171d6e83fd87bd9f32ffa4f5c5ad3a48169de5d0a7d3e964a5f7c4531fd60001b610503565b8484615f1a9190619454565b9350615f487f098a7a8d5ec87dbd1cd986cb6f9be5a9650dd2e7e31e9bbda0d8abf9c1e9d3e960001b610503565b615f747f61974c1217bab8198ac797881d811de775b420aba5a03672cc4452cd459b583760001b610503565b6160188282600081518110615fb2577f4e487b7100000000000000000000000000000000000000000000000000000000600052603260045260246000fd5b6020026020010151878460018651615fca9190619535565b81518110616001577f4e487b7100000000000000000000000000000000000000000000000000000000600052603260045260246000fd5b60200260200101516160139190619535565b617a94565b505080806160259061960b565b915050615bfd565b5061605a7f885a271f01612e6be9e2aecad2cd5227f92f688d9e7b458011af3f1b969cc39160001b610503565b6160867f19ec64d64e10ee3741b1ff9973f0cb39415efd096fb5b3b4eff170a0d83da25660001b610503565b3373ffffffffffffffffffffffffffffffffffffffff166108fc829081150290604051600060405180830381858888f193505050501580156160cc573d6000803e3d6000fd5b50505050565b6160fe7f542efd8a1a514a9d438d7bdca6e30952030fbbf0d307b6888efb67e1c771bae760001b610503565b61612a7f5dfa69eb7ecf15b91ff840da47dea9aeab9d7e72b2a51c8a8ea4e68b9bf2c52560001b610503565b6161567fb882805cb1a99b86dcd6deb0af0242c08d53187bfc4811611e4e4a846c34b13a60001b610503565b6161827feea1dc8bc05454c7138d67649bf8270efa798e948df924f2b8e81762c4f85fc260001b610503565b600660009054906101000a900473ffffffffffffffffffffffffffffffffffffffff1673ffffffffffffffffffffffffffffffffffffffff163373ffffffffffffffffffffffffffffffffffffffff1614616212576040517f08c379a00000000000000000000000000000000000000000000000000000000081526004016162099061914b565b60405180910390fd5b61623e7fb443d5b75550852b09c0ee824e3add9902563938b7e97eb2b13d592c4674880060001b610503565b61626a7f27c54680d1306e832ba8a6d1aadc8ccede6319be63c07ab14caaea183d801bb160001b610503565b6162967f4eb4cd4f16aa0a36fe3556e2b02116e29886b93bd6027a5a11ef6f2e0cc5775d60001b610503565b6162c27f9d331e95ad992ab51c64cd678e3702a87e311f55058c5a6b2599e0022184d26e60001b610503565b60008111616305576040517f08c379a00000000000000000000000000000000000000000000000000000000081526004016162fc906190ab565b60405180910390fd5b6163317f92b52d67c366843fef4204ff590aca296f90e05248412f6f628c7f3a3798bebb60001b610503565b61635d7f410b4e8cdf71e3f94983d6952e1589cc3ef383bb48b092652cd960f38310629f60001b610503565b6163897f2cd8e83e05539638de550ef2e92df2a9cd71051d83f81e14bb2b6663db99d23660001b610503565b60006002600084815481106163c7577f4e487b7100000000000000000000000000000000000000000000000000000000600052603260045260246000fd5b9060005260206000209060090201600301546163e391906194aa565b90506164117f5b3511f31fdd8f3d8a8063d1b52c3455928fae88dac247aaccf9b0e7cfa0694f60001b610503565b61643d7f3dcbe955d84d82d21eddff0ca6d68ba13b6c115de0de689b146c7310b0d7338460001b610503565b6000808481548110616478577f4e487b7100000000000000000000000000000000000000000000000000000000600052603260045260246000fd5b906000526020600020906009020160050154826164959190619535565b90506164c37fc7da5497612d990b3287e763d83b3856e858991e8f29e91e8b84d593f9cd7db460001b610503565b6164ef7f1b2ee56568a65625a630ab819b392c25dded51b2ded4a95eee9ebd8f94136ac560001b610503565b60006103e8848361650091906194db565b61650a91906194aa565b90506165387feec05ab8097ff82789bf6ebd8f698e9a55c7c521c539753bf4ea759680d4c23f60001b610503565b6165647f7ad2337621ab1372e92515303770bf2506222396051f5877fd5c7c5164c4ecad60001b610503565b6165907f36557cbaad1af86cd968a129bfd6301e887ef8acb531e1fdc6bccfc2388636b560001b610503565b808210156165d3576040517f08c379a00000000000000000000000000000000000000000000000000000000081526004016165ca906190cb565b60405180910390fd5b6165ff7f0579f58b2414e6937cdc24bcb857c466dac277f3955fd0652babc73a7c661e6f60001b610503565b61662b7fc544771b2b03da6b6006c227ed12b26692a9ba582e0ea6f75d4996ae4313573e60001b610503565b6166577fe1e8ec0cb061387ee6cf59aca4451bbdf325cc1d6f27613e310bc61ab989fa1e60001b610503565b8060008681548110616692577f4e487b7100000000000000000000000000000000000000000000000000000000600052603260045260246000fd5b906000526020600020906009020160050160008282546166b29190619454565b925050819055506166e57f28ab9a7d5cbe1d6534d9fdb726b148ea19de32c9d19fe3740fe319cb7e60f5fe60001b610503565b6167117fe7735052ee48ff706265749ca293dafd1f635f4fcbd6337d2d50162e1c60d36760001b610503565b3373ffffffffffffffffffffffffffffffffffffffff166108fc829081150290604051600060405180830381858888f19350505050158015616757573d6000803e3d6000fd5b505050505050565b600061678d7fb9e59bda38a06cd0cc96d87d0b05c32dc32e87ef86c52fbdab6bc590a5af987160001b610503565b6167b97f6208223992a20b07d55b10e7c24e3abfb74cfa0afa1657af399e03e3e737cc9e60001b610503565b6167e57f69879878827c160de26ca519f85d26450feff51bd5a127989f4480ed836b6a8160001b610503565b6000600190505b8251811015616a46576168217fc57fc429945a4808ae27f817d6d8443bbb77321bed6e0dee1f8a37dd952f10bf60001b610503565b61684d7fcd11edfe6e044fc8688a18ee134352c9f2aceef90e7b0eb233a91756a159455760001b610503565b60005b81811015616a32576168847f65ebcb53c19ff692da6aa6db7902f17d26bce245894869a9ce589def154bc6a960001b610503565b6168b07fbab6e9efd20bfb79b0fcf1f8a8eee183610811f7cde5bb26be7d94945a3fe27b60001b610503565b8381815181106168e9577f4e487b7100000000000000000000000000000000000000000000000000000000600052603260045260246000fd5b602002602001015173ffffffffffffffffffffffffffffffffffffffff16848381518110616940577f4e487b7100000000000000000000000000000000000000000000000000000000600052603260045260246000fd5b602002602001015173ffffffffffffffffffffffffffffffffffffffff1614156169f3576169907f7a7ec663787caff5d0ca5fe9f8b032997e11ce0c11b239059a005c9ba61e725860001b610503565b6169bc7fc9479d3aad0ee27520d9309aad55aeb33c16c5a1a111673e8d38f85f6fc86e2760001b610503565b6169e87f8b3bfa1c66b12476ab52212b9c7b20ba2db3b2eb42a8de12d25b2547679384cc60001b610503565b600092505050616aa4565b616a1f7f94d21bf537c8a335d307569ed3d95e4fcc16f9ef08667b52d36084e689d8958c60001b610503565b8080616a2a9061960b565b915050616850565b508080616a3e9061960b565b9150506167ec565b50616a737fbb34ac6f5df3a5c56e74c8aee62c53b9adcfff16fa69d50ca5757bd31572916c60001b610503565b616a9f7f35b4215a85597f5422fbc29320acd17e136680d0d009481fad0d4f59157e655860001b610503565b600190505b919050565b6060616ad77f7f485aef87c08432de8a84c53042e28b9e4b765bea1e0b57d148f477ac3dfe7660001b610503565b616b037f3d3b7f118e2be512f9672c758540fe29e4d806fb4a3be84b9f0fee7d5a0b3b1160001b610503565b616b2f7fc224f825831568ab87cbd55eebf68249862df6b9cb1a0d739c5c1be3b56351f860001b610503565b6000600267ffffffffffffffff811115616b72577f4e487b7100000000000000000000000000000000000000000000000000000000600052604160045260246000fd5b604051908082528060200260200182016040528015616ba05781602001602082028036833780820191505090505b509050616bcf7f5213f502ac6f16cb2a6bbc471b9bbf5752c9ac3212440050ded9b12c75fbac4560001b610503565b616bfb7f1313f2aaf7aa1c7ad743d1fbbd2805dea94c373a862d02fac4f4f4881b5f604960001b610503565b600560009054906101000a900473ffffffffffffffffffffffffffffffffffffffff1673ffffffffffffffffffffffffffffffffffffffff1663ad5c46486040518163ffffffff1660e01b815260040160206040518083038186803b158015616c6357600080fd5b505afa158015616c77573d6000803e3d6000fd5b505050506040513d601f19601f82011682018060405250810190616c9b9190618966565b81600081518110616cd5577f4e487b7100000000000000000000000000000000000000000000000000000000600052603260045260246000fd5b602002602001019073ffffffffffffffffffffffffffffffffffffffff16908173ffffffffffffffffffffffffffffffffffffffff1681525050616d3b7f7054f83118d0be58cc26373b5f2db94e3fd5577f893dc5e8d37f0c3b31bf732360001b610503565b616d677f8e8179f3e06f9790d5b8cef94f2a58354fa233ff25d5f94ef8ed097c3e1ba37260001b610503565b8381600181518110616da2577f4e487b7100000000000000000000000000000000000000000000000000000000600052603260045260246000fd5b602002602001019073ffffffffffffffffffffffffffffffffffffffff16908173ffffffffffffffffffffffffffffffffffffffff1681525050616e087fea0eba214313f097235c458e91988d2ed02d4f90037406af64ce002b0755a3f960001b610503565b616e347f1224fdf04f68ebb4bdd0026e75ed4f8b4d5be3b6de5f764bb7ad0997b305fc4a60001b610503565b600560009054906101000a900473ffffffffffffffffffffffffffffffffffffffff1673ffffffffffffffffffffffffffffffffffffffff16637ff36ab58460018430620186a042616e869190619454565b6040518663ffffffff1660e01b8152600401616ea5949392919061903f565b6000604051808303818588803b158015616ebe57600080fd5b505af1158015616ed2573d6000803e3d6000fd5b50505050506040513d6000823e3d601f19601f82011682018060405250810190616efc919061898f565b91505092915050565b616f317f4c502ee25df7c64f6c19bfc21b73a81b96bea63edf19e7604cad5b915bbd0ca860001b610503565b616f5d7f27b0abf8ad1d5a566a7ccc26bd1d90a8f8dc1da8aa3f0444dcbd9f8ea2689f7860001b610503565b616f897ffd3042c32bfb2e6718a5951a32938f199f96ab96a6ae074031be67414ffded0560001b610503565b60005b600160008573ffffffffffffffffffffffffffffffffffffffff1673ffffffffffffffffffffffffffffffffffffffff1681526020019081526020016000208054905081101561736e576170027f1cc21b75341b181a51df88db75b1537009faef683ce5c552d87ef047148e940660001b610503565b61702e7fbe0592ac023a6bbbdb627aeec03210860a4f3b96bc95542162383d9c32f22c6260001b610503565b6000600160008673ffffffffffffffffffffffffffffffffffffffff1673ffffffffffffffffffffffffffffffffffffffff16815260200190815260200160002082815481106170a7577f4e487b7100000000000000000000000000000000000000000000000000000000600052603260045260246000fd5b9060005260206000209060030201604051806060016040529081600082015481526020016001820160009054906101000a900473ffffffffffffffffffffffffffffffffffffffff1673ffffffffffffffffffffffffffffffffffffffff1673ffffffffffffffffffffffffffffffffffffffff16815260200160028201548152505090506171587f1305a8c710493d53bd8f2b53f7b3cd7590b0820dc1e2b2f766f17ae04acad4e160001b610503565b6171847fb40301279174e4f7c6cbf5e8d25f9b3bbb04861a5335b8a17c391fee7aa4178f60001b610503565b6000838260400151620f424061719a91906194db565b6171a491906194aa565b90506171d27fdb0a965d3c17c668155e3146fa624588f8ae911a9609063e09d786832680392e60001b610503565b6171fe7f237dc51543f19326f6bc6b6e9e1efb54f764ddf508d6e5c7b29701c5d9cef28560001b610503565b6000620f4240828761721091906194db565b61721a91906194aa565b90506172487fd09576afc658009fa7316111a82c9ba9e2eecec539c8a786035ecb18e68b825e60001b610503565b6172747fd5099ab77c7f55157461cc3da390e9cdc8d5701b609a8717f48c82b29736707360001b610503565b8060008460000151815481106172b3577f4e487b7100000000000000000000000000000000000000000000000000000000600052603260045260246000fd5b906000526020600020906009020160060160008973ffffffffffffffffffffffffffffffffffffffff1673ffffffffffffffffffffffffffffffffffffffff1681526020019081526020016000206000856020015173ffffffffffffffffffffffffffffffffffffffff1673ffffffffffffffffffffffffffffffffffffffff16815260200190815260200160002060008282546173519190619454565b9250508190555050505080806173669061960b565b915050616f8c565b5061739b7fbff1db6854fd04bdf2271eeb2d0ad0450d57482acc31666b24e9c79e221c714a60001b610503565b600160008473ffffffffffffffffffffffffffffffffffffffff1673ffffffffffffffffffffffffffffffffffffffff16815260200190815260200160002060006173e6919061866e565b6174127fc98e77d7e8cc0d8e8e6468cec6905b84935a6b8c61fe3bbeb6119c7d52ce46be60001b610503565b61743e7fe533b352a9e0d129e73f0817df52a1d99394c6636d2a760edb21e4911d0f8a8060001b610503565b80600260008573ffffffffffffffffffffffffffffffffffffffff1673ffffffffffffffffffffffffffffffffffffffff168152602001908152602001600020600082825461748d9190619535565b92505081905550505050565b60606174c77f4188f8fb789baf7141847f8d0086f7fd77be0009dfef6f0c14e71ea5f2ef4bf560001b610503565b6174f37fa26ab14475acf6de57401c62f0100a670fe1fbc25a276e6d158365b2552dd3d660001b610503565b61751f7f8b08d8ae4d1edcf3f572a3482a3cbebc1bad696e15638cc00b32285fb0929b7d60001b610503565b6000600267ffffffffffffffff811115617562577f4e487b7100000000000000000000000000000000000000000000000000000000600052604160045260246000fd5b6040519080825280602002602001820160405280156175905781602001602082028036833780820191505090505b5090506175bf7f8977f41463f2dfb9ba018393fb0bb83b34d54f717ec9871d68ed1b75ae675e7260001b610503565b6175eb7fb6977b7fb87c8b2a5e7ba31c0e466f16215b28f122608ca484df8f9a63cc70b760001b610503565b8381600081518110617626577f4e487b7100000000000000000000000000000000000000000000000000000000600052603260045260246000fd5b602002602001019073ffffffffffffffffffffffffffffffffffffffff16908173ffffffffffffffffffffffffffffffffffffffff168152505061768c7f566904239d7ba76fa491a260f82008e82d4dbb53e83155a568c177b4e333ea9b60001b610503565b6176b87f08310a9bddd620730839fa0285a5dc333c3d6a774789c5e6de022b5bab00892360001b610503565b600560009054906101000a900473ffffffffffffffffffffffffffffffffffffffff1673ffffffffffffffffffffffffffffffffffffffff1663ad5c46486040518163ffffffff1660e01b815260040160206040518083038186803b15801561772057600080fd5b505afa158015617734573d6000803e3d6000fd5b505050506040513d601f19601f820116820180604052508101906177589190618966565b81600181518110617792577f4e487b7100000000000000000000000000000000000000000000000000000000600052603260045260246000fd5b602002602001019073ffffffffffffffffffffffffffffffffffffffff16908173ffffffffffffffffffffffffffffffffffffffff16815250506177f87f5c310d9df68716c285ffdcadb62496f997d5bc95a1cd1937e2d08e83ec89604960001b610503565b6178247fd4c75f23bd6b1c0d7c36ed5d8acccb58d7cbf6425ad7dc1df8c023f9f83da06d60001b610503565b6178507fa60bbd8caa31f3040a2bcf5aa048105c7fbfa81a73de4402a87c6d7f88aa814860001b610503565b8373ffffffffffffffffffffffffffffffffffffffff1663095ea7b3600560009054906101000a900473ffffffffffffffffffffffffffffffffffffffff16856040518363ffffffff1660e01b81526004016178ad929190618fd2565b602060405180830381600087803b1580156178c757600080fd5b505af11580156178db573d6000803e3d6000fd5b505050506040513d601f19601f820116820180604052508101906178ff9190618a3c565b61793e576040517f08c379a0000000000000000000000000000000000000000000000000000000008152600401617935906191eb565b60405180910390fd5b61796a7f6a6cb2a8132812fb5a7dc9bb073108e95232cd9588fcfb783a44b2bef3cb9f6160001b610503565b6179967fb22188fb4ba9617b3675af85c7d18f53018058311291730a08bf16b53b883c6e60001b610503565b6179c27f19c2e4cf25050d3a5255954ea912486c0cf9f5af86b976f27e62951d0e0c3ec460001b610503565b600560009054906101000a900473ffffffffffffffffffffffffffffffffffffffff1673ffffffffffffffffffffffffffffffffffffffff166318cbafe58460018430620186a042617a149190619454565b6040518663ffffffff1660e01b8152600401617a349594939291906192d8565b600060405180830381600087803b158015617a4e57600080fd5b505af1158015617a62573d6000803e3d6000fd5b505050506040513d6000823e3d601f19601f82011682018060405250810190617a8b919061898f565b91505092915050565b617ac07f724a95e23c5d0a3f5cc2911a4fd297c3c4faaac4a0b410b3928ddce63f66ae4a60001b610503565b617aeb7eb788c6821f717b834689ebdb170ce822574fca9189a89dbac4df783a3710cb60001b610503565b617b177f2df5624accf58bcbffecdd71d6381daa01ff1138df32a754c0d3593a70b85ec960001b610503565b60005b600360008573ffffffffffffffffffffffffffffffffffffffff1673ffffffffffffffffffffffffffffffffffffffff1681526020019081526020016000208054905081101561817657617b907fe4229d8be41a1e3fac243857a7a99db60076b520e2b78574ef2e7ac974c8649d60001b610503565b617bbc7f0407daaa2b10a2919526a9060486339c64db08b51f50bbf5cd62952d5913a52360001b610503565b6000600360008673ffffffffffffffffffffffffffffffffffffffff1673ffffffffffffffffffffffffffffffffffffffff1681526020019081526020016000208281548110617c35577f4e487b7100000000000000000000000000000000000000000000000000000000600052603260045260246000fd5b9060005260206000209060030201604051806060016040529081600082015481526020016001820160009054906101000a900473ffffffffffffffffffffffffffffffffffffffff1673ffffffffffffffffffffffffffffffffffffffff1673ffffffffffffffffffffffffffffffffffffffff1681526020016002820154815250509050617ce67ffc850123d1d4add5bb7769b328c071152c794c361877ea30c9856bef9ba263bf60001b610503565b617d127fddf8e6a851d45eab7c4fde5b36bfbd3b905bc94c72311032405e0a623a8772bc60001b610503565b6000848260400151620f4240617d2891906194db565b617d3291906194aa565b9050617d607fdea6aa68f39a9965f2de96699070e87e84d8134e8f6f546edc46cfe9b1cc510a60001b610503565b617d8c7f1250efbc60f3b1adeaa6077876cda19ae8d21a15d0f9d849397b39dd914f8daf60001b610503565b6000620f42408286617d9e91906194db565b617da891906194aa565b9050617dd67f52ba5a03323083836816272b11ce47eb7ffb7ce4fd7ee783ee4296192f3e1ef560001b610503565b617e027f5b029a7726e152bab4bfe237c7d64cc1578fb7d6d574b6b21f9c1c5263395fe260001b610503565b806000846000015181548110617e41577f4e487b7100000000000000000000000000000000000000000000000000000000600052603260045260246000fd5b90600052602060002090600902016007016000856020015173ffffffffffffffffffffffffffffffffffffffff1673ffffffffffffffffffffffffffffffffffffffff1681526020019081526020016000206000828254617ea29190619454565b92505081905550617ed57fecaa31cd2d36baceb97851d57a20b11b3d9626da9c681f3f06b8169aa87a639760001b610503565b617f017f230f651ef96e4a83016f256370a81001035b053a9e2f6f2f62e79e7fdbf5226660001b610503565b60016000846000015181548110617f41577f4e487b7100000000000000000000000000000000000000000000000000000000600052603260045260246000fd5b90600052602060002090600902016008016000856020015173ffffffffffffffffffffffffffffffffffffffff1673ffffffffffffffffffffffffffffffffffffffff1681526020019081526020016000206000828254617fa29190619535565b92505081905550617fd57f143749c61ae4bafd1c32c278e79983d14af519703a7140a217cd81f00e09636460001b610503565b6180017f1e497d1a0f3297d9c39302136670944eaec183e308b60e828f626d88dd7e457760001b610503565b600080846000015181548110618040577f4e487b7100000000000000000000000000000000000000000000000000000000600052603260045260246000fd5b90600052602060002090600902016008016000856020015173ffffffffffffffffffffffffffffffffffffffff1673ffffffffffffffffffffffffffffffffffffffff168152602001908152602001600020541415618134576180c57fd571c65ecffab779bcd362e4e8db7f2e6cfa6760aee4b8bf2441c5c246a75bc660001b610503565b6180f17f139b2aa1e9e4aef9300a485d351cd68614d793f2ee81c11eec2e1d28f3778baa60001b610503565b61811d7f9992baf4a0cc0a1f9081457ea7f45fa5e6b4ec5bd4ee89c0cd5f6e9a35e743ff60001b610503565b61812f836000015184602001516182a0565b618160565b61815f7e7274fae7a5db65daee69a99d0c2ab7b600bdf52a2bb4212f05103985496dba60001b610503565b5b505050808061816e9061960b565b915050617b1a565b506181a37f9da2bfa7096a1edc820022c14a404a9028ddc3717a6947185038ef05a2db19be60001b610503565b600360008473ffffffffffffffffffffffffffffffffffffffff1673ffffffffffffffffffffffffffffffffffffffff16815260200190815260200160002060006181ee919061866e565b61821a7f8287d44a54b483d068ca480d634048c117201ce414b324de7bbdef8032b32e3260001b610503565b6182457e1d4c9fe4e23cc9546b4dc813dbd7f638647eb2782adf8384a4d3822cf29f6c60001b610503565b81600460008573ffffffffffffffffffffffffffffffffffffffff1673ffffffffffffffffffffffffffffffffffffffff16815260200190815260200160002060008282546182949190619535565b92505081905550505050565b6182cc7f184646a07a699b3b9c21dfc156f97eec54ac364c19446b6325bc952bd5a3604c60001b610503565b6182f87fee80f77bfbd452f77a0a522d5867b948778660062ff59078d4be81b3683197af60001b610503565b6183247fe44aec8a6a732a7ee46cf6256ca960f5fb4f5bf82c480b9780f1fd1ce138cd3760001b610503565b600080838154811061835f577f4e487b7100000000000000000000000000000000000000000000000000000000600052603260045260246000fd5b906000526020600020906009020160070160008373ffffffffffffffffffffffffffffffffffffffff1673ffffffffffffffffffffffffffffffffffffffff1681526020019081526020016000205490506183dc7fee8e946c5276b16558375fc4233632435942ae9959d5bfb21e8e649f9a0c234660001b610503565b6184087fc1f98acb6c531e412c5e4d0db6f5850e523e8fd97f9846f7d79e9bbd703cce2060001b610503565b8060008481548110618443577f4e487b7100000000000000000000000000000000000000000000000000000000600052603260045260246000fd5b906000526020600020906009020160070160008473ffffffffffffffffffffffffffffffffffffffff1673ffffffffffffffffffffffffffffffffffffffff16815260200190815260200160002060008282546184a09190619535565b925050819055506184d37f79bbede565006bced3b90548d0270ae5cb99468320ca00d31e2cf1082e76108460001b610503565b6184ff7f9e59bd5db85e03efde7e96ce79d973c32f0da56740762343460d629b8574d00460001b610503565b8173ffffffffffffffffffffffffffffffffffffffff166108fc829081150290604051600060405180830381858888f19350505050158015618545573d6000803e3d6000fd5b50505050565b828054828255906000526020600020908101928215618587579160200282015b8281111561858657825182559160200191906001019061856b565b5b5090506185949190618692565b5090565b828054828255906000526020600020908101928215618611579160200282015b828111156186105782518260006101000a81548173ffffffffffffffffffffffffffffffffffffffff021916908373ffffffffffffffffffffffffffffffffffffffff160217905550916020019190600101906185b8565b5b50905061861e9190618692565b5090565b6040518060c00160405280600073ffffffffffffffffffffffffffffffffffffffff16815260200160608152602001606081526020016000815260200160008152602001600081525090565b508054600082556003029060005260206000209081019061868f91906186af565b50565b5b808211156186ab576000816000905550600101618693565b5090565b5b808211156186f9576000808201600090556001820160006101000a81549073ffffffffffffffffffffffffffffffffffffffff02191690556002820160009055506003016186b0565b5090565b600061871061870b84619357565b619332565b9050808382526020820190508285602086028201111561872f57600080fd5b60005b8581101561875f57816187458882618841565b845260208401935060208301925050600181019050618732565b5050509392505050565b600061877c61877784619383565b619332565b9050808382526020820190508285602086028201111561879b57600080fd5b60005b858110156187cb57816187b18882618913565b84526020840193506020830192505060018101905061879e565b5050509392505050565b60006187e86187e384619383565b619332565b9050808382526020820190508285602086028201111561880757600080fd5b60005b85811015618837578161881d8882618928565b84526020840193506020830192505060018101905061880a565b5050509392505050565b60008135905061885081619aff565b92915050565b60008151905061886581619aff565b92915050565b600082601f83011261887c57600080fd5b813561888c8482602086016186fd565b91505092915050565b600082601f8301126188a657600080fd5b81356188b6848260208601618769565b91505092915050565b600082601f8301126188d057600080fd5b81516188e08482602086016187d5565b91505092915050565b6000815190506188f881619b16565b92915050565b60008135905061890d81619b2d565b92915050565b60008135905061892281619b44565b92915050565b60008151905061893781619b44565b92915050565b60006020828403121561894f57600080fd5b600061895d84828501618841565b91505092915050565b60006020828403121561897857600080fd5b600061898684828501618856565b91505092915050565b6000602082840312156189a157600080fd5b600082015167ffffffffffffffff8111156189bb57600080fd5b6189c7848285016188bf565b91505092915050565b600080604083850312156189e357600080fd5b600083013567ffffffffffffffff8111156189fd57600080fd5b618a0985828601618895565b925050602083013567ffffffffffffffff811115618a2657600080fd5b618a328582860161886b565b9150509250929050565b600060208284031215618a4e57600080fd5b6000618a5c848285016188e9565b91505092915050565b600060208284031215618a7757600080fd5b6000618a85848285016188fe565b91505092915050565b600060208284031215618aa057600080fd5b6000618aae84828501618913565b91505092915050565b600080600060608486031215618acc57600080fd5b6000618ada86828701618913565b9350506020618aeb86828701618841565b9250506040618afc86828701618841565b9150509250925092565b60008060408385031215618b1957600080fd5b6000618b2785828601618913565b9250506020618b3885828601618913565b9150509250929050565b6000618b4e8383618b72565b60208301905092915050565b6000618b668383618fb4565b60208301905092915050565b618b7b81619569565b82525050565b618b8a81619569565b82525050565b6000618b9b826193cf565b618ba581856193ff565b9350618bb0836193af565b8060005b83811015618be1578151618bc88882618b42565b9750618bd3836193e5565b925050600181019050618bb4565b5085935050505092915050565b6000618bf9826193cf565b618c038185619410565b9350618c0e836193af565b8060005b83811015618c3f578151618c268882618b42565b9750618c31836193e5565b925050600181019050618c12565b5085935050505092915050565b6000618c57826193da565b618c618185619421565b9350618c6c836193bf565b8060005b83811015618c9d578151618c848882618b5a565b9750618c8f836193f2565b925050600181019050618c70565b5085935050505092915050565b6000618cb5826193da565b618cbf8185619432565b9350618cca836193bf565b8060005b83811015618cfb578151618ce28882618b5a565b9750618ced836193f2565b925050600181019050618cce565b5085935050505092915050565b618d11816195c8565b82525050565b6000618d24602283619443565b9150618d2f8261971c565b604082019050919050565b6000618d47602e83619443565b9150618d528261976b565b604082019050919050565b6000618d6a601b83619443565b9150618d75826197ba565b602082019050919050565b6000618d8d602183619443565b9150618d98826197e3565b604082019050919050565b6000618db0602483619443565b9150618dbb82619832565b604082019050919050565b6000618dd3601183619443565b9150618dde82619881565b602082019050919050565b6000618df6602083619443565b9150618e01826198aa565b602082019050919050565b6000618e19601483619443565b9150618e24826198d3565b602082019050919050565b6000618e3c604e83619443565b9150618e47826198fc565b606082019050919050565b6000618e5f603f83619443565b9150618e6a82619971565b604082019050919050565b6000618e82602683619443565b9150618e8d826199c0565b604082019050919050565b6000618ea5600f83619443565b9150618eb082619a0f565b602082019050919050565b6000618ec8601283619443565b9150618ed382619a38565b602082019050919050565b6000618eeb603083619443565b9150618ef682619a61565b604082019050919050565b6000618f0e603183619443565b9150618f1982619ab0565b604082019050919050565b600060c083016000830151618f3c6000860182618b72565b5060208301518482036020860152618f548282618c4c565b91505060408301518482036040860152618f6e8282618b90565b9150506060830151618f836060860182618fb4565b506080830151618f966080860182618fb4565b5060a0830151618fa960a0860182618fb4565b508091505092915050565b618fbd816195b1565b82525050565b618fcc816195b1565b82525050565b6000604082019050618fe76000830185618b81565b618ff46020830184618fc3565b9392505050565b600060208201905081810360008301526190158184618bee565b905092915050565b600060208201905081810360008301526190378184618caa565b905092915050565b60006080820190506190546000830187618d08565b81810360208301526190668186618bee565b90506190756040830185618b81565b6190826060830184618fc3565b95945050505050565b600060208201905081810360008301526190a481618d17565b9050919050565b600060208201905081810360008301526190c481618d3a565b9050919050565b600060208201905081810360008301526190e481618d5d565b9050919050565b6000602082019050818103600083015261910481618d80565b9050919050565b6000602082019050818103600083015261912481618da3565b9050919050565b6000602082019050818103600083015261914481618dc6565b9050919050565b6000602082019050818103600083015261916481618de9565b9050919050565b6000602082019050818103600083015261918481618e0c565b9050919050565b600060208201905081810360008301526191a481618e2f565b9050919050565b600060208201905081810360008301526191c481618e52565b9050919050565b600060208201905081810360008301526191e481618e75565b9050919050565b6000602082019050818103600083015261920481618e98565b9050919050565b6000602082019050818103600083015261922481618ebb565b9050919050565b6000602082019050818103600083015261924481618ede565b9050919050565b6000602082019050818103600083015261926481618f01565b9050919050565b600060208201905081810360008301526192858184618f24565b905092915050565b60006020820190506192a26000830184618fc3565b92915050565b60006040820190506192bd6000830185618fc3565b81810360208301526192cf8184618bee565b90509392505050565b600060a0820190506192ed6000830188618fc3565b6192fa6020830187618d08565b818103604083015261930c8186618bee565b905061931b6060830185618b81565b6193286080830184618fc3565b9695505050505050565b600061933c61934d565b905061934882826195da565b919050565b6000604051905090565b600067ffffffffffffffff821115619372576193716196dc565b5b602082029050602081019050919050565b600067ffffffffffffffff82111561939e5761939d6196dc565b5b602082029050602081019050919050565b6000819050602082019050919050565b6000819050602082019050919050565b600081519050919050565b600081519050919050565b6000602082019050919050565b6000602082019050919050565b600082825260208201905092915050565b600082825260208201905092915050565b600082825260208201905092915050565b600082825260208201905092915050565b600082825260208201905092915050565b600061945f826195b1565b915061946a836195b1565b9250827fffffffffffffffffffffffffffffffffffffffffffffffffffffffffffffffff0382111561949f5761949e61967e565b5b828201905092915050565b60006194b5826195b1565b91506194c0836195b1565b9250826194d0576194cf6196ad565b5b828204905092915050565b60006194e6826195b1565b91506194f1836195b1565b9250817fffffffffffffffffffffffffffffffffffffffffffffffffffffffffffffffff048311821515161561952a5761952961967e565b5b828202905092915050565b6000619540826195b1565b915061954b836195b1565b92508282101561955e5761955d61967e565b5b828203905092915050565b600061957482619591565b9050919050565b60008115159050919050565b6000819050919050565b600073ffffffffffffffffffffffffffffffffffffffff82169050919050565b6000819050919050565b600060ff82169050919050565b60006195d3826195b1565b9050919050565b6195e38261970b565b810181811067ffffffffffffffff82111715619602576196016196dc565b5b80604052505050565b6000619616826195b1565b91507fffffffffffffffffffffffffffffffffffffffffffffffffffffffffffffffff8214156196495761964861967e565b5b600182019050919050565b600061965f826195bb565b915060ff8214156196735761967261967e565b5b600182019050919050565b7f4e487b7100000000000000000000000000000000000000000000000000000000600052601160045260246000fd5b7f4e487b7100000000000000000000000000000000000000000000000000000000600052601260045260246000fd5b7f4e487b7100000000000000000000000000000000000000000000000000000000600052604160045260246000fd5b6000601f19601f8301169050919050565b7f43414e27542053454c4c204d4f5245205448414e2031303025204f462046554e60008201527f4453000000000000000000000000000000000000000000000000000000000000602082015250565b7f57495448445241572050455243414e54414745204e4545445320544f2042452060008201527f47524541544552205448414e2030000000000000000000000000000000000000602082015250565b7f464545205749544844524157204c494d49542045584345454445440000000000600082015250565b7f4e4545445320544f204841564520534841524553204f462054484520494e444560008201527f5800000000000000000000000000000000000000000000000000000000000000602082015250565b7f4f4e4c5920494e4445582043524541544f522043414e2057495448445241572060008201527f4645455300000000000000000000000000000000000000000000000000000000602082015250565b7f4455504c49434154454420544f4b454e53000000000000000000000000000000600082015250565b7f4f4e4c5920494e444558504f4f4c2043414e2057495448445241572046454553600082015250565b7f455243323020415050524f5645204641494c4544000000000000000000000000600082015250565b7f414c4c4f434154494f4e20414d4f554e5420495320544f4f20534d414c4c2c2060008201527f4e4545445320544f204245204154204c45415354204551554956414c454e542060208201527f544f203130302c30303020574549000000000000000000000000000000000000604082015250565b7f4e4f204d4f5245205448414e203230302050454e44494e47205452414e53414360008201527f54494f4e5320414c4c4f57454420464f52204120474956454e20415353455400602082015250565b7f53454c4c20504354204e4545445320544f20424520475245415445522054484160008201527f4e205a45524f0000000000000000000000000000000000000000000000000000602082015250565b7f617070726f7665206661696c65642e0000000000000000000000000000000000600082015250565b7f494e53554646494349454e542046554e44530000000000000000000000000000600082015250565b7f4d49534d4154434820494e204c454e475448204245545745454e20544f4b454e60008201527f5320414e4420414c4c4f434154494f4e00000000000000000000000000000000602082015250565b7f4e4f204d4f5245205448414e2035313220544f4b454e5320414c4c4f5745442060008201527f494e20412053494e474c4520494e444558000000000000000000000000000000602082015250565b619b0881619569565b8114619b1357600080fd5b50565b619b1f8161957b565b8114619b2a57600080fd5b50565b619b3681619587565b8114619b4157600080fd5b50565b619b4d816195b1565b8114619b5857600080fd5b5056fea26469706673582212206ea60669a7dd613c2e50170fe7ed0f73e925bcaeca3f2e96631b38c1a09d8c9064736f6c63430008040033",
  "linkReferences": {},
  "deployedLinkReferences": {}
}