{
  "_format": "hh-sol-artifact-1",
  "contractName": "Pool",
  "sourceName": "contracts/Pool.sol",
  "abi": [
    {
      "inputs": [
        {
          "internalType": "address",
          "name": "_uniswap_factory",
          "type": "address"
        },
        {
          "internalType": "address",
          "name": "oracleAddress",
          "type": "address"
        }
      ],
      "stateMutability": "nonpayable",
      "type": "constructor"
    },
    {
      "anonymous": false,
      "inputs": [
        {
          "indexed": true,
          "internalType": "uint256",
          "name": "index_id",
          "type": "uint256"
        },
        {
          "indexed": true,
          "internalType": "address",
          "name": "creator",
          "type": "address"
        },
        {
          "indexed": false,
          "internalType": "address[]",
          "name": "tokens",
          "type": "address[]"
        },
        {
          "indexed": false,
          "internalType": "uint256[]",
          "name": "allocation",
          "type": "uint256[]"
        }
      ],
      "name": "LOG_CREATE_INDEX",
      "type": "event"
    },
    {
      "anonymous": false,
      "inputs": [
        {
          "indexed": true,
          "internalType": "address",
          "name": "user_id",
          "type": "address"
        },
        {
          "indexed": true,
          "internalType": "uint256",
          "name": "index_id",
          "type": "uint256"
        },
        {
          "indexed": false,
          "internalType": "uint256",
          "name": "amount_in",
          "type": "uint256"
        }
      ],
      "name": "LOG_DEPOSIT",
      "type": "event"
    },
    {
      "anonymous": false,
      "inputs": [
        {
          "indexed": true,
          "internalType": "address",
          "name": "user_id",
          "type": "address"
        },
        {
          "indexed": true,
          "internalType": "uint256",
          "name": "index_id",
          "type": "uint256"
        },
        {
          "indexed": false,
          "internalType": "uint256",
          "name": "percentage",
          "type": "uint256"
        },
        {
          "indexed": false,
          "internalType": "uint256[]",
          "name": "amounts",
          "type": "uint256[]"
        }
      ],
      "name": "LOG_ERC20_WITHDRAW",
      "type": "event"
    },
    {
      "anonymous": false,
      "inputs": [
        {
          "indexed": true,
          "internalType": "address",
          "name": "user_id",
          "type": "address"
        },
        {
          "indexed": true,
          "internalType": "uint256",
          "name": "index_id",
          "type": "uint256"
        },
        {
          "indexed": false,
          "internalType": "uint256",
          "name": "amount_out",
          "type": "uint256"
        }
      ],
      "name": "LOG_FEE_WITHDRAW",
      "type": "event"
    },
    {
      "anonymous": false,
      "inputs": [
        {
          "indexed": true,
          "internalType": "address",
          "name": "user_id",
          "type": "address"
        },
        {
          "indexed": true,
          "internalType": "uint256",
          "name": "index_id",
          "type": "uint256"
        },
        {
          "indexed": false,
          "internalType": "uint256",
          "name": "percentage",
          "type": "uint256"
        },
        {
          "indexed": false,
          "internalType": "uint256",
          "name": "amount_out",
          "type": "uint256"
        }
      ],
      "name": "LOG_WITHDRAW",
      "type": "event"
    },
    {
      "anonymous": false,
      "inputs": [
        {
          "indexed": false,
          "internalType": "address",
          "name": "sender",
          "type": "address"
        },
        {
          "indexed": false,
          "internalType": "uint256",
          "name": "amount",
          "type": "uint256"
        }
      ],
      "name": "Received",
      "type": "event"
    },
    {
      "inputs": [
        {
          "internalType": "uint256",
          "name": "tokenId",
          "type": "uint256"
        }
      ],
      "name": "burn_Pool721",
      "outputs": [],
      "stateMutability": "nonpayable",
      "type": "function"
    },
    {
      "inputs": [
        {
          "internalType": "uint256",
          "name": "index_id",
          "type": "uint256"
        },
        {
          "internalType": "uint256",
          "name": "shares_pct",
          "type": "uint256"
        }
      ],
      "name": "cash_out_erc20",
      "outputs": [],
      "stateMutability": "nonpayable",
      "type": "function"
    },
    {
      "inputs": [
        {
          "internalType": "address",
          "name": "user",
          "type": "address"
        },
        {
          "internalType": "uint256",
          "name": "index_id",
          "type": "uint256"
        },
        {
          "internalType": "uint256",
          "name": "shares_pct",
          "type": "uint256"
        }
      ],
      "name": "cash_out_erc20_admin",
      "outputs": [],
      "stateMutability": "nonpayable",
      "type": "function"
    },
    {
      "inputs": [
        {
          "internalType": "uint256[]",
          "name": "_allocation",
          "type": "uint256[]"
        },
        {
          "internalType": "address[]",
          "name": "_tokens",
          "type": "address[]"
        },
        {
          "internalType": "address[][]",
          "name": "paths",
          "type": "address[][]"
        }
      ],
      "name": "create_index",
      "outputs": [],
      "stateMutability": "nonpayable",
      "type": "function"
    },
    {
      "inputs": [
        {
          "internalType": "uint256",
          "name": "_index_id",
          "type": "uint256"
        },
        {
          "internalType": "address[][]",
          "name": "paths",
          "type": "address[][]"
        }
      ],
      "name": "deposit",
      "outputs": [],
      "stateMutability": "payable",
      "type": "function"
    },
    {
      "inputs": [
        {
          "internalType": "uint256",
          "name": "_index_id",
          "type": "uint256"
        }
      ],
      "name": "get_available_creator_fee",
      "outputs": [
        {
          "internalType": "uint256",
          "name": "",
          "type": "uint256"
        }
      ],
      "stateMutability": "view",
      "type": "function"
    },
    {
      "inputs": [
        {
          "internalType": "uint256",
          "name": "_index_id",
          "type": "uint256"
        }
      ],
      "name": "get_available_protocol_fee",
      "outputs": [
        {
          "internalType": "uint256",
          "name": "",
          "type": "uint256"
        }
      ],
      "stateMutability": "view",
      "type": "function"
    },
    {
      "inputs": [
        {
          "internalType": "uint256",
          "name": "index_id",
          "type": "uint256"
        }
      ],
      "name": "get_index",
      "outputs": [
        {
          "components": [
            {
              "internalType": "address",
              "name": "creator",
              "type": "address"
            },
            {
              "internalType": "uint256[]",
              "name": "allocation",
              "type": "uint256[]"
            },
            {
              "internalType": "address[]",
              "name": "tokens",
              "type": "address[]"
            },
            {
              "internalType": "uint256",
              "name": "fee",
              "type": "uint256"
            },
            {
              "internalType": "uint256",
              "name": "creator_fee_cash_out",
              "type": "uint256"
            },
            {
              "internalType": "uint256",
              "name": "protocol_fee_cash_out",
              "type": "uint256"
            }
          ],
          "internalType": "struct OutputIndex",
          "name": "",
          "type": "tuple"
        }
      ],
      "stateMutability": "view",
      "type": "function"
    },
    {
      "inputs": [
        {
          "internalType": "uint256",
          "name": "index_id",
          "type": "uint256"
        }
      ],
      "name": "get_index_allocation",
      "outputs": [
        {
          "internalType": "uint256[]",
          "name": "",
          "type": "uint256[]"
        }
      ],
      "stateMutability": "view",
      "type": "function"
    },
    {
      "inputs": [
        {
          "internalType": "uint256",
          "name": "index_id",
          "type": "uint256"
        }
      ],
      "name": "get_index_tokens",
      "outputs": [
        {
          "internalType": "address[]",
          "name": "",
          "type": "address[]"
        }
      ],
      "stateMutability": "view",
      "type": "function"
    },
    {
      "inputs": [],
      "name": "get_indexes_creators",
      "outputs": [
        {
          "internalType": "address[]",
          "name": "",
          "type": "address[]"
        }
      ],
      "stateMutability": "view",
      "type": "function"
    },
    {
      "inputs": [],
      "name": "get_indexes_length",
      "outputs": [
        {
          "internalType": "uint256",
          "name": "",
          "type": "uint256"
        }
      ],
      "stateMutability": "view",
      "type": "function"
    },
    {
      "inputs": [],
      "name": "get_pool721_address",
      "outputs": [
        {
          "internalType": "address",
          "name": "",
          "type": "address"
        }
      ],
      "stateMutability": "view",
      "type": "function"
    },
    {
      "inputs": [
        {
          "internalType": "uint256",
          "name": "index_id",
          "type": "uint256"
        },
        {
          "internalType": "address",
          "name": "token",
          "type": "address"
        },
        {
          "internalType": "address",
          "name": "user_id",
          "type": "address"
        }
      ],
      "name": "get_token_balance",
      "outputs": [
        {
          "internalType": "uint256",
          "name": "",
          "type": "uint256"
        }
      ],
      "stateMutability": "view",
      "type": "function"
    },
    {
      "inputs": [
        {
          "internalType": "uint256",
          "name": "index_id",
          "type": "uint256"
        }
      ],
      "name": "mint_Pool721",
      "outputs": [],
      "stateMutability": "nonpayable",
      "type": "function"
    },
    {
      "inputs": [
        {
          "internalType": "uint256",
          "name": "_index_id",
          "type": "uint256"
        }
      ],
      "name": "pay_creator_fee",
      "outputs": [],
      "stateMutability": "nonpayable",
      "type": "function"
    },
    {
      "inputs": [
        {
          "internalType": "uint256",
          "name": "_index_id",
          "type": "uint256"
        }
      ],
      "name": "pay_protocol_fee",
      "outputs": [],
      "stateMutability": "nonpayable",
      "type": "function"
    },
    {
      "inputs": [
        {
          "internalType": "uint256",
          "name": "_max_deposit",
          "type": "uint256"
        }
      ],
      "name": "set_max_deposit",
      "outputs": [],
      "stateMutability": "nonpayable",
      "type": "function"
    },
    {
      "inputs": [
        {
          "internalType": "uint256",
          "name": "_index_id",
          "type": "uint256"
        },
        {
          "internalType": "uint256",
          "name": "_sell_pct",
          "type": "uint256"
        },
        {
          "internalType": "address[][]",
          "name": "paths",
          "type": "address[][]"
        }
      ],
      "name": "withdraw",
      "outputs": [],
      "stateMutability": "nonpayable",
      "type": "function"
    },
    {
      "stateMutability": "payable",
      "type": "receive"
    }
  ],
  "bytecode": "0x6080604052670de0b6b3a764000060646200001b9190620001f4565b6004553480156200002b57600080fd5b5060405162008c7a38038062008c7a8339818101604052810190620000519190620001ad565b81600260006101000a81548173ffffffffffffffffffffffffffffffffffffffff021916908373ffffffffffffffffffffffffffffffffffffffff16021790555033600360006101000a81548173ffffffffffffffffffffffffffffffffffffffff021916908373ffffffffffffffffffffffffffffffffffffffff160217905550604051620000e19062000188565b604051809103906000f080158015620000fe573d6000803e3d6000fd5b50600560006101000a81548173ffffffffffffffffffffffffffffffffffffffff021916908373ffffffffffffffffffffffffffffffffffffffff16021790555080600160006101000a81548173ffffffffffffffffffffffffffffffffffffffff021916908373ffffffffffffffffffffffffffffffffffffffff1602179055505050620002e1565b6137ad80620054cd83390190565b600081519050620001a781620002c7565b92915050565b60008060408385031215620001c757620001c6620002c2565b5b6000620001d78582860162000196565b9250506020620001ea8582860162000196565b9150509250929050565b6000620002018262000289565b91506200020e8362000289565b9250817fffffffffffffffffffffffffffffffffffffffffffffffffffffffffffffffff04831182151516156200024a576200024962000293565b5b828202905092915050565b6000620002628262000269565b9050919050565b600073ffffffffffffffffffffffffffffffffffffffff82169050919050565b6000819050919050565b7f4e487b7100000000000000000000000000000000000000000000000000000000600052601160045260246000fd5b600080fd5b620002d28162000255565b8114620002de57600080fd5b50565b6151dc80620002f16000396000f3fe6080604052600436106101185760003560e01c80639a3f7d0a116100a0578063e820f19211610064578063e820f19214610419578063ea06f62d14610442578063ee19c3331461046b578063f839869f14610487578063fd341843146104b057610158565b80639a3f7d0a14610336578063bcae428f14610373578063e0a0dfa41461039e578063e0ae72d0146103c7578063e441c898146103f057610158565b80634962b2ea116100e75780634962b2ea1461021957806369c4f6a6146102565780636c95881b146102935780639461807c146102bc578063947ab140146102f957610158565b80630eac69f31461015d5780631de2aa4e146101885780632c61c558146101c5578063323aedc5146101ee57610158565b36610158577f88a5966d370b9919b20f3e2c13ff65706f196a4e32cc2c12bf57088f88525874333460405161014e9291906143b7565b60405180910390a1005b600080fd5b34801561016957600080fd5b506101726104d9565b60405161017f919061439c565b60405180910390f35b34801561019457600080fd5b506101af60048036038101906101aa9190613c6c565b610503565b6040516101bc9190614477565b60405180910390f35b3480156101d157600080fd5b506101ec60048036038101906101e79190613c6c565b610580565b005b3480156101fa57600080fd5b50610203610932565b6040516102109190614767565b60405180910390f35b34801561022557600080fd5b50610240600480360381019061023b9190613c6c565b61093e565b60405161024d9190614767565b60405180910390f35b34801561026257600080fd5b5061027d60048036038101906102789190613c6c565b6109b3565b60405161028a919061441e565b60405180910390f35b34801561029f57600080fd5b506102ba60048036038101906102b59190613c6c565b610a66565b005b3480156102c857600080fd5b506102e360048036038101906102de9190613c6c565b610c7a565b6040516102f09190614767565b60405180910390f35b34801561030557600080fd5b50610320600480360381019061031b9190613cc6565b610cef565b60405161032d9190614767565b60405180910390f35b34801561034257600080fd5b5061035d60048036038101906103589190613c6c565b610d99565b60405161036a9190614745565b60405180910390f35b34801561037f57600080fd5b50610388610fc1565b604051610395919061441e565b60405180910390f35b3480156103aa57600080fd5b506103c560048036038101906103c09190613c6c565b6110d2565b005b3480156103d357600080fd5b506103ee60048036038101906103e99190613dd1565b61116c565b005b3480156103fc57600080fd5b5061041760048036038101906104129190613b98565b61117b565b005b34801561042557600080fd5b50610440600480360381019061043b9190613c6c565b61174d565b005b34801561044e57600080fd5b5061046960048036038101906104649190613c6c565b611ae9565b005b61048560048036038101906104809190613d19565b611d20565b005b34801561049357600080fd5b506104ae60048036038101906104a99190613e11565b6125bc565b005b3480156104bc57600080fd5b506104d760048036038101906104d29190613afc565b612d1d565b005b6000600560009054906101000a900473ffffffffffffffffffffffffffffffffffffffff16905090565b60606000828154811061051957610518614c31565b5b906000526020600020906009020160010180548060200260200160405190810160405280929190818152602001828054801561057457602002820191906000526020600020905b815481526020019060010190808311610560575b50505050509050919050565b6000806000838154811061059757610596614c31565b5b906000526020600020906009020160020180548060200260200160405190810160405280929190818152602001828054801561062857602002820191906000526020600020905b8160009054906101000a900473ffffffffffffffffffffffffffffffffffffffff1673ffffffffffffffffffffffffffffffffffffffff16815260200190600101908083116105de575b505050505090506000815167ffffffffffffffff81111561064c5761064b614c60565b5b60405190808252806020026020018201604052801561067a5781602001602082028036833780820191505090505b50905060005b82518110156108795782818151811061069c5761069b614c31565b5b60200260200101519350600085815481106106ba576106b9614c31565b5b906000526020600020906009020160060160008573ffffffffffffffffffffffffffffffffffffffff1673ffffffffffffffffffffffffffffffffffffffff16815260200190815260200160002060003373ffffffffffffffffffffffffffffffffffffffff1673ffffffffffffffffffffffffffffffffffffffff1681526020019081526020016000205482828151811061075957610758614c31565b5b602002602001018181525050600082828151811061077a57610779614c31565b5b6020026020010151116107c2576040517f08c379a00000000000000000000000000000000000000000000000000000000081526004016107b990614645565b60405180910390fd5b60008086815481106107d7576107d6614c31565b5b906000526020600020906009020160060160008673ffffffffffffffffffffffffffffffffffffffff1673ffffffffffffffffffffffffffffffffffffffff16815260200190815260200160002060003373ffffffffffffffffffffffffffffffffffffffff1673ffffffffffffffffffffffffffffffffffffffff16815260200190815260200160002081905550808061087190614b60565b915050610680565b50600560009054906101000a900473ffffffffffffffffffffffffffffffffffffffff1673ffffffffffffffffffffffffffffffffffffffff1663065ad85d3386846040518463ffffffff1660e01b81526004016108d9939291906143e0565b602060405180830381600087803b1580156108f357600080fd5b505af1158015610907573d6000803e3d6000fd5b505050506040513d601f19601f8201168201806040525081019061092b9190613c99565b5050505050565b60008080549050905090565b60008060026000848154811061095757610956614c31565b5b9060005260206000209060090201600301546109739190614a09565b9050600080848154811061098a57610989614c31565b5b906000526020600020906009020160050154826109a79190614a94565b90508092505050919050565b6060600082815481106109c9576109c8614c31565b5b9060005260206000209060090201600201805480602002602001604051908101604052809291908181526020018280548015610a5a57602002820191906000526020600020905b8160009054906101000a900473ffffffffffffffffffffffffffffffffffffffff1673ffffffffffffffffffffffffffffffffffffffff1681526020019060010190808311610a10575b50505050509050919050565b600360009054906101000a900473ffffffffffffffffffffffffffffffffffffffff1673ffffffffffffffffffffffffffffffffffffffff163373ffffffffffffffffffffffffffffffffffffffff1614610af6576040517f08c379a0000000000000000000000000000000000000000000000000000000008152600401610aed90614705565b60405180910390fd5b6000600260008381548110610b0e57610b0d614c31565b5b906000526020600020906009020160030154610b2a9190614a09565b90506000808381548110610b4157610b40614c31565b5b90600052602060002090600902016005015482610b5e9190614a94565b905060008111610ba3576040517f08c379a0000000000000000000000000000000000000000000000000000000008152600401610b9a90614525565b60405180910390fd5b8060008481548110610bb857610bb7614c31565b5b90600052602060002090600902016005016000828254610bd891906149b3565b925050819055503373ffffffffffffffffffffffffffffffffffffffff166108fc829081150290604051600060405180830381858888f19350505050158015610c25573d6000803e3d6000fd5b50823373ffffffffffffffffffffffffffffffffffffffff167fd7c39042046e178bf5c53863d44af3eb1f4aa90c4bef146e91e69c6c7cd1189883604051610c6d9190614767565b60405180910390a3505050565b600080600260008481548110610c9357610c92614c31565b5b906000526020600020906009020160030154610caf9190614a09565b90506000808481548110610cc657610cc5614c31565b5b90600052602060002090600902016004015482610ce39190614a94565b90508092505050919050565b6000808481548110610d0457610d03614c31565b5b906000526020600020906009020160060160008473ffffffffffffffffffffffffffffffffffffffff1673ffffffffffffffffffffffffffffffffffffffff16815260200190815260200160002060008373ffffffffffffffffffffffffffffffffffffffff1673ffffffffffffffffffffffffffffffffffffffff1681526020019081526020016000205490509392505050565b610da1613690565b60006040518060c0016040528060008581548110610dc257610dc1614c31565b5b906000526020600020906009020160000160009054906101000a900473ffffffffffffffffffffffffffffffffffffffff1673ffffffffffffffffffffffffffffffffffffffff16815260200160008581548110610e2357610e22614c31565b5b9060005260206000209060090201600101805480602002602001604051908101604052809291908181526020018280548015610e7e57602002820191906000526020600020905b815481526020019060010190808311610e6a575b5050505050815260200160008581548110610e9c57610e9b614c31565b5b9060005260206000209060090201600201805480602002602001604051908101604052809291908181526020018280548015610f2d57602002820191906000526020600020905b8160009054906101000a900473ffffffffffffffffffffffffffffffffffffffff1673ffffffffffffffffffffffffffffffffffffffff1681526020019060010190808311610ee3575b5050505050815260200160008581548110610f4b57610f4a614c31565b5b906000526020600020906009020160030154815260200160008581548110610f7657610f75614c31565b5b906000526020600020906009020160040154815260200160008581548110610fa157610fa0614c31565b5b906000526020600020906009020160050154815250905080915050919050565b60606000808054905067ffffffffffffffff811115610fe357610fe2614c60565b5b6040519080825280602002602001820160405280156110115781602001602082028036833780820191505090505b50905060005b6000805490508110156110ca576000818154811061103857611037614c31565b5b906000526020600020906009020160000160009054906101000a900473ffffffffffffffffffffffffffffffffffffffff1682828151811061107d5761107c614c31565b5b602002602001019073ffffffffffffffffffffffffffffffffffffffff16908173ffffffffffffffffffffffffffffffffffffffff168152505080806110c290614b60565b915050611017565b508091505090565b600360009054906101000a900473ffffffffffffffffffffffffffffffffffffffff1673ffffffffffffffffffffffffffffffffffffffff163373ffffffffffffffffffffffffffffffffffffffff1614611162576040517f08c379a000000000000000000000000000000000000000000000000000000000815260040161115990614705565b60405180910390fd5b8060048190555050565b611177338383612dbd565b5050565b81518351146111bf576040517f08c379a00000000000000000000000000000000000000000000000000000000081526004016111b690614725565b60405180910390fd5b602082511115611204576040517f08c379a00000000000000000000000000000000000000000000000000000000081526004016111fb90614545565b60405180910390fd5b61120d8261333a565b61124c576040517f08c379a000000000000000000000000000000000000000000000000000000000815260040161124390614605565b60405180910390fd5b606060008060005b86518160ff16101561162757848160ff168151811061127657611275614c31565b5b602002602001015193506000845167ffffffffffffffff81111561129d5761129c614c60565b5b6040519080825280602002602001820160405280156112cb5781602001602082028036833780820191505090505b509050868260ff16815181106112e4576112e3614c31565b5b602002602001015193508373ffffffffffffffffffffffffffffffffffffffff16600073ffffffffffffffffffffffffffffffffffffffff1614611613578460008151811061133657611335614c31565b5b602002602001015173ffffffffffffffffffffffffffffffffffffffff168473ffffffffffffffffffffffffffffffffffffffff16146113ab576040517f08c379a00000000000000000000000000000000000000000000000000000000081526004016113a2906145e5565b60405180910390fd5b600260009054906101000a900473ffffffffffffffffffffffffffffffffffffffff1673ffffffffffffffffffffffffffffffffffffffff1663d06ca61f898460ff16815181106113ff576113fe614c31565b5b6020026020010151876040518363ffffffff1660e01b8152600401611425929190614782565b60006040518083038186803b15801561143d57600080fd5b505afa158015611451573d6000803e3d6000fd5b505050506040513d6000823e3d601f19601f8201168201806040525081019061147a9190613b4f565b60018151811061148d5761148c614c31565b5b60200260200101519250620186a083116114dc576040517f08c379a00000000000000000000000000000000000000000000000000000000081526004016114d390614685565b60405180910390fd5b60005b85518160ff16101561158457858160ff168151811061150157611500614c31565b5b6020026020010151828260ff166001895161151c9190614a94565b6115269190614a94565b8151811061153757611536614c31565b5b602002602001019073ffffffffffffffffffffffffffffffffffffffff16908173ffffffffffffffffffffffffffffffffffffffff1681525050808061157c90614ba9565b9150506114df565b50600160009054906101000a900473ffffffffffffffffffffffffffffffffffffffff1673ffffffffffffffffffffffffffffffffffffffff16639dbc2686826040518263ffffffff1660e01b81526004016115e0919061441e565b600060405180830381600087803b1580156115fa57600080fd5b505af115801561160e573d6000803e3d6000fd5b505050505b50808061161f90614ba9565b915050611254565b506000806001816001815401808255809150500390600052602060002090600902019050868160010190805190602001906116639291906136dc565b50338160000160006101000a81548173ffffffffffffffffffffffffffffffffffffffff021916908373ffffffffffffffffffffffffffffffffffffffff160217905550858160020190805190602001906116bf929190613729565b50600360009054906101000a900473ffffffffffffffffffffffffffffffffffffffff1673ffffffffffffffffffffffffffffffffffffffff16600160008054905061170b9190614a94565b7f05bf81b22f4b3bdfdf9e76f73fc5342a7eaa0fba7e15b2e9aa99f9bd462d74ba888a60405161173c929190614440565b60405180910390a350505050505050565b600060603373ffffffffffffffffffffffffffffffffffffffff16600560009054906101000a900473ffffffffffffffffffffffffffffffffffffffff1673ffffffffffffffffffffffffffffffffffffffff16636352211e856040518263ffffffff1660e01b81526004016117c39190614767565b60206040518083038186803b1580156117db57600080fd5b505afa1580156117ef573d6000803e3d6000fd5b505050506040513d601f19601f820116820180604052508101906118139190613acf565b73ffffffffffffffffffffffffffffffffffffffff1614611869576040517f08c379a000000000000000000000000000000000000000000000000000000000815260040161186090614565565b60405180910390fd5b600560009054906101000a900473ffffffffffffffffffffffffffffffffffffffff1673ffffffffffffffffffffffffffffffffffffffff16636de6da20846040518263ffffffff1660e01b81526004016118c49190614767565b600060405180830381600087803b1580156118de57600080fd5b505af11580156118f2573d6000803e3d6000fd5b505050506040513d6000823e3d601f19601f8201168201806040525081019061191b9190613d75565b8092508193505050600080838154811061193857611937614c31565b5b90600052602060002090600902016002018054806020026020016040519081016040528092919081815260200182805480156119c957602002820191906000526020600020905b8160009054906101000a900473ffffffffffffffffffffffffffffffffffffffff1673ffffffffffffffffffffffffffffffffffffffff168152602001906001019080831161197f575b50505050509050600080600090505b8251811015611ae1578281815181106119f4576119f3614c31565b5b60200260200101519150838181518110611a1157611a10614c31565b5b602002602001015160008681548110611a2d57611a2c614c31565b5b906000526020600020906009020160060160008473ffffffffffffffffffffffffffffffffffffffff1673ffffffffffffffffffffffffffffffffffffffff16815260200190815260200160002060003373ffffffffffffffffffffffffffffffffffffffff1673ffffffffffffffffffffffffffffffffffffffff1681526020019081526020016000206000828254611ac791906149b3565b925050819055508080611ad990614b60565b9150506119d8565b505050505050565b60008181548110611afd57611afc614c31565b5b906000526020600020906009020160000160009054906101000a900473ffffffffffffffffffffffffffffffffffffffff1673ffffffffffffffffffffffffffffffffffffffff163373ffffffffffffffffffffffffffffffffffffffff1614611b9c576040517f08c379a0000000000000000000000000000000000000000000000000000000008152600401611b93906145a5565b60405180910390fd5b6000600260008381548110611bb457611bb3614c31565b5b906000526020600020906009020160030154611bd09190614a09565b90506000808381548110611be757611be6614c31565b5b90600052602060002090600902016004015482611c049190614a94565b905060008111611c49576040517f08c379a0000000000000000000000000000000000000000000000000000000008152600401611c4090614525565b60405180910390fd5b8060008481548110611c5e57611c5d614c31565b5b90600052602060002090600902016004016000828254611c7e91906149b3565b925050819055503373ffffffffffffffffffffffffffffffffffffffff166108fc829081150290604051600060405180830381858888f19350505050158015611ccb573d6000803e3d6000fd5b50823373ffffffffffffffffffffffffffffffffffffffff167fd7c39042046e178bf5c53863d44af3eb1f4aa90c4bef146e91e69c6c7cd1189883604051611d139190614767565b60405180910390a3505050565b600454341115611d65576040517f08c379a0000000000000000000000000000000000000000000000000000000008152600401611d5c906144e5565b60405180910390fd5b6103e8670de0b6b3a7640000611d7b9190614a09565b3411611dbc576040517f08c379a0000000000000000000000000000000000000000000000000000000008152600401611db3906145c5565b60405180910390fd5b6000808381548110611dd157611dd0614c31565b5b9060005260206000209060090201600201805480602002602001604051908101604052809291908181526020018280548015611e6257602002820191906000526020600020905b8160009054906101000a900473ffffffffffffffffffffffffffffffffffffffff1673ffffffffffffffffffffffffffffffffffffffff1681526020019060010190808311611e18575b505050505090506000808481548110611e7e57611e7d614c31565b5b9060005260206000209060090201600101805480602002602001604051908101604052809291908181526020018280548015611ed957602002820191906000526020600020905b815481526020019060010190808311611ec5575b505050505090506000825167ffffffffffffffff811115611efd57611efc614c60565b5b604051908082528060200260200182016040528015611f2b5781602001602082028036833780820191505090505b509050600060608060006101f434611f439190614a09565b90508060008a81548110611f5a57611f59614c31565b5b90600052602060002090600902016003016000828254611f7a91906149b3565b9250508190555060008134611f8f9190614a94565b90506000805b88518160ff16101561236b578a8160ff1681518110611fb757611fb6614c31565b5b602002602001015195508560018751611fd09190614a94565b81518110611fe157611fe0614c31565b5b602002602001015173ffffffffffffffffffffffffffffffffffffffff168a8260ff168151811061201557612014614c31565b5b602002602001015173ffffffffffffffffffffffffffffffffffffffff1614612073576040517f08c379a000000000000000000000000000000000000000000000000000000000815260040161206a906145e5565b60405180910390fd5b898160ff168151811061208957612088614c31565b5b602002602001015173ffffffffffffffffffffffffffffffffffffffff16600073ffffffffffffffffffffffffffffffffffffffff1614156120ea57888160ff16815181106120db576120da614c31565b5b60200260200101519650612327565b600160009054906101000a900473ffffffffffffffffffffffffffffffffffffffff1673ffffffffffffffffffffffffffffffffffffffff16639dbc2686876040518263ffffffff1660e01b8152600401612145919061441e565b600060405180830381600087803b15801561215f57600080fd5b505af1158015612173573d6000803e3d6000fd5b50505050600160009054906101000a900473ffffffffffffffffffffffffffffffffffffffff1673ffffffffffffffffffffffffffffffffffffffff16632f4e937c876040518263ffffffff1660e01b81526004016121d2919061441e565b60206040518083038186803b1580156121ea57600080fd5b505afa1580156121fe573d6000803e3d6000fd5b505050506040513d601f19601f820116820180604052508101906122229190613c99565b9650600087141561232657600260009054906101000a900473ffffffffffffffffffffffffffffffffffffffff1673ffffffffffffffffffffffffffffffffffffffff1663d06ca61f8a8360ff168151811061228157612280614c31565b5b6020026020010151886040518363ffffffff1660e01b81526004016122a7929190614782565b60006040518083038186803b1580156122bf57600080fd5b505afa1580156122d3573d6000803e3d6000fd5b505050506040513d6000823e3d601f19601f820116820180604052508101906122fc9190613b4f565b6001875161230a9190614a94565b8151811061231b5761231a614c31565b5b602002602001015196505b5b86888260ff168151811061233e5761233d614c31565b5b602002602001018181525050868261235691906149b3565b9150808061236390614ba9565b915050611f95565b506000818361237a9190614a09565b905060008060008e8154811061239357612392614c31565b5b9060005260206000209060090201905060005b8c518160ff16101561255c5760008d8260ff16815181106123ca576123c9614c31565b5b602002602001015190506000858d8460ff16815181106123ed576123ec614c31565b5b60200260200101516123ff9190614a3a565b90508f8360ff168151811061241757612416614c31565b5b60200260200101519a508e8360ff168151811061243757612436614c31565b5b602002602001015173ffffffffffffffffffffffffffffffffffffffff16600073ffffffffffffffffffffffffffffffffffffffff16146124ae5761247d82828d6133fb565b99508960018b5161248e9190614a94565b8151811061249f5761249e614c31565b5b602002602001015194506124b2565b8094505b848460060160008473ffffffffffffffffffffffffffffffffffffffff1673ffffffffffffffffffffffffffffffffffffffff16815260200190815260200160002060003373ffffffffffffffffffffffffffffffffffffffff1673ffffffffffffffffffffffffffffffffffffffff168152602001908152602001600020600082825461254091906149b3565b925050819055505050808061255490614ba9565b9150506123a6565b508d3373ffffffffffffffffffffffffffffffffffffffff167f52806e4a6fa1ba91e523dcd2c8ea0c196b3d9996ae1c46a5f71899b114afa789346040516125a49190614767565b60405180910390a35050505050505050505050505050565b6000606060008086815481106125d5576125d4614c31565b5b906000526020600020906009020160020180548060200260200160405190810160405280929190818152602001828054801561266657602002820191906000526020600020905b8160009054906101000a900473ffffffffffffffffffffffffffffffffffffffff1673ffffffffffffffffffffffffffffffffffffffff168152602001906001019080831161261c575b505050505090506060600086116126b2576040517f08c379a00000000000000000000000000000000000000000000000000000000081526004016126a9906146a5565b60405180910390fd5b60008088815481106126c7576126c6614c31565b5b90600052602060002090600902016006016000846000815181106126ee576126ed614c31565b5b602002602001015173ffffffffffffffffffffffffffffffffffffffff1673ffffffffffffffffffffffffffffffffffffffff16815260200190815260200160002060003373ffffffffffffffffffffffffffffffffffffffff1673ffffffffffffffffffffffffffffffffffffffff16815260200190815260200160002054116127ae576040517f08c379a00000000000000000000000000000000000000000000000000000000081526004016127a590614585565b60405180910390fd5b6103e88611156127f3576040517f08c379a00000000000000000000000000000000000000000000000000000000081526004016127ea90614505565b60405180910390fd5b6000878154811061280757612806614c31565b5b906000526020600020906009020160020180549050600088815481106128305761282f614c31565b5b906000526020600020906009020160080160003373ffffffffffffffffffffffffffffffffffffffff1673ffffffffffffffffffffffffffffffffffffffff168152602001908152602001600020600082825461288d91906149b3565b9250508190555060005b8251811015612c7b5760008382815181106128b5576128b4614c31565b5b6020026020010151905060006103e88960008c815481106128d9576128d8614c31565b5b906000526020600020906009020160060160008573ffffffffffffffffffffffffffffffffffffffff1673ffffffffffffffffffffffffffffffffffffffff16815260200190815260200160002060003373ffffffffffffffffffffffffffffffffffffffff1673ffffffffffffffffffffffffffffffffffffffff1681526020019081526020016000205461296f9190614a3a565b6129799190614a09565b905087838151811061298e5761298d614c31565b5b602002602001015195508483815181106129ab576129aa614c31565b5b602002602001015173ffffffffffffffffffffffffffffffffffffffff16600073ffffffffffffffffffffffffffffffffffffffff1614612ba157856000815181106129fa576129f9614c31565b5b602002602001015173ffffffffffffffffffffffffffffffffffffffff16858481518110612a2b57612a2a614c31565b5b602002602001015173ffffffffffffffffffffffffffffffffffffffff1614612a89576040517f08c379a0000000000000000000000000000000000000000000000000000000008152600401612a80906145e5565b60405180910390fd5b612a948282886134ce565b935083600081518110612aaa57612aa9614c31565b5b602002602001015160008b81548110612ac657612ac5614c31565b5b906000526020600020906009020160060160008473ffffffffffffffffffffffffffffffffffffffff1673ffffffffffffffffffffffffffffffffffffffff16815260200190815260200160002060003373ffffffffffffffffffffffffffffffffffffffff1673ffffffffffffffffffffffffffffffffffffffff1681526020019081526020016000206000828254612b609190614a94565b925050819055508360018551612b769190614a94565b81518110612b8757612b86614c31565b5b602002602001015187612b9a91906149b3565b9650612c66565b8060008b81548110612bb657612bb5614c31565b5b906000526020600020906009020160060160008473ffffffffffffffffffffffffffffffffffffffff1673ffffffffffffffffffffffffffffffffffffffff16815260200190815260200160002060003373ffffffffffffffffffffffffffffffffffffffff1673ffffffffffffffffffffffffffffffffffffffff1681526020019081526020016000206000828254612c509190614a94565b925050819055508087612c6391906149b3565b96505b50508080612c7390614b60565b915050612897565b503373ffffffffffffffffffffffffffffffffffffffff166108fc859081150290604051600060405180830381858888f19350505050158015612cc2573d6000803e3d6000fd5b50863373ffffffffffffffffffffffffffffffffffffffff167f98ec4469031da18493bc7fe353f53fde44885dce6e9d12fb8050cd648c3582278887604051612d0c92919061483c565b60405180910390a350505050505050565b600360009054906101000a900473ffffffffffffffffffffffffffffffffffffffff1673ffffffffffffffffffffffffffffffffffffffff163373ffffffffffffffffffffffffffffffffffffffff1614612dad576040517f08c379a0000000000000000000000000000000000000000000000000000000008152600401612da490614705565b60405180910390fd5b612db8838383612dbd565b505050565b60006060600080600090505b60008681548110612ddd57612ddc614c31565b5b9060005260206000209060090201600201805490508110156132e05760008681548110612e0d57612e0c614c31565b5b90600052602060002090600902016002018181548110612e3057612e2f614c31565b5b9060005260206000200160009054906101000a900473ffffffffffffffffffffffffffffffffffffffff1691506103e88560008881548110612e7557612e74614c31565b5b906000526020600020906009020160060160008573ffffffffffffffffffffffffffffffffffffffff1673ffffffffffffffffffffffffffffffffffffffff16815260200190815260200160002060008a73ffffffffffffffffffffffffffffffffffffffff1673ffffffffffffffffffffffffffffffffffffffff16815260200190815260200160002054612f0b9190614a3a565b612f159190614a09565b93508360008781548110612f2c57612f2b614c31565b5b906000526020600020906009020160060160008473ffffffffffffffffffffffffffffffffffffffff1673ffffffffffffffffffffffffffffffffffffffff16815260200190815260200160002060008973ffffffffffffffffffffffffffffffffffffffff1673ffffffffffffffffffffffffffffffffffffffff168152602001908152602001600020541015612ff9576040517f08c379a0000000000000000000000000000000000000000000000000000000008152600401612ff0906146e5565b60405180910390fd5b836000878154811061300e5761300d614c31565b5b906000526020600020906009020160060160008473ffffffffffffffffffffffffffffffffffffffff1673ffffffffffffffffffffffffffffffffffffffff16815260200190815260200160002060008973ffffffffffffffffffffffffffffffffffffffff1673ffffffffffffffffffffffffffffffffffffffff16815260200190815260200160002060008282546130a89190614a94565b92505081905550600084116130f2576040517f08c379a00000000000000000000000000000000000000000000000000000000081526004016130e990614625565b60405180910390fd5b8173ffffffffffffffffffffffffffffffffffffffff16600073ffffffffffffffffffffffffffffffffffffffff1614613285578173ffffffffffffffffffffffffffffffffffffffff1663095ea7b388866040518363ffffffff1660e01b81526004016131619291906143b7565b602060405180830381600087803b15801561317b57600080fd5b505af115801561318f573d6000803e3d6000fd5b505050506040513d601f19601f820116820180604052508101906131b39190613c3f565b6131f2576040517f08c379a00000000000000000000000000000000000000000000000000000000081526004016131e990614665565b60405180910390fd5b8173ffffffffffffffffffffffffffffffffffffffff1663a9059cbb88866040518363ffffffff1660e01b815260040161322d9291906143b7565b602060405180830381600087803b15801561324757600080fd5b505af115801561325b573d6000803e3d6000fd5b505050506040513d601f19601f8201168201806040525081019061327f9190613c3f565b506132cd565b8673ffffffffffffffffffffffffffffffffffffffff166108fc859081150290604051600060405180830381858888f193505050501580156132cb573d6000803e3d6000fd5b505b80806132d890614b60565b915050612dc9565b50848673ffffffffffffffffffffffffffffffffffffffff167f6127896727aadcd04278eaec4035756ecba5387e2b320940abe30a02e5b9a9cf868560405161332a9291906147b2565b60405180910390a3505050505050565b600080600190505b82518110156133f05760005b818110156133dc5783818151811061336957613368614c31565b5b602002602001015173ffffffffffffffffffffffffffffffffffffffff1684838151811061339a57613399614c31565b5b602002602001015173ffffffffffffffffffffffffffffffffffffffff1614156133c9576000925050506133f6565b80806133d490614b60565b91505061334e565b5080806133e890614b60565b915050613342565b50600190505b919050565b6060600260009054906101000a900473ffffffffffffffffffffffffffffffffffffffff1673ffffffffffffffffffffffffffffffffffffffff16637ff36ab58460018530620186a04261344f91906149b3565b6040518663ffffffff1660e01b815260040161346e9493929190614499565b6000604051808303818588803b15801561348757600080fd5b505af115801561349b573d6000803e3d6000fd5b50505050506040513d6000823e3d601f19601f820116820180604052508101906134c59190613b4f565b90509392505050565b60608373ffffffffffffffffffffffffffffffffffffffff1663095ea7b3600260009054906101000a900473ffffffffffffffffffffffffffffffffffffffff16856040518363ffffffff1660e01b815260040161352d9291906143b7565b602060405180830381600087803b15801561354757600080fd5b505af115801561355b573d6000803e3d6000fd5b505050506040513d601f19601f8201168201806040525081019061357f9190613c3f565b6135be576040517f08c379a00000000000000000000000000000000000000000000000000000000081526004016135b5906146c5565b60405180910390fd5b600260009054906101000a900473ffffffffffffffffffffffffffffffffffffffff1673ffffffffffffffffffffffffffffffffffffffff166318cbafe58460018530620186a04261361091906149b3565b6040518663ffffffff1660e01b81526004016136309594939291906147e2565b600060405180830381600087803b15801561364a57600080fd5b505af115801561365e573d6000803e3d6000fd5b505050506040513d6000823e3d601f19601f820116820180604052508101906136879190613b4f565b90509392505050565b6040518060c00160405280600073ffffffffffffffffffffffffffffffffffffffff16815260200160608152602001606081526020016000815260200160008152602001600081525090565b828054828255906000526020600020908101928215613718579160200282015b828111156137175782518255916020019190600101906136fc565b5b50905061372591906137b3565b5090565b8280548282559060005260206000209081019282156137a2579160200282015b828111156137a15782518260006101000a81548173ffffffffffffffffffffffffffffffffffffffff021916908373ffffffffffffffffffffffffffffffffffffffff16021790555091602001919060010190613749565b5b5090506137af91906137b3565b5090565b5b808211156137cc5760008160009055506001016137b4565b5090565b60006137e36137de8461488a565b614865565b9050808382526020820190508285602086028201111561380657613805614c94565b5b60005b85811015613836578161381c88826139ae565b845260208401935060208301925050600181019050613809565b5050509392505050565b600061385361384e846148b6565b614865565b9050808382526020820190508285602086028201111561387657613875614c94565b5b60005b858110156138c457813567ffffffffffffffff81111561389c5761389b614c8f565b5b8086016138a989826139d8565b85526020850194506020840193505050600181019050613879565b5050509392505050565b60006138e16138dc846148e2565b614865565b9050808382526020820190508285602086028201111561390457613903614c94565b5b60005b85811015613934578161391a8882613aa5565b845260208401935060208301925050600181019050613907565b5050509392505050565b600061395161394c846148e2565b614865565b9050808382526020820190508285602086028201111561397457613973614c94565b5b60005b858110156139a4578161398a8882613aba565b845260208401935060208301925050600181019050613977565b5050509392505050565b6000813590506139bd81615161565b92915050565b6000815190506139d281615161565b92915050565b600082601f8301126139ed576139ec614c8f565b5b81356139fd8482602086016137d0565b91505092915050565b600082601f830112613a1b57613a1a614c8f565b5b8135613a2b848260208601613840565b91505092915050565b600082601f830112613a4957613a48614c8f565b5b8135613a598482602086016138ce565b91505092915050565b600082601f830112613a7757613a76614c8f565b5b8151613a8784826020860161393e565b91505092915050565b600081519050613a9f81615178565b92915050565b600081359050613ab48161518f565b92915050565b600081519050613ac98161518f565b92915050565b600060208284031215613ae557613ae4614c9e565b5b6000613af3848285016139c3565b91505092915050565b600080600060608486031215613b1557613b14614c9e565b5b6000613b23868287016139ae565b9350506020613b3486828701613aa5565b9250506040613b4586828701613aa5565b9150509250925092565b600060208284031215613b6557613b64614c9e565b5b600082015167ffffffffffffffff811115613b8357613b82614c99565b5b613b8f84828501613a62565b91505092915050565b600080600060608486031215613bb157613bb0614c9e565b5b600084013567ffffffffffffffff811115613bcf57613bce614c99565b5b613bdb86828701613a34565b935050602084013567ffffffffffffffff811115613bfc57613bfb614c99565b5b613c08868287016139d8565b925050604084013567ffffffffffffffff811115613c2957613c28614c99565b5b613c3586828701613a06565b9150509250925092565b600060208284031215613c5557613c54614c9e565b5b6000613c6384828501613a90565b91505092915050565b600060208284031215613c8257613c81614c9e565b5b6000613c9084828501613aa5565b91505092915050565b600060208284031215613caf57613cae614c9e565b5b6000613cbd84828501613aba565b91505092915050565b600080600060608486031215613cdf57613cde614c9e565b5b6000613ced86828701613aa5565b9350506020613cfe868287016139ae565b9250506040613d0f868287016139ae565b9150509250925092565b60008060408385031215613d3057613d2f614c9e565b5b6000613d3e85828601613aa5565b925050602083013567ffffffffffffffff811115613d5f57613d5e614c99565b5b613d6b85828601613a06565b9150509250929050565b60008060408385031215613d8c57613d8b614c9e565b5b6000613d9a85828601613aba565b925050602083015167ffffffffffffffff811115613dbb57613dba614c99565b5b613dc785828601613a62565b9150509250929050565b60008060408385031215613de857613de7614c9e565b5b6000613df685828601613aa5565b9250506020613e0785828601613aa5565b9150509250929050565b600080600060608486031215613e2a57613e29614c9e565b5b6000613e3886828701613aa5565b9350506020613e4986828701613aa5565b925050604084013567ffffffffffffffff811115613e6a57613e69614c99565b5b613e7686828701613a06565b9150509250925092565b6000613e8c8383613eb0565b60208301905092915050565b6000613ea4838361437e565b60208301905092915050565b613eb981614ac8565b82525050565b613ec881614ac8565b82525050565b6000613ed98261492e565b613ee3818561495e565b9350613eee8361490e565b8060005b83811015613f1f578151613f068882613e80565b9750613f1183614944565b925050600181019050613ef2565b5085935050505092915050565b6000613f378261492e565b613f41818561496f565b9350613f4c8361490e565b8060005b83811015613f7d578151613f648882613e80565b9750613f6f83614944565b925050600181019050613f50565b5085935050505092915050565b6000613f9582614939565b613f9f8185614980565b9350613faa8361491e565b8060005b83811015613fdb578151613fc28882613e98565b9750613fcd83614951565b925050600181019050613fae565b5085935050505092915050565b6000613ff382614939565b613ffd8185614991565b93506140088361491e565b8060005b838110156140395781516140208882613e98565b975061402b83614951565b92505060018101905061400c565b5085935050505092915050565b61404f81614b1d565b82525050565b60006140626026836149a2565b915061406d82614cb4565b604082019050919050565b60006140856022836149a2565b915061409082614d03565b604082019050919050565b60006140a86012836149a2565b91506140b382614d52565b602082019050919050565b60006140cb6030836149a2565b91506140d682614d7b565b604082019050919050565b60006140ee601c836149a2565b91506140f982614dca565b602082019050919050565b60006141116021836149a2565b915061411c82614df3565b604082019050919050565b60006141346024836149a2565b915061413f82614e42565b604082019050919050565b6000614157601e836149a2565b915061416282614e91565b602082019050919050565b600061417a602a836149a2565b915061418582614eba565b604082019050919050565b600061419d6011836149a2565b91506141a882614f09565b602082019050919050565b60006141c0601f836149a2565b91506141cb82614f32565b602082019050919050565b60006141e36010836149a2565b91506141ee82614f5b565b602082019050919050565b60006142066014836149a2565b915061421182614f84565b602082019050919050565b6000614229604e836149a2565b915061423482614fad565b606082019050919050565b600061424c6026836149a2565b915061425782615022565b604082019050919050565b600061426f600f836149a2565b915061427a82615071565b602082019050919050565b60006142926012836149a2565b915061429d8261509a565b602082019050919050565b60006142b56025836149a2565b91506142c0826150c3565b604082019050919050565b60006142d86030836149a2565b91506142e382615112565b604082019050919050565b600060c0830160008301516143066000860182613eb0565b506020830151848203602086015261431e8282613f8a565b915050604083015184820360408601526143388282613ece565b915050606083015161434d606086018261437e565b506080830151614360608086018261437e565b5060a083015161437360a086018261437e565b508091505092915050565b61438781614b06565b82525050565b61439681614b06565b82525050565b60006020820190506143b16000830184613ebf565b92915050565b60006040820190506143cc6000830185613ebf565b6143d9602083018461438d565b9392505050565b60006060820190506143f56000830186613ebf565b614402602083018561438d565b81810360408301526144148184613fe8565b9050949350505050565b600060208201905081810360008301526144388184613f2c565b905092915050565b6000604082019050818103600083015261445a8185613f2c565b9050818103602083015261446e8184613fe8565b90509392505050565b600060208201905081810360008301526144918184613fe8565b905092915050565b60006080820190506144ae6000830187614046565b81810360208301526144c08186613f2c565b90506144cf6040830185613ebf565b6144dc606083018461438d565b95945050505050565b600060208201905081810360008301526144fe81614055565b9050919050565b6000602082019050818103600083015261451e81614078565b9050919050565b6000602082019050818103600083015261453e8161409b565b9050919050565b6000602082019050818103600083015261455e816140be565b9050919050565b6000602082019050818103600083015261457e816140e1565b9050919050565b6000602082019050818103600083015261459e81614104565b9050919050565b600060208201905081810360008301526145be81614127565b9050919050565b600060208201905081810360008301526145de8161414a565b9050919050565b600060208201905081810360008301526145fe8161416d565b9050919050565b6000602082019050818103600083015261461e81614190565b9050919050565b6000602082019050818103600083015261463e816141b3565b9050919050565b6000602082019050818103600083015261465e816141d6565b9050919050565b6000602082019050818103600083015261467e816141f9565b9050919050565b6000602082019050818103600083015261469e8161421c565b9050919050565b600060208201905081810360008301526146be8161423f565b9050919050565b600060208201905081810360008301526146de81614262565b9050919050565b600060208201905081810360008301526146fe81614285565b9050919050565b6000602082019050818103600083015261471e816142a8565b9050919050565b6000602082019050818103600083015261473e816142cb565b9050919050565b6000602082019050818103600083015261475f81846142ee565b905092915050565b600060208201905061477c600083018461438d565b92915050565b6000604082019050614797600083018561438d565b81810360208301526147a98184613f2c565b90509392505050565b60006040820190506147c7600083018561438d565b81810360208301526147d98184613fe8565b90509392505050565b600060a0820190506147f7600083018861438d565b6148046020830187614046565b81810360408301526148168186613f2c565b90506148256060830185613ebf565b614832608083018461438d565b9695505050505050565b6000604082019050614851600083018561438d565b61485e602083018461438d565b9392505050565b600061486f614880565b905061487b8282614b2f565b919050565b6000604051905090565b600067ffffffffffffffff8211156148a5576148a4614c60565b5b602082029050602081019050919050565b600067ffffffffffffffff8211156148d1576148d0614c60565b5b602082029050602081019050919050565b600067ffffffffffffffff8211156148fd576148fc614c60565b5b602082029050602081019050919050565b6000819050602082019050919050565b6000819050602082019050919050565b600081519050919050565b600081519050919050565b6000602082019050919050565b6000602082019050919050565b600082825260208201905092915050565b600082825260208201905092915050565b600082825260208201905092915050565b600082825260208201905092915050565b600082825260208201905092915050565b60006149be82614b06565b91506149c983614b06565b9250827fffffffffffffffffffffffffffffffffffffffffffffffffffffffffffffffff038211156149fe576149fd614bd3565b5b828201905092915050565b6000614a1482614b06565b9150614a1f83614b06565b925082614a2f57614a2e614c02565b5b828204905092915050565b6000614a4582614b06565b9150614a5083614b06565b9250817fffffffffffffffffffffffffffffffffffffffffffffffffffffffffffffffff0483118215151615614a8957614a88614bd3565b5b828202905092915050565b6000614a9f82614b06565b9150614aaa83614b06565b925082821015614abd57614abc614bd3565b5b828203905092915050565b6000614ad382614ae6565b9050919050565b60008115159050919050565b600073ffffffffffffffffffffffffffffffffffffffff82169050919050565b6000819050919050565b600060ff82169050919050565b6000614b2882614b06565b9050919050565b614b3882614ca3565b810181811067ffffffffffffffff82111715614b5757614b56614c60565b5b80604052505050565b6000614b6b82614b06565b91507fffffffffffffffffffffffffffffffffffffffffffffffffffffffffffffffff821415614b9e57614b9d614bd3565b5b600182019050919050565b6000614bb482614b10565b915060ff821415614bc857614bc7614bd3565b5b600182019050919050565b7f4e487b7100000000000000000000000000000000000000000000000000000000600052601160045260246000fd5b7f4e487b7100000000000000000000000000000000000000000000000000000000600052601260045260246000fd5b7f4e487b7100000000000000000000000000000000000000000000000000000000600052603260045260246000fd5b7f4e487b7100000000000000000000000000000000000000000000000000000000600052604160045260246000fd5b600080fd5b600080fd5b600080fd5b600080fd5b6000601f19601f8301169050919050565b7f4558434545444544204d4158494d554d20414c4c4f574544204445504f53495460008201527f2056414c55450000000000000000000000000000000000000000000000000000602082015250565b7f43414e27542053454c4c204d4f5245205448414e2031303025204f462046554e60008201527f4453000000000000000000000000000000000000000000000000000000000000602082015250565b7f4e4f2046454520544f2057495448445241570000000000000000000000000000600082015250565b7f4e4f204d4f5245205448414e20333220544f4b454e5320414c4c4f574544204960008201527f4e20412053494e474c4520494e44455800000000000000000000000000000000602082015250565b7f4f4e4c592043414c4c41424c4520425920544f4b454e204f574e455200000000600082015250565b7f4e4545445320544f204841564520534841524553204f462054484520494e444560008201527f5800000000000000000000000000000000000000000000000000000000000000602082015250565b7f4f4e4c5920494e4445582043524541544f522043414e2057495448445241572060008201527f4645455300000000000000000000000000000000000000000000000000000000602082015250565b7f4d494e494d554d204445504f534954204f4620302e303031204d415449430000600082015250565b7f57524f4e4720504154483a20544f4b454e204e4545445320544f20424520504160008201527f5254204f46205041544800000000000000000000000000000000000000000000602082015250565b7f4455504c49434154454420544f4b454e53000000000000000000000000000000600082015250565b7f414d4f554e5420544f2043415348204f555420495320544f4f20534d414c4c00600082015250565b7f4e4f5420454e4f5547482046554e445300000000000000000000000000000000600082015250565b7f455243323020415050524f5645204641494c4544000000000000000000000000600082015250565b7f414c4c4f434154494f4e20414d4f554e5420495320544f4f20534d414c4c2c2060008201527f4e4545445320544f204245204154204c45415354204551554956414c454e542060208201527f544f203130302c30303020574549000000000000000000000000000000000000604082015250565b7f53454c4c20504354204e4545445320544f20424520475245415445522054484160008201527f4e205a45524f0000000000000000000000000000000000000000000000000000602082015250565b7f617070726f7665206661696c65642e0000000000000000000000000000000000600082015250565b7f494e53554646494349454e542046554e44530000000000000000000000000000600082015250565b7f4f4e4c5920494e444558504f4f4c2043414e2043414c4c20544849532046554e60008201527f4354494f4e000000000000000000000000000000000000000000000000000000602082015250565b7f4d49534d4154434820494e204c454e475448204245545745454e20544f4b454e60008201527f5320414e4420414c4c4f434154494f4e00000000000000000000000000000000602082015250565b61516a81614ac8565b811461517557600080fd5b50565b61518181614ada565b811461518c57600080fd5b50565b61519881614b06565b81146151a357600080fd5b5056fea2646970667358221220a53de659f9d7ccb265133e1e710ce97f53d43ed36fad7ca4e4722c82039b1eb964736f6c6343000806003360806040523480156200001157600080fd5b506040518060400160405280600581526020017f446f6769650000000000000000000000000000000000000000000000000000008152506040518060400160405280600381526020017f444f470000000000000000000000000000000000000000000000000000000000815250816000908051906020019062000096929190620001ba565b508060019080519060200190620000af929190620001ba565b5050506000620000c4620001b260201b60201c565b905080600660006101000a81548173ffffffffffffffffffffffffffffffffffffffff021916908373ffffffffffffffffffffffffffffffffffffffff1602179055508073ffffffffffffffffffffffffffffffffffffffff16600073ffffffffffffffffffffffffffffffffffffffff167f8be0079c531659141344cd1fd0a4f28419497f9722a3daafe3b4186f6b6457e060405160405180910390a350600060078190555033600860006101000a81548173ffffffffffffffffffffffffffffffffffffffff021916908373ffffffffffffffffffffffffffffffffffffffff160217905550620002cf565b600033905090565b828054620001c8906200026a565b90600052602060002090601f016020900481019282620001ec576000855562000238565b82601f106200020757805160ff191683800117855562000238565b8280016001018555821562000238579182015b82811115620002375782518255916020019190600101906200021a565b5b5090506200024791906200024b565b5090565b5b80821115620002665760008160009055506001016200024c565b5090565b600060028204905060018216806200028357607f821691505b602082108114156200029a5762000299620002a0565b5b50919050565b7f4e487b7100000000000000000000000000000000000000000000000000000000600052602260045260246000fd5b6134ce80620002df6000396000f3fe608060405234801561001057600080fd5b506004361061014d5760003560e01c806370a08231116100c3578063b88d4fde1161007c578063b88d4fde146103d8578063c87b56dd146103f4578063d082e38114610424578063e985e9c514610442578063ea97e49814610472578063f2fde38b146104a25761014d565b806370a0823114610316578063715018a6146103465780638da5cb5b1461035057806395d89b411461036e578063a22cb4651461038c578063a68cae95146103a85761014d565b806323b872dd1161011557806323b872dd1461021c5780633e2e85281461023857806342842e0e146102695780635b1773d7146102855780636352211e146102b55780636de6da20146102e55761014d565b806301ffc9a714610152578063065ad85d1461018257806306fdde03146101b2578063081812fc146101d0578063095ea7b314610200575b600080fd5b61016c60048036038101906101679190612392565b6104be565b604051610179919061288c565b60405180910390f35b61019c60048036038101906101979190612323565b6105a0565b6040516101a99190612ae9565b60405180910390f35b6101ba6106a3565b6040516101c791906128a7565b60405180910390f35b6101ea60048036038101906101e591906123ec565b610735565b6040516101f79190612825565b60405180910390f35b61021a600480360381019061021591906122e3565b6107ba565b005b610236600480360381019061023191906121cd565b6108d2565b005b610252600480360381019061024d91906123ec565b610932565b604051610260929190612b04565b60405180910390f35b610283600480360381019061027e91906121cd565b6109c1565b005b61029f600480360381019061029a9190612419565b6109e1565b6040516102ac9190612ae9565b60405180910390f35b6102cf60048036038101906102ca91906123ec565b610a12565b6040516102dc9190612825565b60405180910390f35b6102ff60048036038101906102fa91906123ec565b610ac4565b60405161030d929190612b04565b60405180910390f35b610330600480360381019061032b9190612160565b610bec565b60405161033d9190612ae9565b60405180910390f35b61034e610ca4565b005b610358610de1565b6040516103659190612825565b60405180910390f35b610376610e0b565b60405161038391906128a7565b60405180910390f35b6103a660048036038101906103a191906122a3565b610e9d565b005b6103c260048036038101906103bd91906123ec565b61101e565b6040516103cf9190612ae9565b60405180910390f35b6103f260048036038101906103ed9190612220565b611036565b005b61040e600480360381019061040991906123ec565b611098565b60405161041b91906128a7565b60405180910390f35b61042c61113f565b6040516104399190612ae9565b60405180910390f35b61045c6004803603810190610457919061218d565b611145565b604051610469919061288c565b60405180910390f35b61048c60048036038101906104879190612419565b6111d9565b6040516104999190612825565b60405180910390f35b6104bc60048036038101906104b79190612160565b611227565b005b60007f80ac58cd000000000000000000000000000000000000000000000000000000007bffffffffffffffffffffffffffffffffffffffffffffffffffffffff1916827bffffffffffffffffffffffffffffffffffffffffffffffffffffffff1916148061058957507f5b5e139f000000000000000000000000000000000000000000000000000000007bffffffffffffffffffffffffffffffffffffffffffffffffffffffff1916827bffffffffffffffffffffffffffffffffffffffffffffffffffffffff1916145b806105995750610598826113d3565b5b9050919050565b6000600860009054906101000a900473ffffffffffffffffffffffffffffffffffffffff1673ffffffffffffffffffffffffffffffffffffffff163373ffffffffffffffffffffffffffffffffffffffff1614610632576040517f08c379a000000000000000000000000000000000000000000000000000000000815260040161062990612ac9565b60405180910390fd5b60006007549050610643858261143d565b83600b60008381526020019081526020016000208190555082600a60008381526020019081526020016000209080519060200190610682929190611f7f565b5060016007546106929190612c32565b600781905550809150509392505050565b6060600080546106b290612da3565b80601f01602080910402602001604051908101604052809291908181526020018280546106de90612da3565b801561072b5780601f106107005761010080835404028352916020019161072b565b820191906000526020600020905b81548152906001019060200180831161070e57829003601f168201915b5050505050905090565b60006107408261145b565b61077f576040517f08c379a000000000000000000000000000000000000000000000000000000000815260040161077690612a09565b60405180910390fd5b6004600083815260200190815260200160002060009054906101000a900473ffffffffffffffffffffffffffffffffffffffff169050919050565b60006107c582610a12565b90508073ffffffffffffffffffffffffffffffffffffffff168373ffffffffffffffffffffffffffffffffffffffff161415610836576040517f08c379a000000000000000000000000000000000000000000000000000000000815260040161082d90612a89565b60405180910390fd5b8073ffffffffffffffffffffffffffffffffffffffff166108556114c7565b73ffffffffffffffffffffffffffffffffffffffff16148061088457506108838161087e6114c7565b611145565b5b6108c3576040517f08c379a00000000000000000000000000000000000000000000000000000000081526004016108ba90612989565b60405180910390fd5b6108cd83836114cf565b505050565b6108e36108dd6114c7565b82611588565b610922576040517f08c379a000000000000000000000000000000000000000000000000000000000815260040161091990612aa9565b60405180910390fd5b61092d838383611666565b505050565b600060606000600b60008581526020019081526020016000205490506000600a60008681526020019081526020016000208054806020026020016040519081016040528092919081815260200182805480156109ad57602002820191906000526020600020905b815481526020019060010190808311610999575b505050505090508181935093505050915091565b6109dc83838360405180602001604052806000815250611036565b505050565b600a60205281600052604060002081815481106109fd57600080fd5b90600052602060002001600091509150505481565b6000806002600084815260200190815260200160002060009054906101000a900473ffffffffffffffffffffffffffffffffffffffff169050600073ffffffffffffffffffffffffffffffffffffffff168173ffffffffffffffffffffffffffffffffffffffff161415610abb576040517f08c379a0000000000000000000000000000000000000000000000000000000008152600401610ab2906129c9565b60405180910390fd5b80915050919050565b60006060600860009054906101000a900473ffffffffffffffffffffffffffffffffffffffff1673ffffffffffffffffffffffffffffffffffffffff163373ffffffffffffffffffffffffffffffffffffffff1614610b58576040517f08c379a0000000000000000000000000000000000000000000000000000000008152600401610b4f90612ac9565b60405180910390fd5b6000600b60008581526020019081526020016000205490506000600a6000868152602001908152602001600020805480602002602001604051908101604052809291908181526020018280548015610bcf57602002820191906000526020600020905b815481526020019060010190808311610bbb575b50505050509050610bdf856118c2565b8181935093505050915091565b60008073ffffffffffffffffffffffffffffffffffffffff168273ffffffffffffffffffffffffffffffffffffffff161415610c5d576040517f08c379a0000000000000000000000000000000000000000000000000000000008152600401610c54906129a9565b60405180910390fd5b600360008373ffffffffffffffffffffffffffffffffffffffff1673ffffffffffffffffffffffffffffffffffffffff168152602001908152602001600020549050919050565b610cac6114c7565b73ffffffffffffffffffffffffffffffffffffffff16610cca610de1565b73ffffffffffffffffffffffffffffffffffffffff1614610d20576040517f08c379a0000000000000000000000000000000000000000000000000000000008152600401610d1790612a29565b60405180910390fd5b600073ffffffffffffffffffffffffffffffffffffffff16600660009054906101000a900473ffffffffffffffffffffffffffffffffffffffff1673ffffffffffffffffffffffffffffffffffffffff167f8be0079c531659141344cd1fd0a4f28419497f9722a3daafe3b4186f6b6457e060405160405180910390a36000600660006101000a81548173ffffffffffffffffffffffffffffffffffffffff021916908373ffffffffffffffffffffffffffffffffffffffff160217905550565b6000600660009054906101000a900473ffffffffffffffffffffffffffffffffffffffff16905090565b606060018054610e1a90612da3565b80601f0160208091040260200160405190810160405280929190818152602001828054610e4690612da3565b8015610e935780601f10610e6857610100808354040283529160200191610e93565b820191906000526020600020905b815481529060010190602001808311610e7657829003601f168201915b5050505050905090565b610ea56114c7565b73ffffffffffffffffffffffffffffffffffffffff168273ffffffffffffffffffffffffffffffffffffffff161415610f13576040517f08c379a0000000000000000000000000000000000000000000000000000000008152600401610f0a90612949565b60405180910390fd5b8060056000610f206114c7565b73ffffffffffffffffffffffffffffffffffffffff1673ffffffffffffffffffffffffffffffffffffffff16815260200190815260200160002060008473ffffffffffffffffffffffffffffffffffffffff1673ffffffffffffffffffffffffffffffffffffffff16815260200190815260200160002060006101000a81548160ff0219169083151502179055508173ffffffffffffffffffffffffffffffffffffffff16610fcd6114c7565b73ffffffffffffffffffffffffffffffffffffffff167f17307eab39ab6107e8899845ad3d59bd9653f200f220920489ca2b5937696c3183604051611012919061288c565b60405180910390a35050565b600b6020528060005260406000206000915090505481565b6110476110416114c7565b83611588565b611086576040517f08c379a000000000000000000000000000000000000000000000000000000000815260040161107d90612aa9565b60405180910390fd5b611092848484846119d3565b50505050565b60606110a38261145b565b6110e2576040517f08c379a00000000000000000000000000000000000000000000000000000000081526004016110d990612a69565b60405180910390fd5b60006110ec611a2f565b9050600081511161110c5760405180602001604052806000815250611137565b8061111684611a46565b604051602001611127929190612801565b6040516020818303038152906040525b915050919050565b60075481565b6000600560008473ffffffffffffffffffffffffffffffffffffffff1673ffffffffffffffffffffffffffffffffffffffff16815260200190815260200160002060008373ffffffffffffffffffffffffffffffffffffffff1673ffffffffffffffffffffffffffffffffffffffff16815260200190815260200160002060009054906101000a900460ff16905092915050565b600960205281600052604060002081815481106111f557600080fd5b906000526020600020016000915091509054906101000a900473ffffffffffffffffffffffffffffffffffffffff1681565b61122f6114c7565b73ffffffffffffffffffffffffffffffffffffffff1661124d610de1565b73ffffffffffffffffffffffffffffffffffffffff16146112a3576040517f08c379a000000000000000000000000000000000000000000000000000000000815260040161129a90612a29565b60405180910390fd5b600073ffffffffffffffffffffffffffffffffffffffff168173ffffffffffffffffffffffffffffffffffffffff161415611313576040517f08c379a000000000000000000000000000000000000000000000000000000000815260040161130a906128e9565b60405180910390fd5b8073ffffffffffffffffffffffffffffffffffffffff16600660009054906101000a900473ffffffffffffffffffffffffffffffffffffffff1673ffffffffffffffffffffffffffffffffffffffff167f8be0079c531659141344cd1fd0a4f28419497f9722a3daafe3b4186f6b6457e060405160405180910390a380600660006101000a81548173ffffffffffffffffffffffffffffffffffffffff021916908373ffffffffffffffffffffffffffffffffffffffff16021790555050565b60007f01ffc9a7000000000000000000000000000000000000000000000000000000007bffffffffffffffffffffffffffffffffffffffffffffffffffffffff1916827bffffffffffffffffffffffffffffffffffffffffffffffffffffffff1916149050919050565b611457828260405180602001604052806000815250611ba7565b5050565b60008073ffffffffffffffffffffffffffffffffffffffff166002600084815260200190815260200160002060009054906101000a900473ffffffffffffffffffffffffffffffffffffffff1673ffffffffffffffffffffffffffffffffffffffff1614159050919050565b600033905090565b816004600083815260200190815260200160002060006101000a81548173ffffffffffffffffffffffffffffffffffffffff021916908373ffffffffffffffffffffffffffffffffffffffff160217905550808273ffffffffffffffffffffffffffffffffffffffff1661154283610a12565b73ffffffffffffffffffffffffffffffffffffffff167f8c5be1e5ebec7d5bd14f71427d1e84f3dd0314c0f7b2291e5b200ac8c7c3b92560405160405180910390a45050565b60006115938261145b565b6115d2576040517f08c379a00000000000000000000000000000000000000000000000000000000081526004016115c990612969565b60405180910390fd5b60006115dd83610a12565b90508073ffffffffffffffffffffffffffffffffffffffff168473ffffffffffffffffffffffffffffffffffffffff16148061164c57508373ffffffffffffffffffffffffffffffffffffffff1661163484610735565b73ffffffffffffffffffffffffffffffffffffffff16145b8061165d575061165c8185611145565b5b91505092915050565b8273ffffffffffffffffffffffffffffffffffffffff1661168682610a12565b73ffffffffffffffffffffffffffffffffffffffff16146116dc576040517f08c379a00000000000000000000000000000000000000000000000000000000081526004016116d390612a49565b60405180910390fd5b600073ffffffffffffffffffffffffffffffffffffffff168273ffffffffffffffffffffffffffffffffffffffff16141561174c576040517f08c379a000000000000000000000000000000000000000000000000000000000815260040161174390612929565b60405180910390fd5b611757838383611c02565b6117626000826114cf565b6001600360008573ffffffffffffffffffffffffffffffffffffffff1673ffffffffffffffffffffffffffffffffffffffff16815260200190815260200160002060008282546117b29190612cb9565b925050819055506001600360008473ffffffffffffffffffffffffffffffffffffffff1673ffffffffffffffffffffffffffffffffffffffff16815260200190815260200160002060008282546118099190612c32565b92505081905550816002600083815260200190815260200160002060006101000a81548173ffffffffffffffffffffffffffffffffffffffff021916908373ffffffffffffffffffffffffffffffffffffffff160217905550808273ffffffffffffffffffffffffffffffffffffffff168473ffffffffffffffffffffffffffffffffffffffff167fddf252ad1be2c89b69c2b068fc378daa952ba7f163c4a11628f55a4df523b3ef60405160405180910390a4505050565b60006118cd82610a12565b90506118db81600084611c02565b6118e66000836114cf565b6001600360008373ffffffffffffffffffffffffffffffffffffffff1673ffffffffffffffffffffffffffffffffffffffff16815260200190815260200160002060008282546119369190612cb9565b925050819055506002600083815260200190815260200160002060006101000a81549073ffffffffffffffffffffffffffffffffffffffff021916905581600073ffffffffffffffffffffffffffffffffffffffff168273ffffffffffffffffffffffffffffffffffffffff167fddf252ad1be2c89b69c2b068fc378daa952ba7f163c4a11628f55a4df523b3ef60405160405180910390a45050565b6119de848484611666565b6119ea84848484611c07565b611a29576040517f08c379a0000000000000000000000000000000000000000000000000000000008152600401611a20906128c9565b60405180910390fd5b50505050565b606060405180602001604052806000815250905090565b60606000821415611a8e576040518060400160405280600181526020017f30000000000000000000000000000000000000000000000000000000000000008152509050611ba2565b600082905060005b60008214611ac0578080611aa990612e06565b915050600a82611ab99190612c88565b9150611a96565b60008167ffffffffffffffff811115611adc57611adb612f3c565b5b6040519080825280601f01601f191660200182016040528015611b0e5781602001600182028036833780820191505090505b5090505b60008514611b9b57600182611b279190612cb9565b9150600a85611b369190612e4f565b6030611b429190612c32565b60f81b818381518110611b5857611b57612f0d565b5b60200101907effffffffffffffffffffffffffffffffffffffffffffffffffffffffffffff1916908160001a905350600a85611b949190612c88565b9450611b12565b8093505050505b919050565b611bb18383611d9e565b611bbe6000848484611c07565b611bfd576040517f08c379a0000000000000000000000000000000000000000000000000000000008152600401611bf4906128c9565b60405180910390fd5b505050565b505050565b6000611c288473ffffffffffffffffffffffffffffffffffffffff16611f6c565b15611d91578373ffffffffffffffffffffffffffffffffffffffff1663150b7a02611c516114c7565b8786866040518563ffffffff1660e01b8152600401611c739493929190612840565b602060405180830381600087803b158015611c8d57600080fd5b505af1925050508015611cbe57506040513d601f19601f82011682018060405250810190611cbb91906123bf565b60015b611d41573d8060008114611cee576040519150601f19603f3d011682016040523d82523d6000602084013e611cf3565b606091505b50600081511415611d39576040517f08c379a0000000000000000000000000000000000000000000000000000000008152600401611d30906128c9565b60405180910390fd5b805181602001fd5b63150b7a0260e01b7bffffffffffffffffffffffffffffffffffffffffffffffffffffffff1916817bffffffffffffffffffffffffffffffffffffffffffffffffffffffff191614915050611d96565b600190505b949350505050565b600073ffffffffffffffffffffffffffffffffffffffff168273ffffffffffffffffffffffffffffffffffffffff161415611e0e576040517f08c379a0000000000000000000000000000000000000000000000000000000008152600401611e05906129e9565b60405180910390fd5b611e178161145b565b15611e57576040517f08c379a0000000000000000000000000000000000000000000000000000000008152600401611e4e90612909565b60405180910390fd5b611e6360008383611c02565b6001600360008473ffffffffffffffffffffffffffffffffffffffff1673ffffffffffffffffffffffffffffffffffffffff1681526020019081526020016000206000828254611eb39190612c32565b92505081905550816002600083815260200190815260200160002060006101000a81548173ffffffffffffffffffffffffffffffffffffffff021916908373ffffffffffffffffffffffffffffffffffffffff160217905550808273ffffffffffffffffffffffffffffffffffffffff16600073ffffffffffffffffffffffffffffffffffffffff167fddf252ad1be2c89b69c2b068fc378daa952ba7f163c4a11628f55a4df523b3ef60405160405180910390a45050565b600080823b905060008111915050919050565b828054828255906000526020600020908101928215611fbb579160200282015b82811115611fba578251825591602001919060010190611f9f565b5b509050611fc89190611fcc565b5090565b5b80821115611fe5576000816000905550600101611fcd565b5090565b6000611ffc611ff784612b59565b612b34565b9050808382526020820190508285602086028201111561201f5761201e612f70565b5b60005b8581101561204f5781612035888261214b565b845260208401935060208301925050600181019050612022565b5050509392505050565b600061206c61206784612b85565b612b34565b90508281526020810184848401111561208857612087612f75565b5b612093848285612d61565b509392505050565b6000813590506120aa8161343c565b92915050565b600082601f8301126120c5576120c4612f6b565b5b81356120d5848260208601611fe9565b91505092915050565b6000813590506120ed81613453565b92915050565b6000813590506121028161346a565b92915050565b6000815190506121178161346a565b92915050565b600082601f83011261213257612131612f6b565b5b8135612142848260208601612059565b91505092915050565b60008135905061215a81613481565b92915050565b60006020828403121561217657612175612f7f565b5b60006121848482850161209b565b91505092915050565b600080604083850312156121a4576121a3612f7f565b5b60006121b28582860161209b565b92505060206121c38582860161209b565b9150509250929050565b6000806000606084860312156121e6576121e5612f7f565b5b60006121f48682870161209b565b93505060206122058682870161209b565b92505060406122168682870161214b565b9150509250925092565b6000806000806080858703121561223a57612239612f7f565b5b60006122488782880161209b565b94505060206122598782880161209b565b935050604061226a8782880161214b565b925050606085013567ffffffffffffffff81111561228b5761228a612f7a565b5b6122978782880161211d565b91505092959194509250565b600080604083850312156122ba576122b9612f7f565b5b60006122c88582860161209b565b92505060206122d9858286016120de565b9150509250929050565b600080604083850312156122fa576122f9612f7f565b5b60006123088582860161209b565b92505060206123198582860161214b565b9150509250929050565b60008060006060848603121561233c5761233b612f7f565b5b600061234a8682870161209b565b935050602061235b8682870161214b565b925050604084013567ffffffffffffffff81111561237c5761237b612f7a565b5b612388868287016120b0565b9150509250925092565b6000602082840312156123a8576123a7612f7f565b5b60006123b6848285016120f3565b91505092915050565b6000602082840312156123d5576123d4612f7f565b5b60006123e384828501612108565b91505092915050565b60006020828403121561240257612401612f7f565b5b60006124108482850161214b565b91505092915050565b600080604083850312156124305761242f612f7f565b5b600061243e8582860161214b565b925050602061244f8582860161214b565b9150509250929050565b600061246583836127e3565b60208301905092915050565b61247a81612ced565b82525050565b600061248b82612bc6565b6124958185612bf4565b93506124a083612bb6565b8060005b838110156124d15781516124b88882612459565b97506124c383612be7565b9250506001810190506124a4565b5085935050505092915050565b6124e781612cff565b82525050565b60006124f882612bd1565b6125028185612c05565b9350612512818560208601612d70565b61251b81612f84565b840191505092915050565b600061253182612bdc565b61253b8185612c16565b935061254b818560208601612d70565b61255481612f84565b840191505092915050565b600061256a82612bdc565b6125748185612c27565b9350612584818560208601612d70565b80840191505092915050565b600061259d603283612c16565b91506125a882612f95565b604082019050919050565b60006125c0602683612c16565b91506125cb82612fe4565b604082019050919050565b60006125e3601c83612c16565b91506125ee82613033565b602082019050919050565b6000612606602483612c16565b91506126118261305c565b604082019050919050565b6000612629601983612c16565b9150612634826130ab565b602082019050919050565b600061264c602c83612c16565b9150612657826130d4565b604082019050919050565b600061266f603883612c16565b915061267a82613123565b604082019050919050565b6000612692602a83612c16565b915061269d82613172565b604082019050919050565b60006126b5602983612c16565b91506126c0826131c1565b604082019050919050565b60006126d8602083612c16565b91506126e382613210565b602082019050919050565b60006126fb602c83612c16565b915061270682613239565b604082019050919050565b600061271e602083612c16565b915061272982613288565b602082019050919050565b6000612741602983612c16565b915061274c826132b1565b604082019050919050565b6000612764602f83612c16565b915061276f82613300565b604082019050919050565b6000612787602183612c16565b91506127928261334f565b604082019050919050565b60006127aa603183612c16565b91506127b58261339e565b604082019050919050565b60006127cd602583612c16565b91506127d8826133ed565b604082019050919050565b6127ec81612d57565b82525050565b6127fb81612d57565b82525050565b600061280d828561255f565b9150612819828461255f565b91508190509392505050565b600060208201905061283a6000830184612471565b92915050565b60006080820190506128556000830187612471565b6128626020830186612471565b61286f60408301856127f2565b818103606083015261288181846124ed565b905095945050505050565b60006020820190506128a160008301846124de565b92915050565b600060208201905081810360008301526128c18184612526565b905092915050565b600060208201905081810360008301526128e281612590565b9050919050565b60006020820190508181036000830152612902816125b3565b9050919050565b60006020820190508181036000830152612922816125d6565b9050919050565b60006020820190508181036000830152612942816125f9565b9050919050565b600060208201905081810360008301526129628161261c565b9050919050565b600060208201905081810360008301526129828161263f565b9050919050565b600060208201905081810360008301526129a281612662565b9050919050565b600060208201905081810360008301526129c281612685565b9050919050565b600060208201905081810360008301526129e2816126a8565b9050919050565b60006020820190508181036000830152612a02816126cb565b9050919050565b60006020820190508181036000830152612a22816126ee565b9050919050565b60006020820190508181036000830152612a4281612711565b9050919050565b60006020820190508181036000830152612a6281612734565b9050919050565b60006020820190508181036000830152612a8281612757565b9050919050565b60006020820190508181036000830152612aa28161277a565b9050919050565b60006020820190508181036000830152612ac28161279d565b9050919050565b60006020820190508181036000830152612ae2816127c0565b9050919050565b6000602082019050612afe60008301846127f2565b92915050565b6000604082019050612b1960008301856127f2565b8181036020830152612b2b8184612480565b90509392505050565b6000612b3e612b4f565b9050612b4a8282612dd5565b919050565b6000604051905090565b600067ffffffffffffffff821115612b7457612b73612f3c565b5b602082029050602081019050919050565b600067ffffffffffffffff821115612ba057612b9f612f3c565b5b612ba982612f84565b9050602081019050919050565b6000819050602082019050919050565b600081519050919050565b600081519050919050565b600081519050919050565b6000602082019050919050565b600082825260208201905092915050565b600082825260208201905092915050565b600082825260208201905092915050565b600081905092915050565b6000612c3d82612d57565b9150612c4883612d57565b9250827fffffffffffffffffffffffffffffffffffffffffffffffffffffffffffffffff03821115612c7d57612c7c612e80565b5b828201905092915050565b6000612c9382612d57565b9150612c9e83612d57565b925082612cae57612cad612eaf565b5b828204905092915050565b6000612cc482612d57565b9150612ccf83612d57565b925082821015612ce257612ce1612e80565b5b828203905092915050565b6000612cf882612d37565b9050919050565b60008115159050919050565b60007fffffffff0000000000000000000000000000000000000000000000000000000082169050919050565b600073ffffffffffffffffffffffffffffffffffffffff82169050919050565b6000819050919050565b82818337600083830152505050565b60005b83811015612d8e578082015181840152602081019050612d73565b83811115612d9d576000848401525b50505050565b60006002820490506001821680612dbb57607f821691505b60208210811415612dcf57612dce612ede565b5b50919050565b612dde82612f84565b810181811067ffffffffffffffff82111715612dfd57612dfc612f3c565b5b80604052505050565b6000612e1182612d57565b91507fffffffffffffffffffffffffffffffffffffffffffffffffffffffffffffffff821415612e4457612e43612e80565b5b600182019050919050565b6000612e5a82612d57565b9150612e6583612d57565b925082612e7557612e74612eaf565b5b828206905092915050565b7f4e487b7100000000000000000000000000000000000000000000000000000000600052601160045260246000fd5b7f4e487b7100000000000000000000000000000000000000000000000000000000600052601260045260246000fd5b7f4e487b7100000000000000000000000000000000000000000000000000000000600052602260045260246000fd5b7f4e487b7100000000000000000000000000000000000000000000000000000000600052603260045260246000fd5b7f4e487b7100000000000000000000000000000000000000000000000000000000600052604160045260246000fd5b600080fd5b600080fd5b600080fd5b600080fd5b600080fd5b6000601f19601f8301169050919050565b7f4552433732313a207472616e7366657220746f206e6f6e20455243373231526560008201527f63656976657220696d706c656d656e7465720000000000000000000000000000602082015250565b7f4f776e61626c653a206e6577206f776e657220697320746865207a65726f206160008201527f6464726573730000000000000000000000000000000000000000000000000000602082015250565b7f4552433732313a20746f6b656e20616c7265616479206d696e74656400000000600082015250565b7f4552433732313a207472616e7366657220746f20746865207a65726f2061646460008201527f7265737300000000000000000000000000000000000000000000000000000000602082015250565b7f4552433732313a20617070726f766520746f2063616c6c657200000000000000600082015250565b7f4552433732313a206f70657261746f7220717565727920666f72206e6f6e657860008201527f697374656e7420746f6b656e0000000000000000000000000000000000000000602082015250565b7f4552433732313a20617070726f76652063616c6c6572206973206e6f74206f7760008201527f6e6572206e6f7220617070726f76656420666f7220616c6c0000000000000000602082015250565b7f4552433732313a2062616c616e636520717565727920666f7220746865207a6560008201527f726f206164647265737300000000000000000000000000000000000000000000602082015250565b7f4552433732313a206f776e657220717565727920666f72206e6f6e657869737460008201527f656e7420746f6b656e0000000000000000000000000000000000000000000000602082015250565b7f4552433732313a206d696e7420746f20746865207a65726f2061646472657373600082015250565b7f4552433732313a20617070726f76656420717565727920666f72206e6f6e657860008201527f697374656e7420746f6b656e0000000000000000000000000000000000000000602082015250565b7f4f776e61626c653a2063616c6c6572206973206e6f7420746865206f776e6572600082015250565b7f4552433732313a207472616e73666572206f6620746f6b656e2074686174206960008201527f73206e6f74206f776e0000000000000000000000000000000000000000000000602082015250565b7f4552433732314d657461646174613a2055524920717565727920666f72206e6f60008201527f6e6578697374656e7420746f6b656e0000000000000000000000000000000000602082015250565b7f4552433732313a20617070726f76616c20746f2063757272656e74206f776e6560008201527f7200000000000000000000000000000000000000000000000000000000000000602082015250565b7f4552433732313a207472616e736665722063616c6c6572206973206e6f74206f60008201527f776e6572206e6f7220617070726f766564000000000000000000000000000000602082015250565b7f4f4e4c5920494e444558504f4f4c2043414e2043414c4c20544849532046554e60008201527f4354494f4e000000000000000000000000000000000000000000000000000000602082015250565b61344581612ced565b811461345057600080fd5b50565b61345c81612cff565b811461346757600080fd5b50565b61347381612d0b565b811461347e57600080fd5b50565b61348a81612d57565b811461349557600080fd5b5056fea26469706673582212207e00d0ce16c0c9b3b9822c40051f4b675a141b2e28e7806d6ccc91f169ed72ee64736f6c63430008060033",
  "linkReferences": {},
  "deployedLinkReferences": {}
}