{
  "_format": "hh-sol-artifact-1",
  "contractName": "Pool",
  "sourceName": "contracts/Pool.sol",
  "abi": [
    {
      "inputs": [
        {
          "internalType": "address",
          "name": "_uniswap_factory",
          "type": "address"
        }
      ],
      "stateMutability": "nonpayable",
      "type": "constructor"
    },
    {
      "anonymous": false,
      "inputs": [
        {
          "indexed": false,
          "internalType": "address",
          "name": "sender",
          "type": "address"
        },
        {
          "indexed": false,
          "internalType": "uint256",
          "name": "amount",
          "type": "uint256"
        }
      ],
      "name": "Received",
      "type": "event"
    },
    {
      "inputs": [
        {
          "internalType": "uint256",
          "name": "index_id",
          "type": "uint256"
        }
      ],
      "name": "buy",
      "outputs": [],
      "stateMutability": "nonpayable",
      "type": "function"
    },
    {
      "inputs": [
        {
          "internalType": "address",
          "name": "token",
          "type": "address"
        }
      ],
      "name": "buy_token",
      "outputs": [],
      "stateMutability": "nonpayable",
      "type": "function"
    },
    {
      "inputs": [
        {
          "internalType": "uint256",
          "name": "index_id",
          "type": "uint256"
        },
        {
          "internalType": "uint256",
          "name": "shares_pct",
          "type": "uint256"
        }
      ],
      "name": "cash_out_erc20",
      "outputs": [],
      "stateMutability": "nonpayable",
      "type": "function"
    },
    {
      "inputs": [
        {
          "internalType": "uint256[]",
          "name": "_allocation",
          "type": "uint256[]"
        },
        {
          "internalType": "address[]",
          "name": "_tokens",
          "type": "address[]"
        }
      ],
      "name": "create_index",
      "outputs": [],
      "stateMutability": "nonpayable",
      "type": "function"
    },
    {
      "inputs": [
        {
          "internalType": "uint256",
          "name": "_index_id",
          "type": "uint256"
        }
      ],
      "name": "deposit",
      "outputs": [],
      "stateMutability": "payable",
      "type": "function"
    },
    {
      "inputs": [
        {
          "internalType": "uint256",
          "name": "_index_id",
          "type": "uint256"
        }
      ],
      "name": "get_available_creator_fee",
      "outputs": [
        {
          "internalType": "uint256",
          "name": "",
          "type": "uint256"
        }
      ],
      "stateMutability": "view",
      "type": "function"
    },
    {
      "inputs": [
        {
          "internalType": "uint256",
          "name": "_index_id",
          "type": "uint256"
        }
      ],
      "name": "get_available_protocol_fee",
      "outputs": [
        {
          "internalType": "uint256",
          "name": "",
          "type": "uint256"
        }
      ],
      "stateMutability": "view",
      "type": "function"
    },
    {
      "inputs": [
        {
          "internalType": "uint256",
          "name": "index_id",
          "type": "uint256"
        }
      ],
      "name": "get_index",
      "outputs": [
        {
          "components": [
            {
              "internalType": "address",
              "name": "creator",
              "type": "address"
            },
            {
              "internalType": "uint256[]",
              "name": "allocation",
              "type": "uint256[]"
            },
            {
              "internalType": "address[]",
              "name": "tokens",
              "type": "address[]"
            },
            {
              "internalType": "uint256",
              "name": "fee",
              "type": "uint256"
            },
            {
              "internalType": "uint256",
              "name": "creator_fee_cash_out",
              "type": "uint256"
            },
            {
              "internalType": "uint256",
              "name": "protocol_fee_cash_out",
              "type": "uint256"
            }
          ],
          "internalType": "struct Pool.OutputIndex",
          "name": "",
          "type": "tuple"
        }
      ],
      "stateMutability": "view",
      "type": "function"
    },
    {
      "inputs": [
        {
          "internalType": "uint256",
          "name": "index_id",
          "type": "uint256"
        }
      ],
      "name": "get_index_allocation",
      "outputs": [
        {
          "internalType": "uint256[]",
          "name": "",
          "type": "uint256[]"
        }
      ],
      "stateMutability": "view",
      "type": "function"
    },
    {
      "inputs": [
        {
          "internalType": "uint256",
          "name": "index_id",
          "type": "uint256"
        }
      ],
      "name": "get_index_tokens",
      "outputs": [
        {
          "internalType": "address[]",
          "name": "",
          "type": "address[]"
        }
      ],
      "stateMutability": "view",
      "type": "function"
    },
    {
      "inputs": [],
      "name": "get_indexes_creators",
      "outputs": [
        {
          "internalType": "address[]",
          "name": "",
          "type": "address[]"
        }
      ],
      "stateMutability": "view",
      "type": "function"
    },
    {
      "inputs": [],
      "name": "get_indexes_length",
      "outputs": [
        {
          "internalType": "uint256",
          "name": "",
          "type": "uint256"
        }
      ],
      "stateMutability": "view",
      "type": "function"
    },
    {
      "inputs": [
        {
          "internalType": "uint256",
          "name": "index_id",
          "type": "uint256"
        },
        {
          "internalType": "address",
          "name": "token",
          "type": "address"
        },
        {
          "internalType": "address",
          "name": "user_id",
          "type": "address"
        }
      ],
      "name": "get_token_balance",
      "outputs": [
        {
          "internalType": "uint256",
          "name": "",
          "type": "uint256"
        }
      ],
      "stateMutability": "view",
      "type": "function"
    },
    {
      "inputs": [
        {
          "internalType": "uint256",
          "name": "_index_id",
          "type": "uint256"
        },
        {
          "internalType": "uint256",
          "name": "cash_out_pct",
          "type": "uint256"
        }
      ],
      "name": "pay_creator_fee",
      "outputs": [],
      "stateMutability": "nonpayable",
      "type": "function"
    },
    {
      "inputs": [
        {
          "internalType": "uint256",
          "name": "_index_id",
          "type": "uint256"
        },
        {
          "internalType": "uint256",
          "name": "cash_out_pct",
          "type": "uint256"
        }
      ],
      "name": "pay_protocol_fee",
      "outputs": [],
      "stateMutability": "nonpayable",
      "type": "function"
    },
    {
      "inputs": [
        {
          "internalType": "uint256",
          "name": "index_id",
          "type": "uint256"
        }
      ],
      "name": "sell",
      "outputs": [],
      "stateMutability": "nonpayable",
      "type": "function"
    },
    {
      "inputs": [
        {
          "internalType": "address",
          "name": "token",
          "type": "address"
        }
      ],
      "name": "sell_token",
      "outputs": [],
      "stateMutability": "nonpayable",
      "type": "function"
    },
    {
      "inputs": [
        {
          "internalType": "uint256",
          "name": "_index_id",
          "type": "uint256"
        },
        {
          "internalType": "uint256",
          "name": "_sell_pct",
          "type": "uint256"
        }
      ],
      "name": "withdraw",
      "outputs": [],
      "stateMutability": "nonpayable",
      "type": "function"
    },
    {
      "stateMutability": "payable",
      "type": "receive"
    }
  ],
  "bytecode": "0x60806040523480156200001157600080fd5b5060405162005df038038062005df08339818101604052810190620000379190620000d7565b80600560006101000a81548173ffffffffffffffffffffffffffffffffffffffff021916908373ffffffffffffffffffffffffffffffffffffffff16021790555033600660006101000a81548173ffffffffffffffffffffffffffffffffffffffff021916908373ffffffffffffffffffffffffffffffffffffffff1602179055505062000151565b600081519050620000d18162000137565b92915050565b600060208284031215620000ea57600080fd5b6000620000fa84828501620000c0565b91505092915050565b6000620001108262000117565b9050919050565b600073ffffffffffffffffffffffffffffffffffffffff82169050919050565b620001428162000103565b81146200014e57600080fd5b50565b615c8f80620001616000396000f3fe60806040526004361061010d5760003560e01c80639a3f7d0a11610095578063bcae428f11610064578063bcae428f146103d4578063d96a094a146103ff578063e0ae72d014610428578063e4849b3214610451578063fc3f68731461047a5761014d565b80639a3f7d0a14610329578063a155e20414610366578063b114930f1461038f578063b6b55f25146103b85761014d565b8063441a3e70116100dc578063441a3e701461020c5780634962b2ea1461023557806369c4f6a6146102725780639461807c146102af578063947ab140146102ec5761014d565b80630ebc4145146101525780631de2aa4e1461017b578063323aedc5146101b8578063411e526b146101e35761014d565b3661014d577f88a5966d370b9919b20f3e2c13ff65706f196a4e32cc2c12bf57088f8852587433346040516101439291906150f1565b60405180910390a1005b600080fd5b34801561015e57600080fd5b5061017960048036038101906101749190614b18565b6104a3565b005b34801561018757600080fd5b506101a2600480360381019061019d9190614bad565b6109f9565b6040516101af919061513c565b60405180910390f35b3480156101c457600080fd5b506101cd610a9c565b6040516101da91906153ac565b60405180910390f35b3480156101ef57600080fd5b5061020a60048036038101906102059190614c25565b610aa8565b005b34801561021857600080fd5b50610233600480360381019061022e9190614c25565b610d8a565b005b34801561024157600080fd5b5061025c60048036038101906102579190614bad565b6114e7565b60405161026991906153ac565b60405180910390f35b34801561027e57600080fd5b5061029960048036038101906102949190614bad565b6115a8565b6040516102a6919061511a565b60405180910390f35b3480156102bb57600080fd5b506102d660048036038101906102d19190614bad565b611681565b6040516102e391906153ac565b60405180910390f35b3480156102f857600080fd5b50610313600480360381019061030e9190614bd6565b611742565b60405161032091906153ac565b60405180910390f35b34801561033557600080fd5b50610350600480360381019061034b9190614bad565b611812565b60405161035d919061538a565b60405180910390f35b34801561037257600080fd5b5061038d60048036038101906103889190614a85565b611b1e565b005b34801561039b57600080fd5b506103b660048036038101906103b19190614a85565b611ca1565b005b6103d260048036038101906103cd9190614bad565b611e3c565b005b3480156103e057600080fd5b506103e961274b565b6040516103f6919061511a565b60405180910390f35b34801561040b57600080fd5b5061042660048036038101906104219190614bad565b6128ce565b005b34801561043457600080fd5b5061044f600480360381019061044a9190614c25565b612b80565b005b34801561045d57600080fd5b5061047860048036038101906104739190614bad565b6130c3565b005b34801561048657600080fd5b506104a1600480360381019061049c9190614c25565b61338e565b005b80518251146104e7576040517f08c379a00000000000000000000000000000000000000000000000000000000081526004016104de9061534a565b60405180910390fd5b6102008151111561052d576040517f08c379a00000000000000000000000000000000000000000000000000000000081526004016105249061536a565b60405180910390fd5b61053681613627565b610575576040517f08c379a000000000000000000000000000000000000000000000000000000000815260040161056c9061524a565b60405180910390fd5b6000600267ffffffffffffffff8111156105b8577f4e487b7100000000000000000000000000000000000000000000000000000000600052604160045260246000fd5b6040519080825280602002602001820160405280156105e65781602001602082028036833780820191505090505b509050600560009054906101000a900473ffffffffffffffffffffffffffffffffffffffff1673ffffffffffffffffffffffffffffffffffffffff1663ad5c46486040518163ffffffff1660e01b815260040160206040518083038186803b15801561065157600080fd5b505afa158015610665573d6000803e3d6000fd5b505050506040513d601f19601f820116820180604052508101906106899190614aae565b816001815181106106c3577f4e487b7100000000000000000000000000000000000000000000000000000000600052603260045260246000fd5b602002602001019073ffffffffffffffffffffffffffffffffffffffff16908173ffffffffffffffffffffffffffffffffffffffff1681525050600080600090505b84518160ff16101561095957838160ff168151811061074d577f4e487b7100000000000000000000000000000000000000000000000000000000600052603260045260246000fd5b60200260200101518360008151811061078f577f4e487b7100000000000000000000000000000000000000000000000000000000600052603260045260246000fd5b602002602001019073ffffffffffffffffffffffffffffffffffffffff16908173ffffffffffffffffffffffffffffffffffffffff1681525050600560009054906101000a900473ffffffffffffffffffffffffffffffffffffffff1673ffffffffffffffffffffffffffffffffffffffff1663d06ca61f868360ff1681518110610843577f4e487b7100000000000000000000000000000000000000000000000000000000600052603260045260246000fd5b6020026020010151856040518363ffffffff1660e01b81526004016108699291906153c7565b60006040518083038186803b15801561088157600080fd5b505afa158015610895573d6000803e3d6000fd5b505050506040513d6000823e3d601f19601f820116820180604052508101906108be9190614ad7565b6001815181106108f7577f4e487b7100000000000000000000000000000000000000000000000000000000600052603260045260246000fd5b60200260200101519150620186a08211610946576040517f08c379a000000000000000000000000000000000000000000000000000000000815260040161093d906152aa565b60405180910390fd5b808061095190615769565b915050610705565b506000806001816001815401808255809150500390600052602060002090600902019050848160010190805190602001906109959291906146a8565b50338160000160006101000a81548173ffffffffffffffffffffffffffffffffffffffff021916908373ffffffffffffffffffffffffffffffffffffffff160217905550838160020190805190602001906109f19291906146f5565b505050505050565b606060008281548110610a35577f4e487b7100000000000000000000000000000000000000000000000000000000600052603260045260246000fd5b9060005260206000209060090201600101805480602002602001604051908101604052809291908181526020018280548015610a9057602002820191906000526020600020905b815481526020019060010190808311610a7c575b50505050509050919050565b60008080549050905090565b60008281548110610ae2577f4e487b7100000000000000000000000000000000000000000000000000000000600052603260045260246000fd5b906000526020600020906009020160000160009054906101000a900473ffffffffffffffffffffffffffffffffffffffff1673ffffffffffffffffffffffffffffffffffffffff163373ffffffffffffffffffffffffffffffffffffffff1614610b81576040517f08c379a0000000000000000000000000000000000000000000000000000000008152600401610b789061522a565b60405180910390fd5b60008111610bc4576040517f08c379a0000000000000000000000000000000000000000000000000000000008152600401610bbb906151ca565b60405180910390fd5b6000600260008481548110610c02577f4e487b7100000000000000000000000000000000000000000000000000000000600052603260045260246000fd5b906000526020600020906009020160030154610c1e91906155c9565b90506000808481548110610c5b577f4e487b7100000000000000000000000000000000000000000000000000000000600052603260045260246000fd5b90600052602060002090600902016004015482610c789190615654565b905060006103e88483610c8b91906155fa565b610c9591906155c9565b905080821015610cda576040517f08c379a0000000000000000000000000000000000000000000000000000000008152600401610cd1906151ea565b60405180910390fd5b8060008681548110610d15577f4e487b7100000000000000000000000000000000000000000000000000000000600052603260045260246000fd5b90600052602060002090600902016004016000828254610d359190615573565b925050819055503373ffffffffffffffffffffffffffffffffffffffff166108fc829081150290604051600060405180830381858888f19350505050158015610d82573d6000803e3d6000fd5b505050505050565b60008111610dcd576040517f08c379a0000000000000000000000000000000000000000000000000000000008152600401610dc4906152ea565b60405180910390fd5b6000808381548110610e08577f4e487b7100000000000000000000000000000000000000000000000000000000600052603260045260246000fd5b90600052602060002090600902016006016000808581548110610e54577f4e487b7100000000000000000000000000000000000000000000000000000000600052603260045260246000fd5b9060005260206000209060090201600201600081548110610e9e577f4e487b7100000000000000000000000000000000000000000000000000000000600052603260045260246000fd5b9060005260206000200160009054906101000a900473ffffffffffffffffffffffffffffffffffffffff1673ffffffffffffffffffffffffffffffffffffffff1673ffffffffffffffffffffffffffffffffffffffff16815260200190815260200160002060003373ffffffffffffffffffffffffffffffffffffffff1673ffffffffffffffffffffffffffffffffffffffff1681526020019081526020016000205411610f81576040517f08c379a0000000000000000000000000000000000000000000000000000000008152600401610f789061520a565b60405180910390fd5b6103e8811115610fc6576040517f08c379a0000000000000000000000000000000000000000000000000000000008152600401610fbd906151aa565b60405180910390fd5b60008281548110611000577f4e487b7100000000000000000000000000000000000000000000000000000000600052603260045260246000fd5b9060005260206000209060090201600201805490506000838154811061104f577f4e487b7100000000000000000000000000000000000000000000000000000000600052603260045260246000fd5b906000526020600020906009020160080160003373ffffffffffffffffffffffffffffffffffffffff1673ffffffffffffffffffffffffffffffffffffffff16815260200190815260200160002060008282546110ac9190615573565b9250508190555060005b600083815481106110f0577f4e487b7100000000000000000000000000000000000000000000000000000000600052603260045260246000fd5b9060005260206000209060090201600201805490508110156114e2576000808481548110611147577f4e487b7100000000000000000000000000000000000000000000000000000000600052603260045260246000fd5b90600052602060002090600902016002018281548110611190577f4e487b7100000000000000000000000000000000000000000000000000000000600052603260045260246000fd5b9060005260206000200160009054906101000a900473ffffffffffffffffffffffffffffffffffffffff16905060006103e884600087815481106111fd577f4e487b7100000000000000000000000000000000000000000000000000000000600052603260045260246000fd5b906000526020600020906009020160060160008573ffffffffffffffffffffffffffffffffffffffff1673ffffffffffffffffffffffffffffffffffffffff16815260200190815260200160002060003373ffffffffffffffffffffffffffffffffffffffff1673ffffffffffffffffffffffffffffffffffffffff1681526020019081526020016000205461129391906155fa565b61129d91906155c9565b905080600460008473ffffffffffffffffffffffffffffffffffffffff1673ffffffffffffffffffffffffffffffffffffffff16815260200190815260200160002060008282546112ee9190615573565b925050819055508060008681548110611330577f4e487b7100000000000000000000000000000000000000000000000000000000600052603260045260246000fd5b906000526020600020906009020160060160008473ffffffffffffffffffffffffffffffffffffffff1673ffffffffffffffffffffffffffffffffffffffff16815260200190815260200160002060003373ffffffffffffffffffffffffffffffffffffffff1673ffffffffffffffffffffffffffffffffffffffff16815260200190815260200160002060008282546113ca9190615654565b92505081905550600060405180606001604052808781526020013373ffffffffffffffffffffffffffffffffffffffff168152602001838152509050600360008473ffffffffffffffffffffffffffffffffffffffff1673ffffffffffffffffffffffffffffffffffffffff1681526020019081526020016000208190806001815401808255809150506001900390600052602060002090600302016000909190919091506000820151816000015560208201518160010160006101000a81548173ffffffffffffffffffffffffffffffffffffffff021916908373ffffffffffffffffffffffffffffffffffffffff16021790555060408201518160020155505050505080806114da90615720565b9150506110b6565b505050565b600080600260008481548110611526577f4e487b7100000000000000000000000000000000000000000000000000000000600052603260045260246000fd5b90600052602060002090600902016003015461154291906155c9565b9050600080848154811061157f577f4e487b7100000000000000000000000000000000000000000000000000000000600052603260045260246000fd5b9060005260206000209060090201600501548261159c9190615654565b90508092505050919050565b6060600082815481106115e4577f4e487b7100000000000000000000000000000000000000000000000000000000600052603260045260246000fd5b906000526020600020906009020160020180548060200260200160405190810160405280929190818152602001828054801561167557602002820191906000526020600020905b8160009054906101000a900473ffffffffffffffffffffffffffffffffffffffff1673ffffffffffffffffffffffffffffffffffffffff168152602001906001019080831161162b575b50505050509050919050565b6000806002600084815481106116c0577f4e487b7100000000000000000000000000000000000000000000000000000000600052603260045260246000fd5b9060005260206000209060090201600301546116dc91906155c9565b90506000808481548110611719577f4e487b7100000000000000000000000000000000000000000000000000000000600052603260045260246000fd5b906000526020600020906009020160040154826117369190615654565b90508092505050919050565b600080848154811061177d577f4e487b7100000000000000000000000000000000000000000000000000000000600052603260045260246000fd5b906000526020600020906009020160060160008473ffffffffffffffffffffffffffffffffffffffff1673ffffffffffffffffffffffffffffffffffffffff16815260200190815260200160002060008373ffffffffffffffffffffffffffffffffffffffff1673ffffffffffffffffffffffffffffffffffffffff1681526020019081526020016000205490509392505050565b61181a61477f565b60006040518060c0016040528060008581548110611861577f4e487b7100000000000000000000000000000000000000000000000000000000600052603260045260246000fd5b906000526020600020906009020160000160009054906101000a900473ffffffffffffffffffffffffffffffffffffffff1673ffffffffffffffffffffffffffffffffffffffff168152602001600085815481106118e8577f4e487b7100000000000000000000000000000000000000000000000000000000600052603260045260246000fd5b906000526020600020906009020160010180548060200260200160405190810160405280929190818152602001828054801561194357602002820191906000526020600020905b81548152602001906001019080831161192f575b5050505050815260200160008581548110611987577f4e487b7100000000000000000000000000000000000000000000000000000000600052603260045260246000fd5b9060005260206000209060090201600201805480602002602001604051908101604052809291908181526020018280548015611a1857602002820191906000526020600020905b8160009054906101000a900473ffffffffffffffffffffffffffffffffffffffff1673ffffffffffffffffffffffffffffffffffffffff16815260200190600101908083116119ce575b5050505050815260200160008581548110611a5c577f4e487b7100000000000000000000000000000000000000000000000000000000600052603260045260246000fd5b906000526020600020906009020160030154815260200160008581548110611aad577f4e487b7100000000000000000000000000000000000000000000000000000000600052603260045260246000fd5b906000526020600020906009020160040154815260200160008581548110611afe577f4e487b7100000000000000000000000000000000000000000000000000000000600052603260045260246000fd5b906000526020600020906009020160050154815250905080915050919050565b60006107cb600260008473ffffffffffffffffffffffffffffffffffffffff1673ffffffffffffffffffffffffffffffffffffffff16815260200190815260200160002054611b6d91906155c9565b90506000611bba83600260008673ffffffffffffffffffffffffffffffffffffffff1673ffffffffffffffffffffffffffffffffffffffff16815260200190815260200160002054613734565b9050611c55838260018451611bcf9190615654565b81518110611c06577f4e487b7100000000000000000000000000000000000000000000000000000000600052603260045260246000fd5b602002602001015183600081518110611c48577f4e487b7100000000000000000000000000000000000000000000000000000000600052603260045260246000fd5b6020026020010151613a04565b3373ffffffffffffffffffffffffffffffffffffffff166108fc839081150290604051600060405180830381858888f19350505050158015611c9b573d6000803e3d6000fd5b50505050565b600080611ced83600460008673ffffffffffffffffffffffffffffffffffffffff1673ffffffffffffffffffffffffffffffffffffffff16815260200190815260200160002054613d30565b90506107d08160018351611d019190615654565b81518110611d38577f4e487b7100000000000000000000000000000000000000000000000000000000600052603260045260246000fd5b6020026020010151611d4a91906155c9565b9150611df08382600081518110611d8a577f4e487b7100000000000000000000000000000000000000000000000000000000600052603260045260246000fd5b6020026020010151848460018651611da29190615654565b81518110611dd9577f4e487b7100000000000000000000000000000000000000000000000000000000600052603260045260246000fd5b6020026020010151611deb9190615654565b6140ef565b3373ffffffffffffffffffffffffffffffffffffffff166108fc839081150290604051600060405180830381858888f19350505050158015611e36573d6000803e3d6000fd5b50505050565b6000808281548110611e77577f4e487b7100000000000000000000000000000000000000000000000000000000600052603260045260246000fd5b9060005260206000209060090201600201805480602002602001604051908101604052809291908181526020018280548015611f0857602002820191906000526020600020905b8160009054906101000a900473ffffffffffffffffffffffffffffffffffffffff1673ffffffffffffffffffffffffffffffffffffffff1681526020019060010190808311611ebe575b505050505090506000808381548110611f4a577f4e487b7100000000000000000000000000000000000000000000000000000000600052603260045260246000fd5b9060005260206000209060090201600101805480602002602001604051908101604052809291908181526020018280548015611fa557602002820191906000526020600020905b815481526020019060010190808311611f91575b505050505090506000825167ffffffffffffffff811115611fef577f4e487b7100000000000000000000000000000000000000000000000000000000600052604160045260246000fd5b60405190808252806020026020018201604052801561201d5781602001602082028036833780820191505090505b509050600080600267ffffffffffffffff811115612064577f4e487b7100000000000000000000000000000000000000000000000000000000600052604160045260246000fd5b6040519080825280602002602001820160405280156120925781602001602082028036833780820191505090505b509050600560009054906101000a900473ffffffffffffffffffffffffffffffffffffffff1673ffffffffffffffffffffffffffffffffffffffff1663ad5c46486040518163ffffffff1660e01b815260040160206040518083038186803b1580156120fd57600080fd5b505afa158015612111573d6000803e3d6000fd5b505050506040513d601f19601f820116820180604052508101906121359190614aae565b8160018151811061216f577f4e487b7100000000000000000000000000000000000000000000000000000000600052603260045260246000fd5b602002602001019073ffffffffffffffffffffffffffffffffffffffff16908173ffffffffffffffffffffffffffffffffffffffff168152505060006101f4346121b991906155c9565b905080600088815481106121f6577f4e487b7100000000000000000000000000000000000000000000000000000000600052603260045260246000fd5b906000526020600020906009020160030160008282546122169190615573565b925050819055506000813461222b9190615654565b90506000805b87518160ff16101561249757888160ff1681518110612279577f4e487b7100000000000000000000000000000000000000000000000000000000600052603260045260246000fd5b6020026020010151856000815181106122bb577f4e487b7100000000000000000000000000000000000000000000000000000000600052603260045260246000fd5b602002602001019073ffffffffffffffffffffffffffffffffffffffff16908173ffffffffffffffffffffffffffffffffffffffff1681525050600560009054906101000a900473ffffffffffffffffffffffffffffffffffffffff1673ffffffffffffffffffffffffffffffffffffffff1663d06ca61f898360ff168151811061236f577f4e487b7100000000000000000000000000000000000000000000000000000000600052603260045260246000fd5b6020026020010151876040518363ffffffff1660e01b81526004016123959291906153c7565b60006040518083038186803b1580156123ad57600080fd5b505afa1580156123c1573d6000803e3d6000fd5b505050506040513d6000823e3d601f19601f820116820180604052508101906123ea9190614ad7565b600181518110612423577f4e487b7100000000000000000000000000000000000000000000000000000000600052603260045260246000fd5b6020026020010151955085878260ff168151811061246a577f4e487b7100000000000000000000000000000000000000000000000000000000600052603260045260246000fd5b60200260200101818152505085826124829190615573565b9150808061248f90615769565b915050612231565b50600081836124a691906155c9565b905060005b89518160ff16101561273e5760008a8260ff16815181106124f5577f4e487b7100000000000000000000000000000000000000000000000000000000600052603260045260246000fd5b602002602001015190506000838a8460ff168151811061253e577f4e487b7100000000000000000000000000000000000000000000000000000000600052603260045260246000fd5b602002602001015161255091906155fa565b905060c8600160008473ffffffffffffffffffffffffffffffffffffffff1673ffffffffffffffffffffffffffffffffffffffff16815260200190815260200160002080549050106125d7576040517f08c379a00000000000000000000000000000000000000000000000000000000081526004016125ce906152ca565b60405180910390fd5b80600260008473ffffffffffffffffffffffffffffffffffffffff1673ffffffffffffffffffffffffffffffffffffffff16815260200190815260200160002060008282546126269190615573565b92505081905550600060405180606001604052808f81526020013373ffffffffffffffffffffffffffffffffffffffff168152602001838152509050600160008473ffffffffffffffffffffffffffffffffffffffff1673ffffffffffffffffffffffffffffffffffffffff1681526020019081526020016000208190806001815401808255809150506001900390600052602060002090600302016000909190919091506000820151816000015560208201518160010160006101000a81548173ffffffffffffffffffffffffffffffffffffffff021916908373ffffffffffffffffffffffffffffffffffffffff160217905550604082015181600201555050505050808061273690615769565b9150506124ab565b5050505050505050505050565b60606000808054905067ffffffffffffffff811115612793577f4e487b7100000000000000000000000000000000000000000000000000000000600052604160045260246000fd5b6040519080825280602002602001820160405280156127c15781602001602082028036833780820191505090505b50905060005b6000805490508110156128c6576000818154811061280e577f4e487b7100000000000000000000000000000000000000000000000000000000600052603260045260246000fd5b906000526020600020906009020160000160009054906101000a900473ffffffffffffffffffffffffffffffffffffffff16828281518110612879577f4e487b7100000000000000000000000000000000000000000000000000000000600052603260045260246000fd5b602002602001019073ffffffffffffffffffffffffffffffffffffffff16908173ffffffffffffffffffffffffffffffffffffffff168152505080806128be90615720565b9150506127c7565b508091505090565b60008060005b6000848154811061290e577f4e487b7100000000000000000000000000000000000000000000000000000000600052603260045260246000fd5b906000526020600020906009020160020180549050811015612b33576000808581548110612965577f4e487b7100000000000000000000000000000000000000000000000000000000600052603260045260246000fd5b906000526020600020906009020160020182815481106129ae577f4e487b7100000000000000000000000000000000000000000000000000000000600052603260045260246000fd5b9060005260206000200160009054906101000a900473ffffffffffffffffffffffffffffffffffffffff1690506107cb600260008373ffffffffffffffffffffffffffffffffffffffff1673ffffffffffffffffffffffffffffffffffffffff16815260200190815260200160002054612a2891906155c9565b93508383612a369190615573565b92506000612a8382600260008573ffffffffffffffffffffffffffffffffffffffff1673ffffffffffffffffffffffffffffffffffffffff16815260200190815260200160002054613734565b9050612b1e828260018451612a989190615654565b81518110612acf577f4e487b7100000000000000000000000000000000000000000000000000000000600052603260045260246000fd5b602002602001015183600081518110612b11577f4e487b7100000000000000000000000000000000000000000000000000000000600052603260045260246000fd5b6020026020010151613a04565b50508080612b2b90615720565b9150506128d4565b503373ffffffffffffffffffffffffffffffffffffffff166108fc829081150290604051600060405180830381858888f19350505050158015612b7a573d6000803e3d6000fd5b50505050565b60008060005b60008581548110612bc0577f4e487b7100000000000000000000000000000000000000000000000000000000600052603260045260246000fd5b9060005260206000209060090201600201805490508110156130bc5760008581548110612c16577f4e487b7100000000000000000000000000000000000000000000000000000000600052603260045260246000fd5b90600052602060002090600902016002018181548110612c5f577f4e487b7100000000000000000000000000000000000000000000000000000000600052603260045260246000fd5b9060005260206000200160009054906101000a900473ffffffffffffffffffffffffffffffffffffffff169150836103e860008781548110612cca577f4e487b7100000000000000000000000000000000000000000000000000000000600052603260045260246000fd5b906000526020600020906009020160060160008573ffffffffffffffffffffffffffffffffffffffff1673ffffffffffffffffffffffffffffffffffffffff16815260200190815260200160002060003373ffffffffffffffffffffffffffffffffffffffff1673ffffffffffffffffffffffffffffffffffffffff16815260200190815260200160002054612d6091906155c9565b612d6a91906155fa565b92508260008681548110612da7577f4e487b7100000000000000000000000000000000000000000000000000000000600052603260045260246000fd5b906000526020600020906009020160060160008473ffffffffffffffffffffffffffffffffffffffff1673ffffffffffffffffffffffffffffffffffffffff16815260200190815260200160002060003373ffffffffffffffffffffffffffffffffffffffff1673ffffffffffffffffffffffffffffffffffffffff1681526020019081526020016000205411612e73576040517f08c379a0000000000000000000000000000000000000000000000000000000008152600401612e6a9061532a565b60405180910390fd5b8260008681548110612eae577f4e487b7100000000000000000000000000000000000000000000000000000000600052603260045260246000fd5b906000526020600020906009020160060160008473ffffffffffffffffffffffffffffffffffffffff1673ffffffffffffffffffffffffffffffffffffffff16815260200190815260200160002060003373ffffffffffffffffffffffffffffffffffffffff1673ffffffffffffffffffffffffffffffffffffffff1681526020019081526020016000206000828254612f489190615654565b925050819055508173ffffffffffffffffffffffffffffffffffffffff1663095ea7b333856040518363ffffffff1660e01b8152600401612f8a9291906150f1565b602060405180830381600087803b158015612fa457600080fd5b505af1158015612fb8573d6000803e3d6000fd5b505050506040513d601f19601f82011682018060405250810190612fdc9190614b84565b61301b576040517f08c379a00000000000000000000000000000000000000000000000000000000081526004016130129061528a565b60405180910390fd5b8173ffffffffffffffffffffffffffffffffffffffff1663a9059cbb33856040518363ffffffff1660e01b81526004016130569291906150f1565b602060405180830381600087803b15801561307057600080fd5b505af1158015613084573d6000803e3d6000fd5b505050506040513d601f19601f820116820180604052508101906130a89190614b84565b5080806130b490615720565b915050612b86565b5050505050565b60008060005b60008481548110613103577f4e487b7100000000000000000000000000000000000000000000000000000000600052603260045260246000fd5b90600052602060002090600902016002018054905081101561334157600080858154811061315a577f4e487b7100000000000000000000000000000000000000000000000000000000600052603260045260246000fd5b906000526020600020906009020160020182815481106131a3577f4e487b7100000000000000000000000000000000000000000000000000000000600052603260045260246000fd5b9060005260206000200160009054906101000a900473ffffffffffffffffffffffffffffffffffffffff169050600061321b82600460008573ffffffffffffffffffffffffffffffffffffffff1673ffffffffffffffffffffffffffffffffffffffff16815260200190815260200160002054613d30565b90506107d0816001835161322f9190615654565b81518110613266577f4e487b7100000000000000000000000000000000000000000000000000000000600052603260045260246000fd5b602002602001015161327891906155c9565b945084846132869190615573565b935061332c82826000815181106132c6577f4e487b7100000000000000000000000000000000000000000000000000000000600052603260045260246000fd5b60200260200101518784600186516132de9190615654565b81518110613315577f4e487b7100000000000000000000000000000000000000000000000000000000600052603260045260246000fd5b60200260200101516133279190615654565b6140ef565b5050808061333990615720565b9150506130c9565b503373ffffffffffffffffffffffffffffffffffffffff166108fc829081150290604051600060405180830381858888f19350505050158015613388573d6000803e3d6000fd5b50505050565b600660009054906101000a900473ffffffffffffffffffffffffffffffffffffffff1673ffffffffffffffffffffffffffffffffffffffff163373ffffffffffffffffffffffffffffffffffffffff161461341e576040517f08c379a00000000000000000000000000000000000000000000000000000000081526004016134159061526a565b60405180910390fd5b60008111613461576040517f08c379a0000000000000000000000000000000000000000000000000000000008152600401613458906151ca565b60405180910390fd5b600060026000848154811061349f577f4e487b7100000000000000000000000000000000000000000000000000000000600052603260045260246000fd5b9060005260206000209060090201600301546134bb91906155c9565b905060008084815481106134f8577f4e487b7100000000000000000000000000000000000000000000000000000000600052603260045260246000fd5b906000526020600020906009020160050154826135159190615654565b905060006103e8848361352891906155fa565b61353291906155c9565b905080821015613577576040517f08c379a000000000000000000000000000000000000000000000000000000000815260040161356e906151ea565b60405180910390fd5b80600086815481106135b2577f4e487b7100000000000000000000000000000000000000000000000000000000600052603260045260246000fd5b906000526020600020906009020160050160008282546135d29190615573565b925050819055503373ffffffffffffffffffffffffffffffffffffffff166108fc829081150290604051600060405180830381858888f1935050505015801561361f573d6000803e3d6000fd5b505050505050565b600080600190505b82518110156137295760005b818110156137155783818151811061367c577f4e487b7100000000000000000000000000000000000000000000000000000000600052603260045260246000fd5b602002602001015173ffffffffffffffffffffffffffffffffffffffff168483815181106136d3577f4e487b7100000000000000000000000000000000000000000000000000000000600052603260045260246000fd5b602002602001015173ffffffffffffffffffffffffffffffffffffffff1614156137025760009250505061372f565b808061370d90615720565b91505061363b565b50808061372190615720565b91505061362f565b50600190505b919050565b60606000600267ffffffffffffffff811115613779577f4e487b7100000000000000000000000000000000000000000000000000000000600052604160045260246000fd5b6040519080825280602002602001820160405280156137a75781602001602082028036833780820191505090505b509050600560009054906101000a900473ffffffffffffffffffffffffffffffffffffffff1673ffffffffffffffffffffffffffffffffffffffff1663ad5c46486040518163ffffffff1660e01b815260040160206040518083038186803b15801561381257600080fd5b505afa158015613826573d6000803e3d6000fd5b505050506040513d601f19601f8201168201806040525081019061384a9190614aae565b81600081518110613884577f4e487b7100000000000000000000000000000000000000000000000000000000600052603260045260246000fd5b602002602001019073ffffffffffffffffffffffffffffffffffffffff16908173ffffffffffffffffffffffffffffffffffffffff168152505083816001815181106138f9577f4e487b7100000000000000000000000000000000000000000000000000000000600052603260045260246000fd5b602002602001019073ffffffffffffffffffffffffffffffffffffffff16908173ffffffffffffffffffffffffffffffffffffffff1681525050600560009054906101000a900473ffffffffffffffffffffffffffffffffffffffff1673ffffffffffffffffffffffffffffffffffffffff16637ff36ab58460018430620186a0426139859190615573565b6040518663ffffffff1660e01b81526004016139a4949392919061515e565b6000604051808303818588803b1580156139bd57600080fd5b505af11580156139d1573d6000803e3d6000fd5b50505050506040513d6000823e3d601f19601f820116820180604052508101906139fb9190614ad7565b91505092915050565b60005b600160008573ffffffffffffffffffffffffffffffffffffffff1673ffffffffffffffffffffffffffffffffffffffff16815260200190815260200160002080549050811015613c89576000600160008673ffffffffffffffffffffffffffffffffffffffff1673ffffffffffffffffffffffffffffffffffffffff1681526020019081526020016000208281548110613aca577f4e487b7100000000000000000000000000000000000000000000000000000000600052603260045260246000fd5b9060005260206000209060030201604051806060016040529081600082015481526020016001820160009054906101000a900473ffffffffffffffffffffffffffffffffffffffff1673ffffffffffffffffffffffffffffffffffffffff1673ffffffffffffffffffffffffffffffffffffffff16815260200160028201548152505090506000838260400151620f4240613b6591906155fa565b613b6f91906155c9565b90506000620f42408287613b8391906155fa565b613b8d91906155c9565b9050806000846000015181548110613bce577f4e487b7100000000000000000000000000000000000000000000000000000000600052603260045260246000fd5b906000526020600020906009020160060160008973ffffffffffffffffffffffffffffffffffffffff1673ffffffffffffffffffffffffffffffffffffffff1681526020019081526020016000206000856020015173ffffffffffffffffffffffffffffffffffffffff1673ffffffffffffffffffffffffffffffffffffffff1681526020019081526020016000206000828254613c6c9190615573565b925050819055505050508080613c8190615720565b915050613a07565b50600160008473ffffffffffffffffffffffffffffffffffffffff1673ffffffffffffffffffffffffffffffffffffffff1681526020019081526020016000206000613cd591906147cb565b80600260008573ffffffffffffffffffffffffffffffffffffffff1673ffffffffffffffffffffffffffffffffffffffff1681526020019081526020016000206000828254613d249190615654565b92505081905550505050565b60606000600267ffffffffffffffff811115613d75577f4e487b7100000000000000000000000000000000000000000000000000000000600052604160045260246000fd5b604051908082528060200260200182016040528015613da35781602001602082028036833780820191505090505b5090508381600081518110613de1577f4e487b7100000000000000000000000000000000000000000000000000000000600052603260045260246000fd5b602002602001019073ffffffffffffffffffffffffffffffffffffffff16908173ffffffffffffffffffffffffffffffffffffffff1681525050600560009054906101000a900473ffffffffffffffffffffffffffffffffffffffff1673ffffffffffffffffffffffffffffffffffffffff1663ad5c46486040518163ffffffff1660e01b815260040160206040518083038186803b158015613e8357600080fd5b505afa158015613e97573d6000803e3d6000fd5b505050506040513d601f19601f82011682018060405250810190613ebb9190614aae565b81600181518110613ef5577f4e487b7100000000000000000000000000000000000000000000000000000000600052603260045260246000fd5b602002602001019073ffffffffffffffffffffffffffffffffffffffff16908173ffffffffffffffffffffffffffffffffffffffff16815250508373ffffffffffffffffffffffffffffffffffffffff1663095ea7b3600560009054906101000a900473ffffffffffffffffffffffffffffffffffffffff16856040518363ffffffff1660e01b8152600401613f8c9291906150f1565b602060405180830381600087803b158015613fa657600080fd5b505af1158015613fba573d6000803e3d6000fd5b505050506040513d601f19601f82011682018060405250810190613fde9190614b84565b61401d576040517f08c379a00000000000000000000000000000000000000000000000000000000081526004016140149061530a565b60405180910390fd5b600560009054906101000a900473ffffffffffffffffffffffffffffffffffffffff1673ffffffffffffffffffffffffffffffffffffffff166318cbafe58460018430620186a04261406f9190615573565b6040518663ffffffff1660e01b815260040161408f9594939291906153f7565b600060405180830381600087803b1580156140a957600080fd5b505af11580156140bd573d6000803e3d6000fd5b505050506040513d6000823e3d601f19601f820116820180604052508101906140e69190614ad7565b91505092915050565b60005b600360008573ffffffffffffffffffffffffffffffffffffffff1673ffffffffffffffffffffffffffffffffffffffff1681526020019081526020016000208054905081101561448a576000600360008673ffffffffffffffffffffffffffffffffffffffff1673ffffffffffffffffffffffffffffffffffffffff16815260200190815260200160002082815481106141b5577f4e487b7100000000000000000000000000000000000000000000000000000000600052603260045260246000fd5b9060005260206000209060030201604051806060016040529081600082015481526020016001820160009054906101000a900473ffffffffffffffffffffffffffffffffffffffff1673ffffffffffffffffffffffffffffffffffffffff1673ffffffffffffffffffffffffffffffffffffffff16815260200160028201548152505090506000848260400151620f424061425091906155fa565b61425a91906155c9565b90506000620f4240828661426e91906155fa565b61427891906155c9565b90508060008460000151815481106142b9577f4e487b7100000000000000000000000000000000000000000000000000000000600052603260045260246000fd5b90600052602060002090600902016007016000856020015173ffffffffffffffffffffffffffffffffffffffff1673ffffffffffffffffffffffffffffffffffffffff168152602001908152602001600020600082825461431a9190615573565b9250508190555060016000846000015181548110614361577f4e487b7100000000000000000000000000000000000000000000000000000000600052603260045260246000fd5b90600052602060002090600902016008016000856020015173ffffffffffffffffffffffffffffffffffffffff1673ffffffffffffffffffffffffffffffffffffffff16815260200190815260200160002060008282546143c29190615654565b92505081905550600080846000015181548110614408577f4e487b7100000000000000000000000000000000000000000000000000000000600052603260045260246000fd5b90600052602060002090600902016008016000856020015173ffffffffffffffffffffffffffffffffffffffff1673ffffffffffffffffffffffffffffffffffffffff1681526020019081526020016000205414156144745761447383600001518460200151614531565b5b505050808061448290615720565b9150506140f2565b50600360008473ffffffffffffffffffffffffffffffffffffffff1673ffffffffffffffffffffffffffffffffffffffff16815260200190815260200160002060006144d691906147cb565b81600460008573ffffffffffffffffffffffffffffffffffffffff1673ffffffffffffffffffffffffffffffffffffffff16815260200190815260200160002060008282546145259190615654565b92505081905550505050565b600080838154811061456c577f4e487b7100000000000000000000000000000000000000000000000000000000600052603260045260246000fd5b906000526020600020906009020160070160008373ffffffffffffffffffffffffffffffffffffffff1673ffffffffffffffffffffffffffffffffffffffff16815260200190815260200160002054905080600084815481106145f8577f4e487b7100000000000000000000000000000000000000000000000000000000600052603260045260246000fd5b906000526020600020906009020160070160008473ffffffffffffffffffffffffffffffffffffffff1673ffffffffffffffffffffffffffffffffffffffff16815260200190815260200160002060008282546146559190615654565b925050819055508173ffffffffffffffffffffffffffffffffffffffff166108fc829081150290604051600060405180830381858888f193505050501580156146a2573d6000803e3d6000fd5b50505050565b8280548282559060005260206000209081019282156146e4579160200282015b828111156146e35782518255916020019190600101906146c8565b5b5090506146f191906147ef565b5090565b82805482825590600052602060002090810192821561476e579160200282015b8281111561476d5782518260006101000a81548173ffffffffffffffffffffffffffffffffffffffff021916908373ffffffffffffffffffffffffffffffffffffffff16021790555091602001919060010190614715565b5b50905061477b91906147ef565b5090565b6040518060c00160405280600073ffffffffffffffffffffffffffffffffffffffff16815260200160608152602001606081526020016000815260200160008152602001600081525090565b50805460008255600302906000526020600020908101906147ec919061480c565b50565b5b808211156148085760008160009055506001016147f0565b5090565b5b80821115614856576000808201600090556001820160006101000a81549073ffffffffffffffffffffffffffffffffffffffff021916905560028201600090555060030161480d565b5090565b600061486d61486884615476565b615451565b9050808382526020820190508285602086028201111561488c57600080fd5b60005b858110156148bc57816148a2888261499e565b84526020840193506020830192505060018101905061488f565b5050509392505050565b60006148d96148d4846154a2565b615451565b905080838252602082019050828560208602820111156148f857600080fd5b60005b85811015614928578161490e8882614a5b565b8452602084019350602083019250506001810190506148fb565b5050509392505050565b6000614945614940846154a2565b615451565b9050808382526020820190508285602086028201111561496457600080fd5b60005b85811015614994578161497a8882614a70565b845260208401935060208301925050600181019050614967565b5050509392505050565b6000813590506149ad81615c14565b92915050565b6000815190506149c281615c14565b92915050565b600082601f8301126149d957600080fd5b81356149e984826020860161485a565b91505092915050565b600082601f830112614a0357600080fd5b8135614a138482602086016148c6565b91505092915050565b600082601f830112614a2d57600080fd5b8151614a3d848260208601614932565b91505092915050565b600081519050614a5581615c2b565b92915050565b600081359050614a6a81615c42565b92915050565b600081519050614a7f81615c42565b92915050565b600060208284031215614a9757600080fd5b6000614aa58482850161499e565b91505092915050565b600060208284031215614ac057600080fd5b6000614ace848285016149b3565b91505092915050565b600060208284031215614ae957600080fd5b600082015167ffffffffffffffff811115614b0357600080fd5b614b0f84828501614a1c565b91505092915050565b60008060408385031215614b2b57600080fd5b600083013567ffffffffffffffff811115614b4557600080fd5b614b51858286016149f2565b925050602083013567ffffffffffffffff811115614b6e57600080fd5b614b7a858286016149c8565b9150509250929050565b600060208284031215614b9657600080fd5b6000614ba484828501614a46565b91505092915050565b600060208284031215614bbf57600080fd5b6000614bcd84828501614a5b565b91505092915050565b600080600060608486031215614beb57600080fd5b6000614bf986828701614a5b565b9350506020614c0a8682870161499e565b9250506040614c1b8682870161499e565b9150509250925092565b60008060408385031215614c3857600080fd5b6000614c4685828601614a5b565b9250506020614c5785828601614a5b565b9150509250929050565b6000614c6d8383614c91565b60208301905092915050565b6000614c8583836150d3565b60208301905092915050565b614c9a81615688565b82525050565b614ca981615688565b82525050565b6000614cba826154ee565b614cc4818561551e565b9350614ccf836154ce565b8060005b83811015614d00578151614ce78882614c61565b9750614cf283615504565b925050600181019050614cd3565b5085935050505092915050565b6000614d18826154ee565b614d22818561552f565b9350614d2d836154ce565b8060005b83811015614d5e578151614d458882614c61565b9750614d5083615504565b925050600181019050614d31565b5085935050505092915050565b6000614d76826154f9565b614d808185615540565b9350614d8b836154de565b8060005b83811015614dbc578151614da38882614c79565b9750614dae83615511565b925050600181019050614d8f565b5085935050505092915050565b6000614dd4826154f9565b614dde8185615551565b9350614de9836154de565b8060005b83811015614e1a578151614e018882614c79565b9750614e0c83615511565b925050600181019050614ded565b5085935050505092915050565b614e30816156dd565b82525050565b6000614e43602283615562565b9150614e4e82615831565b604082019050919050565b6000614e66602e83615562565b9150614e7182615880565b604082019050919050565b6000614e89601b83615562565b9150614e94826158cf565b602082019050919050565b6000614eac602183615562565b9150614eb7826158f8565b604082019050919050565b6000614ecf602483615562565b9150614eda82615947565b604082019050919050565b6000614ef2601183615562565b9150614efd82615996565b602082019050919050565b6000614f15602083615562565b9150614f20826159bf565b602082019050919050565b6000614f38601483615562565b9150614f43826159e8565b602082019050919050565b6000614f5b604e83615562565b9150614f6682615a11565b606082019050919050565b6000614f7e603f83615562565b9150614f8982615a86565b604082019050919050565b6000614fa1602683615562565b9150614fac82615ad5565b604082019050919050565b6000614fc4600f83615562565b9150614fcf82615b24565b602082019050919050565b6000614fe7601283615562565b9150614ff282615b4d565b602082019050919050565b600061500a603083615562565b915061501582615b76565b604082019050919050565b600061502d603183615562565b915061503882615bc5565b604082019050919050565b600060c08301600083015161505b6000860182614c91565b50602083015184820360208601526150738282614d6b565b9150506040830151848203604086015261508d8282614caf565b91505060608301516150a260608601826150d3565b5060808301516150b560808601826150d3565b5060a08301516150c860a08601826150d3565b508091505092915050565b6150dc816156c6565b82525050565b6150eb816156c6565b82525050565b60006040820190506151066000830185614ca0565b61511360208301846150e2565b9392505050565b600060208201905081810360008301526151348184614d0d565b905092915050565b600060208201905081810360008301526151568184614dc9565b905092915050565b60006080820190506151736000830187614e27565b81810360208301526151858186614d0d565b90506151946040830185614ca0565b6151a160608301846150e2565b95945050505050565b600060208201905081810360008301526151c381614e36565b9050919050565b600060208201905081810360008301526151e381614e59565b9050919050565b6000602082019050818103600083015261520381614e7c565b9050919050565b6000602082019050818103600083015261522381614e9f565b9050919050565b6000602082019050818103600083015261524381614ec2565b9050919050565b6000602082019050818103600083015261526381614ee5565b9050919050565b6000602082019050818103600083015261528381614f08565b9050919050565b600060208201905081810360008301526152a381614f2b565b9050919050565b600060208201905081810360008301526152c381614f4e565b9050919050565b600060208201905081810360008301526152e381614f71565b9050919050565b6000602082019050818103600083015261530381614f94565b9050919050565b6000602082019050818103600083015261532381614fb7565b9050919050565b6000602082019050818103600083015261534381614fda565b9050919050565b6000602082019050818103600083015261536381614ffd565b9050919050565b6000602082019050818103600083015261538381615020565b9050919050565b600060208201905081810360008301526153a48184615043565b905092915050565b60006020820190506153c160008301846150e2565b92915050565b60006040820190506153dc60008301856150e2565b81810360208301526153ee8184614d0d565b90509392505050565b600060a08201905061540c60008301886150e2565b6154196020830187614e27565b818103604083015261542b8186614d0d565b905061543a6060830185614ca0565b61544760808301846150e2565b9695505050505050565b600061545b61546c565b905061546782826156ef565b919050565b6000604051905090565b600067ffffffffffffffff821115615491576154906157f1565b5b602082029050602081019050919050565b600067ffffffffffffffff8211156154bd576154bc6157f1565b5b602082029050602081019050919050565b6000819050602082019050919050565b6000819050602082019050919050565b600081519050919050565b600081519050919050565b6000602082019050919050565b6000602082019050919050565b600082825260208201905092915050565b600082825260208201905092915050565b600082825260208201905092915050565b600082825260208201905092915050565b600082825260208201905092915050565b600061557e826156c6565b9150615589836156c6565b9250827fffffffffffffffffffffffffffffffffffffffffffffffffffffffffffffffff038211156155be576155bd615793565b5b828201905092915050565b60006155d4826156c6565b91506155df836156c6565b9250826155ef576155ee6157c2565b5b828204905092915050565b6000615605826156c6565b9150615610836156c6565b9250817fffffffffffffffffffffffffffffffffffffffffffffffffffffffffffffffff048311821515161561564957615648615793565b5b828202905092915050565b600061565f826156c6565b915061566a836156c6565b92508282101561567d5761567c615793565b5b828203905092915050565b6000615693826156a6565b9050919050565b60008115159050919050565b600073ffffffffffffffffffffffffffffffffffffffff82169050919050565b6000819050919050565b600060ff82169050919050565b60006156e8826156c6565b9050919050565b6156f882615820565b810181811067ffffffffffffffff82111715615717576157166157f1565b5b80604052505050565b600061572b826156c6565b91507fffffffffffffffffffffffffffffffffffffffffffffffffffffffffffffffff82141561575e5761575d615793565b5b600182019050919050565b6000615774826156d0565b915060ff82141561578857615787615793565b5b600182019050919050565b7f4e487b7100000000000000000000000000000000000000000000000000000000600052601160045260246000fd5b7f4e487b7100000000000000000000000000000000000000000000000000000000600052601260045260246000fd5b7f4e487b7100000000000000000000000000000000000000000000000000000000600052604160045260246000fd5b6000601f19601f8301169050919050565b7f43414e27542053454c4c204d4f5245205448414e2031303025204f462046554e60008201527f4453000000000000000000000000000000000000000000000000000000000000602082015250565b7f57495448445241572050455243414e54414745204e4545445320544f2042452060008201527f47524541544552205448414e2030000000000000000000000000000000000000602082015250565b7f464545205749544844524157204c494d49542045584345454445440000000000600082015250565b7f4e4545445320544f204841564520534841524553204f462054484520494e444560008201527f5800000000000000000000000000000000000000000000000000000000000000602082015250565b7f4f4e4c5920494e4445582043524541544f522043414e2057495448445241572060008201527f4645455300000000000000000000000000000000000000000000000000000000602082015250565b7f4455504c49434154454420544f4b454e53000000000000000000000000000000600082015250565b7f4f4e4c5920494e444558504f4f4c2043414e2057495448445241572046454553600082015250565b7f455243323020415050524f5645204641494c4544000000000000000000000000600082015250565b7f414c4c4f434154494f4e20414d4f554e5420495320544f4f20534d414c4c2c2060008201527f4e4545445320544f204245204154204c45415354204551554956414c454e542060208201527f544f203130302c30303020574549000000000000000000000000000000000000604082015250565b7f4e4f204d4f5245205448414e203230302050454e44494e47205452414e53414360008201527f54494f4e5320414c4c4f57454420464f52204120474956454e20415353455400602082015250565b7f53454c4c20504354204e4545445320544f20424520475245415445522054484160008201527f4e205a45524f0000000000000000000000000000000000000000000000000000602082015250565b7f617070726f7665206661696c65642e0000000000000000000000000000000000600082015250565b7f494e53554646494349454e542046554e44530000000000000000000000000000600082015250565b7f4d49534d4154434820494e204c454e475448204245545745454e20544f4b454e60008201527f5320414e4420414c4c4f434154494f4e00000000000000000000000000000000602082015250565b7f4e4f204d4f5245205448414e2035313220544f4b454e5320414c4c4f5745442060008201527f494e20412053494e474c4520494e444558000000000000000000000000000000602082015250565b615c1d81615688565b8114615c2857600080fd5b50565b615c348161569a565b8114615c3f57600080fd5b50565b615c4b816156c6565b8114615c5657600080fd5b5056fea2646970667358221220debed1f51d60adc571edb5e7052e4fc3eac156c936b57090338801a4391be2c464736f6c63430008040033",
  "linkReferences": {},
  "deployedLinkReferences": {}
}